:020000040020DA
:10200000981F00208D222000EB772000E977200028
:10201000E9772000E9772000E97720000000000040
:10202000000000000000000000000000997E200079
:10203000E977200000000000B77E20006D782000C6
:102040007F782000857820008B7820009178200010
:10205000000000007378200079782000E9772000E4
:10206000E9772000000000000000000000000000F0
:102070000000000000000000E977200000000000E0
:102080000000000000000000E9772000E977200050
:10209000E9772000E9772000E9772000E977200040
:1020A000E9772000E9772000E9772000E977200030
:1020B000E9772000E9772000E9772000E977200020
:1020C000E9772000E9772000E9772000E977200010
:1020D000E977200000000000000000000000000080
:1020E00000000000000000000000000000000000F0
:1020F000000000000000000091382000A1382000FE
:1021000000000000000000000000000000000000CF
:1021100000000000000000000000000000000000BF
:1021200000000000000000000000000000000000AF
:10213000000000000000000000000000000000009F
:10214000000000000000000000000000000000008F
:10215000000000000000000000000000000000007F
:10216000000000000000000000000000000000006F
:10217000000000000000000000000000000000005F
:10218000000000000000000000000000000000004F
:10219000000000000000000000000000000000003F
:1021A000000000000000000000000000000000002F
:1021B000000000000000000000000000000000001F
:1021C000000000000000000000000000000000000F
:1021D00000000000000000000000000000000000FF
:1021E00000000000000000000000000000000000EF
:1021F00000000000000000000000000000000000DF
:1022000000000000000000000000000000000000CE
:1022100000000000000000000000000000000000BE
:1022200000000000000000000000000000000000AE
:10223000000000000000000000000000000000009E
:10224000000000000000000000000000000000008E
:10225000000000000000000000000000000000007E
:10226000000000000000000000000000000000006E
:10227000E97720007137200095372000012E2000DB
:10228000ED39200031292000E9772000FF220024C9
:1022900008B5094B0948C3F8B420094A636E0949D7
:1022A000121A98470848094A2146236E121A98477D
:1022B00000F00EF8FEE700BF00200D4040000020B7
:1022C0002C010020B88E200030010020961700203D
:1022D00073B500F073FC00F02DFD00F089FC00F0F8
:1022E000B5FA01F071FB05F06AFB00F01BFD00F090
:1022F000ADF8012005F07CFA02F060F900F04AFC2C
:10230000002000F06DFB012000F06AFB00203D4939
:1023100000F02AFC02F098FA62B6042005F068FA90
:10232000394805F0DAFA394805F0D7FA00F02CFA06
:10233000002002F031FB01F043FA0021344802F0A2
:10234000C9F901F0ADFF05F081FA00F07DFD00F064
:1023500099FD02F08BFE0821684601F05BFB2D4DD4
:10236000BDF806402C482C8001F08AFB2B4E2978C2
:102370002B4801F085FB69782A4801F081FBF56A5A
:102380004AF6CD310220A84761BA89B20320A84796
:102390001A210120A84708226946736B0B20984731
:1023A000214801F06DFB214B186805F096FA204892
:1023B00001F066FB1F4B186805F08FFA1E4801F00C
:1023C0005FFB1E4B186805F088FA00211C4802F0DC
:1023D00081F91C4B01219B688120984705F0DFFAA9
:1023E000194805F0D2FA00F0DBFB022005F000FAF4
:1023F00000F0DCFB02F0FAF8C0B20028F8D101F0DE
:102400007BFAF5E701482000AA842000BC84200064
:1024100078000020D40D0020E184200018832000E3
:10242000FF842000058520000B852000EC83200020
:102430001285200010842000198520003884200097
:1024400098000020A08220007C84200008B500F0C5
:1024500043F90022014B1A7008BD00BFE6150020A9
:10246000024B1A781043187000F058B9E615002096
:10247000034A137823EA0000107000F04FB900BF40
:10248000E615002008B50B4B1B7803420FD020281F
:102490000BD004280BD10220074B80211A7800F0C2
:1024A00073FC20EAE07000B208BD0520F4E74FF0AD
:1024B0000040F9E7E8150020E7150020802810B556
:1024C0000C4605D0B0F5807F2BD04FF0004027E0C0
:1024D0008B1E222BF9D8194BD3F8202422EA0102B3
:1024E000C3F82024D3F8002422EA0102C3F8002410
:1024F0008A0604D501220521002000F029FC63078B
:1025000004D501220221002000F022FC00F034FC5E
:1025100030220B4B1A700B4B187820431870002098
:1025200010BDC8B2202803D005D810F0EF0FCCD1D1
:10253000034B1870F4E73028FAD0C6E700900D403E
:10254000E7150020E815002018B1012804D000206C
:102550007047034B186A7047024B1878704700BFEA
:1025600000900D40EA15002010B5094A00201378AC
:1025700001331370074B197802F084F8BDE810405E
:1025800005490023054A0968054801F0BFBE00BFA0
:10259000EA150020E91500206801002069252000C7
:1025A0004801002008B50346812B08462DD0B3F51D
:1025B000807F3ED0802B26D101F0F8FF1E4B0321F7
:1025C00018701E4B0020D3F8202422F00802C3F814
:1025D0002024D3F8002422F00802C3F80024D3F802
:1025E000042422F00802C3F80424D3F8082442F09B
:1025F0000802C3F80824042200F0AAFB03220021E9
:102600000F4800F049FB01200AE00C4B0D49D3F8BC
:10261000102430B142F00802C3F8102401230B60EB
:1026200008BD22F00802C3F810240123C1F880304D
:10263000F6E7054B1960E6E7E915002000900D402C
:102640004D26200000E100E06801002008B50F4899
:1026500005F0BEF9C8B108210C4805F0B2F90C4BE1
:10266000196849B100220B4B1A700B4B1B6A43B916
:102670000A4A0B4801F04AFEBDE80840094802F04A
:102680005FB9074801F04CFEF6E708BD40010020A5
:1026900068010020EA15002000900D406925200007
:1026A00048010020A0822000094BD3F8202422F00A
:1026B0000402C3F82024D3F8002442F00402C3F833
:1026C000002400221A610122024B1A70704700BFD9
:1026D00000C00D40EF15002000210F4BD3F820243F
:1026E00022F0C002C3F82024D3F8002442F0C00234
:1026F000C3F80024C3F8001303F50053D3F82024D3
:1027000022F01002C3F82024D3F8002442F0100273
:10271000C3F800241964704700A00D4010F00202B5
:1027200018BFFF22084BC3F8002210F0040218BFA4
:10273000FF2210F00100C3F8002118BFFF22034B55
:1027400014BF1A641864704700A00D4000C00D400B
:10275000044BDB69C3F3072013F4704F04BF103040
:10276000C0B2704700300D40064B5869C00910F0E8
:10277000060F03BF00F00700C0F1020040034FF452
:102780000040704700300D402DE9F047002488B02C
:10279000FFF7DEFF164B0646DF69236D9847E36CB3
:1027A000804698470446FFF7DFFF054600F05CFAD5
:1027B000814600F065FA824600F010FAAD0A07F093
:1027C0000103A40AC7F34007CDE905A003934146DE
:1027D000CDF8109002970195009406F00F03C6F310
:1027E0000712044801F04CF908B0BDE8F08700BFBB
:1027F00000300D403C8520002DE9784800F064F859
:1028000010490246D1E900BC6646584538BF0CF174
:1028100001063346C1E900230B4ED6E90001B0EBB7
:102820000B0461EB0C05A01845EB0301C6E90001A0
:1028300001F026FE18B1BDE8784801F0A7BDBDE85B
:10284000788800BF38010020300100204FF0E023DD
:10285000E0210B4A5A610B4A82F82310002207211B
:102860009A61196108498B6843F001038B60074B3B
:10287000DA6004221A6001225A600F229A637047BC
:1028800047E8010000ED00E000200D40000003409B
:10289000034BD3E90023100A40EA0360704700BFEE
:1028A00038010020044B9862DA6842F00102DA60D5
:1028B000DA68D207FCD4704700000340014B186867
:1028C000704700BF6C010020054A106C516C936C7E
:1028D0001B0443EA01230343D06C43EA00607047C2
:1028E00000500D4010B504460E4A136DDB07FCD5B1
:1028F00072B6FFF7E9FF231A062BD8BFC41D094B98
:10290000220EDA64C4F307429A64C4F307225A64BD
:10291000E2B21A6462B64FF40032034B1C60034B00
:102920001A6110BD00500D406C01002000E100E074
:1029300008B500F0CDFF0022064B1A604FF40032BC
:10294000054BC3F89021C3F89020BDE8084001F082
:10295000F7BE00BF6C01002000E100E0064B9B6960
:102960001B075FBF054B986980F00800C0F3C000EB
:1029700048BF0020704700BF00C0004000D00040AA
:102980002C22154B70B502FB00334FF6BF72DC688A
:102990000546236C626413F050020DD00F4EA369FC
:1029A000DB0600D570BD56F825301BB12068C0B2DB
:1029B0009847F4E72368F2E713F4D06FF2D04FF4AE
:1029C00040732363FF236360E36AE262E362236B85
:1029D00043F001032363E5E7B0822000700100208B
:1029E00001282DE9F74F804600F2AD802C254543A4
:1029F000564F7C1994F92090B9F1000FC0F2A380D2
:102A000094F92260002EC0F29E80514800F0CAFF67
:102A1000504B79599A6A94F921A00A439A62DA6A6A
:102A20006168E5680A43DA621A6BA168F0B20A438A
:102A30001A63002322690AEBC901C5F8C83F116077
:102A400094F82310227DCDE9000194F923B000F021
:102A500089F9DDE90001082200F07AF90122310349
:102A60003D4E02FA0BFB88594FEA09394BEA000048
:102A7000885159F8061002FA0AFA4AEA010149F89F
:102A800006105021A963A96B94F9240041F4D06188
:102A9000A963022169634FF440712963A169002889
:102AA0006962E169A9624FF07001E96216DB0023F7
:102AB00094F92510294C41EAC005C4F804510403D7
:102AC000A5598A402A43A251C9B21A46C0B200F0A1
:102AD0003FF9234A136B43F4004313632C2303FB96
:102AE000087393F92640002C1ADB93F82790E5B27F
:102AF00001224946284693F927A000F033F9012323
:102B00002403A25903FA0AF31343A35108224946A6
:102B1000284600F01DF9124A136B43F480431363F7
:102B20002C2000FB0877FA68136B43F00103136352
:102B3000012297F82830590903F01F0302FA03F322
:102B4000084A42F8213003B0BDE8F08FB08220007F
:102B50005D29200000200D4020940D4000400D40D4
:102B600000D0004000E100E001289CBF014B43F889
:102B70002010704770010020012808D82C22044B37
:102B800002FB0030C3689A699206FCD41960704752
:102B9000B08220000022014B1A60704700500D40A7
:102BA0000822014B1A60704700500D40A022024BD2
:102BB0001A6050221A60704700500D40014A024BC3
:102BC0009A6070470020200000ED00E0024B58683A
:102BD000C0F38150704700BF00200D4008B5FFF7DB
:102BE000F5FF024B53F8200008BD00BF088320000A
:102BF00010B5194C0122D4F82034062123F04003EB
:102C0000C4F82034D4F80034032023F04003C4F87F
:102C1000003400F09DF8D4F82034012223F0800322
:102C2000C4F82034D4F80034072123F08003C4F81A
:102C30000034032000F08CF8084A094B1A60094A56
:102C400059681142FCD15A685201FCD4044A5368B5
:102C50005B01FCD510BD00BF00C00D4001010200AA
:102C600000200D4000000101034B04485B6803F0A5
:102C700007031841704700BF00200D400048E801DD
:102C8000034B04485B68C3F302231841704700BF3D
:102C900000200D400048E801024B02EBC10243F85E
:102CA0002200704778010020F8B507460D46002441
:102CB000084E06EB411647FA04F3DB07E1B204D5F0
:102CC00056F824300BB1284698470134082CF2D12D
:102CD000F8BD00BF780100202DE9F8430546DFF874
:102CE000388000F0F5FD0D4B2E03F75856F80840DC
:102CF0004FEAC50924FA09F447EA04002946C0B29C
:102D0000FFF7D2FFE4B2064BFFB204FA09F4F75022
:102D100046F80840BDE8F88318970D4018940D4018
:102D20001C940D4080220021014804F0CFBB00BF5D
:102D300078010020034B044A1A60044B803A1A6061
:102D4000704700BFF801002080400D40FC010020CA
:102D5000034B01EBC0011B6843F82120704700BF03
:102D6000F8010020034B01EBC0011B6843F8212050
:102D7000704700BFFC010020024A136843F0300393
:102D80001360704700700D400E2870B506460DD1D7
:102D9000134B5C6B44F0020058631248D0F8F456B1
:102DA00025F03F0343F00103C0F8F4360E48836872
:102DB00023F0FF031A4311433143816003681B066C
:102DC000FCD5C368006903F0FC0343EA00230E2E20
:102DD00018B201BF034BC3F8F456014B5C6370BDDE
:102DE000000001440080084000700D40034BD3F800
:102DF0000007B0FA80F04009704700BF00B00840FB
:102E00004FF40042064B10B5064CC3F89021C3F8AE
:102E10009020206818B101F075FC0023236010BDDC
:102E200000E100E000020020064B9A6C42F0020232
:102E30009A64DA6C42F00202DA641A6D42F002021D
:102E40001A65704700200D4007B50C4800F0AAFD38
:102E5000FFF7EAFF0A4B5A6D42F002025A65002260
:102E60000192019A0F2A06DD5A6D22F002025A657C
:102E700003B05DF804FB019A0132F1E7ED2D20006B
:102E800000200D40064B9A6C22F002029A64DA6C24
:102E900022F00202DA641A6D22F002021A6570470B
:102EA00000200D400D4BD3F84C269107FBD4D3F8EE
:102EB0004C2652065EBFED22C3F83828C3F83828E6
:102EC000D3F82C2612B1EF22C3F83828044A012087
:102ED000137803F07F031370704700BF0080084031
:102EE000F2150020044BD3F84C0600F02200A0F1AC
:102EF000200358425841704700800840024BD3F8E5
:102F00004C0600F04000704700800840054BD3F8A5
:102F1000002620B142F00102C3F80026704722F0DB
:102F20000102F9E700800840284B1870002841D0C2
:102F3000274A53681B03FCD5264BD3F8042842F0DC
:102F40000202C3F80428D3F8042842F00102C3F8AF
:102F50000428D3F804285007FBD5D3F8042822F01E
:102F60000102C3F804281B4BD3F804285107FBD4F3
:102F7000D3F8042842F00202C3F80428D3F8042846
:102F800042F00102C3F80428D3F804285207FBD505
:102F9000D3F88C2622F00402C3F88C26D3F8342808
:102FA00022F00402C3F834284FF400520A4BC3F84D
:102FB00090207047074AD2F88C3643F00403C2F8D9
:102FC0008C364FF40052044B1A617047F115002003
:102FD00000200D400080084000E100E0094B93F91B
:102FE0000020002A0CDBED21074AC2F83818C2F88D
:102FF0003818E321C2F838181A7862F07F021A7084
:1030000001207047F21500200080084070B5A0F143
:103010000B05EBB20F2B044614D80C4ED6F84836ED
:1030200013F03F0302D0FFF73DFF012305EB8505B9
:103030000B35C6F83C560BB1FFF7D0FF044B60B21E
:103040001C7070BD4FF0FF30FBE700BF00800840F0
:103050002A01002038B50C46002900F09180102884
:1030600000F29080DFE800F009111D252B434C6031
:10307000667D818E8E86885D8A00434BD3F82C3620
:10308000003B18BF012323602BE005223E4BD3F801
:103090003C3603F07F030B3B93FBF2F30B33DBB2C5
:1030A000F1E7394AD2F8CC15D2F8C83543EA012302
:1030B000E9E7354AD2F8D415D2F8D035F6E700233F
:1030C000314A0B60D2F8003603F001030B60D2F8EE
:1030D0002426900644BF43F002030B602B4B1B7861
:1030E0000BB900200BE00B6843F00403CBE7002092
:1030F000274B08601B78002BF3D001230B6038BDF1
:10310000214B2449D3F840260023D2B201EBC3005F
:103110000079904202D851F83330B4E701330E2BD6
:10312000F4D16FF01703AEE7174BD3F858365BB204
:10313000493BA8E7144DD5F8483699060FD1FFF75B
:103140004DFF0123D5F86426D207FBD5D5F860568C
:10315000493D6DB20BB1FFF7A5FE2560C1E7002325
:10316000F0E70D4B93F900308DE70C4B1B7803F023
:103170007F0388E70B2386E71A2384E7072382E788
:103180000220BCE70120BAE700800840F1150020CA
:103190002B01002050832000F3150020F0150020A3
:1031A00010B50B4CD4F8483699060FD1FFF716FF2F
:1031B0000123D4F86426D207FBD5D4F84C46C4F3D7
:1031C00000140BB1FFF76EFE204610BD0023F0E7A0
:1031D0000080084010B50C46072865D8DFE800F0ED
:1031E000040F1A232C444A5E012903D1FFF7F6FE8F
:1031F00000203EE0002959D1FFF754FEF8E7A1F185
:103200000B030F2B52D8C8B2FFF700FF0130EFD1EC
:1032100003202EE0264BCAB2C1F30724C3F8C82509
:10322000C3F8CC45E4E7224BCAB2C1F30724C3F884
:10323000D025C3F8D445DBE731F0070336D101F0E0
:103240000100FFF763FE1A4B11F0020FD3F824269A
:10325000C1F3800014BF42F0200222F02002C3F824
:103260002426FFF761FEC3E731F001001ED1114BA8
:10327000197010BD01F118031F2B17D80D230E4A2A
:1032800052F833108C4206DC02EBC3031A79084B68
:10329000C3F84026ACE7013BF2D2A9E7044BCCB21D
:1032A0004934C3F85846A3E70120E2E70220E0E7EB
:1032B000008008402B0100205083200070B5054697
:1032C0000C46144ED6F84C369B07FBD4124B93F9A0
:1032D0000030002B01DBFFF781FEEE23691EC6F8EC
:1032E0003838C6F83838A31CC6F8283821440220DC
:1032F00000F080FA0949013C41EA0411022000F083
:103300008BFA022000F092FA022000F0A7FA0020C7
:1033100070BD00BF00800840F215002002C001C04F
:1033200070B5264B93F90030002B19DBFFF7CCFA70
:103330000446FFF753FEC4F1FF2404F57F04F6347E
:10334000FFF7C2FAC442FBD401261D4B1B784BB9D0
:103350001C4CD4F84C36990609D50224204670BD81
:103360000026F2E7FFF71CFF0028F1D1F5E7E9237B
:103370000425C4F83838D4F84C369A0703D4013DF4
:1033800015F0FF050AD1D4F84C369B070AD50D4B32
:10339000D3F84C4614F00204FAD109E00620FFF7F6
:1033A00081FAE8E7EE23C4F83838C4F83838012445
:1033B000002ED3D0FFF776FDD0E700BFF215002036
:1033C0002B010020008008400B280DD1082A0DD1C8
:1033D00061B1074B074A083111F8010D43F8040B9E
:1033E0009342F9D1002070470120704702207047B6
:1033F000A8850840C885084070B5384A0546D2F807
:103400004C0610F0400009D0D2F82808040606D572
:10341000ED23C2F83838C2F83838002070BDC0B289
:103420000428F5D902388842F2DCC4B2032C24D136
:10343000D2F828382B70D2F828386B70D2F8283898
:10344000AB70264D264BD5F82818264E493949B27F
:103450001970D5F828381806337026D589B204209B
:1034600001F0DAFD3178032001F07F0101F0D4FD95
:103470001D4B1B78FBB12046D0E7291903200139E9
:1034800000F0C0F91949631E032041EA031100F05E
:10349000C3F9032000F0CAF9032000F0DFF903208C
:1034A00000F0E8F90028FAD1CBE7ED23C5F8383869
:1034B000C5F83838B1E7D5F84C365A06DBD5D5F81B
:1034C0004C361B0603D50A4801F01CF9D3E7ED235F
:1034D000C5F83838C5F83838CDE700BF0080084057
:1034E000F3150020F0150020F115002002C0010C9A
:1034F000500000202DE9F041294F3E7816F00106DA
:103500004CD10125274B284CC3F8A850C3F8AC5028
:10351000C3F8B050F823C4F858360923C4F8E83784
:1035200015230B22C4F8C836204B4FF07F085A6091
:103530004023C4F82436D4F8243643F02003C4F8DA
:103540002436D523C4F80866C4F85086C4F840363B
:10355000174B1878FFF75AFD4FF48042154B0220A5
:10356000C4F894861A6100F06DF91349022000F046
:1035700049F9032000F066F90F49032000F03AF9F9
:103580000E4B1878FFF7D0FC0D48314601F0A2F839
:1035900028463B782B433B70BDE8F0810020FBE7D9
:1035A000F215002000200D400080084000600D4012
:1035B0002A01002000E100E028880840F1150020E1
:1035C0005000002038B50388044653B340F203424C
:1035D000934233D11B4B1A7842BB822924D11B78EA
:1035E00073B901F0CBFC01F05DFC8021FFF704FF13
:1035F000002805DD80B201F015FC134B1B699847CC
:10360000124B1A7852060CD500221A70104BD3F8C0
:103610004856FFF747FCFFF76DFFAB0601D0FFF7F9
:10362000DDFC40F20343238001200AE01A78002ADF
:10363000FAD0064A12785006F6D5CEE7002303806A
:10364000032038BDF115002038842000F215002039
:10365000008008400B282DE9F8430D460FD1082AB9
:103660007CD100297AD03E4B3E4A4D1E53F80419B6
:10367000934205F8011FF9D10020BDE8F8830C281A
:103680006AD1042A6AD1002968D0374BD3F81028B0
:1036900022F00702C3F81028D3F8042842F00802E9
:1036A000C3F80428D3F81428D3F81818D3F810084E
:1036B000D2B220F07000C3F81008D3F82448D3F831
:1036C0002008090242EA006289B224040A4304F491
:1036D0007F04D3F81C7842EA0408D3F81028FFB21C
:1036E00022F0070242F00102C3F81028D3F80428A0
:1036F00042F00802C3F80428D3F81448D3F8182875
:10370000D3F81018E4B221F0700141F01001C3F8B1
:103710001018D3F82418D3F82008120292B244EA01
:1037200000640904144301F47F010C43D3F81C180E
:103730005FFA81F9FFF7C8F8B8EB040467EB0907F3
:10374000FF0306460023094AE00347EA544103F019
:103750008FFC361A2E608FE701208EE702208CE75F
:10376000C4850840A4850840008008400048E8015E
:1037700008B5054B1B7813B9044800F0C3FF0022BD
:10378000034BC3F8342808BDF11500205000002079
:1037900000800840074A0848D2F82C38042B1FBF85
:1037A00006490B7843F040030B700023C2F82C3815
:1037B00000F0A8BF0080084050000020F215002053
:1037C00010B5094C40220021204603F07FFE012263
:1037D000064B5A604FF480429C60054B5A604FF490
:1037E00000425A6010BD00BF0000002000F00F40F2
:1037F00000E100E003289EBF014B00011950704713
:103800000000002003289EBF024B03EB0010416024
:10381000704700BF0000002003289EBF024B03EB4F
:1038200000108160704700BF00000020032806D808
:103830000123034A03FA00F0916A0843906270473B
:1038400000F00F40032806D80123034A03FA00F0D2
:10385000116A08431062704700F00F40032806D831
:103860000123034A03FA00F051690843506170478D
:1038700000F00F4003289FBF044B03EB001080684B
:1038800000F0070088BF0020704700BF0000002044
:103890004FF0FF32014BC3F80425704700F00F4092
:1038A0000122014BDA64704700F00F40074B5A6861
:1038B000D102FCD41A6822F480321A605A68D2030A
:1038C000FCD41A6842F400321A60704700200D40A0
:1038D00010B5084CA36D99070BD063685A01FCD44E
:1038E00063685B01FCD503F0B3FFFFF7DFFF002344
:1038F000A36510BD00200D4070B5264BD3F8484697
:1039000014F03F0414D1244D55F8043B23B19847DB
:1039100070B10134052CF7D1204E337843B1FEF756
:10392000CDFF0446FEF7D0FF201A092800D90CB9B4
:1039300030BF26E01A4B1A6822F400321A605A6827
:10394000D202FCD41A68164D42F480321A606B68B9
:10395000DB03FCD5FEF7B8FF241A092C03D8BDE819
:103960007040FFF7A3BF632C0CD93378022B09D129
:10397000AB6500F07DFE38B1FFF798FF0022084BE1
:103980009A6570BD0123F3E7FEF798FF0028F3D096
:10399000CEE700BF0080084004020020F41500209C
:1039A00000200D40074A10B50023144652F8041BAE
:1039B000814202D011B944F8230010BD0133052B18
:1039C000F4D1FAE7040200200022054B05499A656C
:1039D0000B6943F004030B61034B1A70704700BF7F
:1039E00000200D4000ED00E0F41500204FF480327F
:1039F000064B10B5064CC3F89021C3F89020206800
:103A000018B100F07FFE0023236010BD00E100E04C
:103A1000180200204FF4201270B592F82B40431E7C
:103A200054B101F52011154A273191421AD011F8ED
:103A3000010903F8010FF8E792F82A40122CF0D19F
:103A400092F829204B2AECD14C0804F520120B4D9A
:103A50002732AA4207D1002301F520112044273143
:103A6000A34205DB70BD12F8016903F8016FF0E7AE
:103A7000CA1A1278013300F8012BF1E72700280059
:103A80000FB407B504AA52F8041B0448019200F0D1
:103A900039F803B05DF804EB04B070476000002013
:103AA0000EB43FB5094B07AA52F8041B01900493CA
:103AB00004A801AB0392059300F024F80022019BB7
:103AC0001A7006B05DF804EB03B0704775792000FA
:103AD00070B505460C460A4E102C07D874B1224624
:103AE0002B6868680649BDE87040184710223146C7
:103AF0002B686868984710B9103CEDE7204670BD08
:103B00005A8620002DE9F04F8046154600278DB0DB
:103B10000491049B1B78002B00F07983049B1A7896
:103B20001C460133002A00F06183252AF7D1049B4B
:103B30009C4205D05DE323783744002B00F0678377
:103B40006278631C002A00F062830024184610F893
:103B5000012B19462B2A15D009D8202A15D0232A43
:103B600016D0A2F13106082E40D8002219E02D2AE5
:103B700004D0302AF5D144F0100401E044F00104EF
:103B80000346E3E744F00604FAE744F00204F7E7EB
:103B900044F00804F4E70A21019A01FB0299A9F113
:103BA0003002194613F8019B0192A9F13002092A4B
:103BB000F1D90B782E2B36D14A784B1CA2F130006C
:103BC000092828D84FF0000B1A781946A2F13000C6
:103BD000092803F1010318D90B786C2B6BD14B78B2
:103BE0006C2B23D144F08004023122E02A2A09D12F
:103BF0002B680146002B019305F10405B8BF44F082
:103C00000104D6E700230193D3E70A2101FB0B2B24
:103C1000ABF1300BD8E72A2A04D1D5F800B0023135
:103C20000435D9E719464FF0FF3BD5E7013144F0A1
:103C300060040B78782B0CD8572B48D8472B08D822
:103C4000402B00F28D80002B00F0E182252B00F04C
:103C5000D0804B1C049304F4E063B3F5A06F00F034
:103C6000A28200F2C980B3F5407F00F06882B3F50C
:103C7000806F00F02F82B3F5807F7FF44AAFBBF1F5
:103C8000000FACBF24F010044FF0010B14F40059E6
:103C900004F0E00300F07A81402B00F0728100F222
:103CA000C280002B00F07081202B00F0CB8000261A
:103CB000B2460023D3E0682BBBD14B78682B02D1EE
:103CC00044F0200490E7013144F04004B1E7583B50
:103CD000202BBED801A252F823F000BFA53D200042
:103CE000533C2000533C2000533C2000533C200018
:103CF000533C2000533C2000533C2000533C200008
:103D0000CF3D2000533C2000DB3D20008D3D2000B6
:103D1000B73D2000AB3D2000C33D2000533C2000B8
:103D20008D3D2000533C2000533C2000533C20009C
:103D3000533C2000ED3D2000993D2000E73D200050
:103D4000533C2000533C2000E13D2000533C200028
:103D5000933D2000533C2000533C20009F3D200019
:103D6000413B062B3FF675AF01A252F823F000BF8E
:103D7000D53D2000533C2000533C2000533C200004
:103D8000BD3D2000B13D2000C93D200044F4245435
:103D90005FE744F410645CE744F4885459E744F462
:103DA000C85456E744F4B24453E744F4007450E76F
:103DB00044F484444DE744F402444AE744F4424462
:103DC00047E744F4813444E744F4A13441E744F440
:103DD000C1343EE744F4E1343BE744F4A06438E7FF
:103DE00044F4806435E744F4407432E744F4E0641A
:103DF0002FE744F4C0642CE7B3F5C06F07D0B3F5E8
:103E0000E06F7FF486AE2B6804351F6081E60122E7
:103E1000D8F80030A649D8F804009847002840F0A8
:103E2000F481013775E6602B00F0AE80802B7FF4C3
:103E30003EAFEA1D22F007021546D2F804A055F85D
:103E4000086B04E095F9006004354FEAE67ABAF1B0
:103E5000000FBFF62EAF012376426AEB4A0A0293A7
:103E600004F4C053B3F5805F00F0E480B3F5C05FA5
:103E700000F0E680B3F5006F00F0C6800DF12E0370
:103E8000009300230393039B41F608029B4588BFE0
:103E9000ABEB030B41F2080304EA020198BF4FF0B9
:103EA000000B994204D1BBF1010F38BF4FF0010B59
:103EB000039B91425B4440F0DF8056EA0A0200F027
:103EC000DB807C497C4A14F4804F4FF0020614BF1B
:103ED0008A469246B9F1000F0DD0029A002A40F0AE
:103EE000CE8004F00602022A00F0CD80062A734A32
:103EF00004BF0126924606EB0309019B4B4594BF84
:103F00004FF00009A3EB090914F00103019304D158
:103F1000E20640F1BC80CB4499464EB13246514650
:103F2000D8F80030D8F804009847002840F06D8198
:103F30005C46039BDFF888A11F44102CD8E90030B1
:103F400000F2AD802CB122465D499847002840F030
:103F50005C81D8F80030039A0099D8F804003744FF
:103F60009847002840F05181019B5F44002B00F0EE
:103F7000E08049464046FFF7ABFD002800F0D980BD
:103F800043E1B5F900605FE72E685DE7402B1BD089
:103F900007D8DBB1202B11D04E46CA46CDF8089089
:103FA0005EE7602B12D0802BF6D1EA1D22F00702CB
:103FB0001546D2F804A055F8086B02E02E78CA46E0
:103FC0000435CDF808904BE72E88F8E72E68F6E721
:103FD000039805990A22002303F04AF8009B303227
:103FE00003F8012D0398059900930A22002303F09A
:103FF0003FF803900591039B059A1343E8D1009A7B
:104000000DF12E039B1A3DE70DF12E030396CDF81B
:1040100014A00093EFE7009803F00701303100F897
:10402000011DDB0843EA42730090D20853EA020103
:10403000F1D1E4E70DF12E01334652460091F5E748
:10404000204B14F4804F2049524608BF194633468E
:104050000DF12E00009053EA0200D0D003F00F00C3
:10406000DDF800C0085C1B090CF8010D43EA02737F
:10407000CDF800C01209EEE70026B2462AE7012675
:10408000DFF848A037E70126DFF844A033E74946C8
:104090004046FFF71DFD00283FF43FAFB5E010227A
:1040A00051469847002840F0B080103C45E700BFDB
:1040B00058862000498620004C8620004F8620002C
:1040C0006A8620003886200027862000468B200044
:1040D000178520002E6804356EB333469A469AF849
:1040E00000200133002AF9D1AAEB060ABBF1000F28
:1040F00002DBDA4528BFDA46019B534594BF4FF0F7
:104100000009A3EB0A0914F0010405D14946404611
:10411000FFF7DEFC002878D152463146D8F800304F
:10412000D8F80400984700286FD15744002C7FF43A
:1041300020AF4F44EDE44FF0060A374ED6E7374B39
:1041400014F4804F364808BF18460DF12B030022A7
:104150009A462968043551EA02061AD1BAEB030AD5
:1041600004BF302203F8012C4FF0780208BF03F19E
:10417000FF3303F8012C4FF0300208BF4FF0010A63
:1041800003F8022C2322DE1E03F8032C0AF1030A93
:10419000B2E701F00F06865D090941EA027103F8F2
:1041A000016D1209D7E7DDF804902B68B9F1010F12
:1041B00038BF4FF0010914F0010405F104058DF832
:1041C000183009F1FF3605D131464046FFF780FC33
:1041D000D8B937440122D8F80030D8F8040006A92D
:1041E000984790B9002CA4D03146C3E6049B9C426A
:1041F0000DD0049B0499E61A3246D8F80030D8F85E
:104200000400984700283FF496AC4FF0FF3738463B
:104210000DB0BDE8F08F00BF518620003886200029
:1042200027862000F8B5038805461646CBB14A2BF1
:104230002BD188291FD1174803F005FC0446C4B1CF
:10424000231D9E421FD12146124803F006FC124E48
:10425000636937683360A3690BB1E06998473760D9
:1042600007E00C4803F0EFFB044634B901220B4B86
:104270001A704A232B8001200AE0A168201D03F058
:104280008FFB2468F1E72468D9E70023038003202B
:10429000F8BD00BF1C020020A8030020F515002077
:1042A00010B50024054B06481C7003F0C9FB2146DD
:1042B000BDE81040034800F00DBA00BFF51500201E
:1042C0001C0200206800002070B50446E3610B4B1F
:1042D000049D1B78C4E905526BB1094D094B2E684A
:1042E000201D2B6003F05CFB2E602146BDE8704072
:1042F000054803F0C5BBA160F7E700BFF515002036
:10430000A8030020680000201C02002013B5034C05
:1043100024680094FFF7D8FF02B010BDA803002066
:1043200010B5084B04461B7843B1043000F0B0F8D8
:104330002146BDE81040044803F08FBBC0E90333B9
:10434000F6E700BFF51500201C02002010B50D4C4B
:10435000236813B90C4A136010BDFEF799FA22685E
:10436000D2E900310B441B1A92681AB91844064B63
:104370001860F1E7D2E900142144091A8B4228BFE2
:104380000B46F1E72402002020020020014800F043
:10439000B9B900BF780000202DE9F0410388054637
:1043A00053B1592B46D1872921D1002023490B68CD
:1043B00063B918B10B6001E0204A13605923012052
:1043C0002B80BDE8F08101203346F1E7D3E9026498
:1043D0009442F8D000B10B6019460B468968002959
:1043E000ECD0C8689042F8D189689960F4E78229D6
:1043F000E4D14FF00008114F00263C68002CDDD0BE
:10440000204603F0E5FA90B122468821E06800F0EA
:1044100039F950B9A368E0602EB1B360C4F80880E0
:10442000FFF794FFE8E73B60F8E7FFF7AFFF2646AA
:10443000A468E3E7002303800320C2E724020020EE
:1044400010B50446FFF7A2FFE3680B4A0BB11368EF
:1044500033B90A4B1B68E36013681460A36004E07F
:10446000A34206D1054A1268DA60BDE81040FFF7A2
:104470006DBF9B68ECE700BF24020020A80300206A
:10448000024B1868003818BF012070472402002032
:1044900010B50B4A04461368834208D18368136041
:1044A000FFF754FF0023C4E9023310BD1346002B6D
:1044B000F8D09A68A242F9D1A2689A60F0E700BFEA
:1044C0002402002038B5836804460D469BB10A4893
:1044D00004600220A07304F10C0098470238012800
:1044E00001D9832D05D121462046BDE8384000F092
:1044F00005B80123A37338BDA80300202DE9F843B4
:104500001C4F04463D6888462B46A34204D00BB995
:10451000BDE8F8831B68F8E7002CF9D0164EA37BA2
:10452000D6F8009063B10023A3738DB9A3683BB1A3
:10453000444505D02A468321346004F10C00984795
:104540003B68A3420ED123683B60C6F80090DFE7CA
:10455000A54204D022468721284603F02AFA2D6876
:10456000E3E71346002BF0D01A68A242F9D1226883
:104570001A60EAE7AC030020A8030020002238B547
:104580000125084B1A70084B1C6804B938BDE37B41
:104590002BB1002282212046E581FFF793FF24689A
:1045A000F3E700BFF9150020AC030020024B187898
:1045B000421C1A70704700BFF71500208A22064B74
:1045C0001A700023054A1370054A1370054A1360D8
:1045D000054A1360704700BFF7150020F61500204C
:1045E000F8150020AC030020A80300202DE9F041BD
:1045F0001A4E33780BB1FFF7C1FF194D2C7894B1E7
:104600000C221849184F0B78013C5A430133B81853
:1046100003F01F03BF5C0B702C70D0E9018090B9D0
:10462000124B1C6824B9337828781844BDE8F0810F
:1046300033780BB1FFF7A2FF20464246394603F01C
:10464000B8F92468EEE7812F08BF012342463946B6
:1046500008BF837303F0ADF9E5E700BFF91500204B
:10466000F8150020F615002028020020AC030020D9
:10467000024A034B10781B7818447047F815002045
:10468000F9150020F0B50B4D2C78202C0FD00C26FE
:10469000094B0A4F1B78234403F01F037343FE1892
:1046A000C6E9012000200134F9542C70F0BD01202E
:1046B000FCE700BFF8150020F615002028020020B6
:1046C00038B5034C256803F074F9256038BD00BF88
:1046D000A803002010B40A4609490C682346834207
:1046E0000CD04BB950B104600860012110BC81733B
:1046F00083818121FFF7E4BF1B68F0E710BC70479E
:10470000AC03002038B1837B013B012B9FBF012309
:10471000014AC37313707047F9150020024608461A
:1047200010B5064953600C68029B106093600A60E4
:104730000CB9FEF7D7F8002010BD00BFB003002071
:1047400010B5084C206858B100232360D0E901312E
:104750009847236823B1BDE810401868FEF7C2B837
:1047600010BD00BFB003002070B505880446672D5A
:1047700009D0792D2FD0002D33D1FFF717FF1B4B18
:1047800018701B4B1D601B4E194D08E00A282B6842
:104790000ED07E2B03DC5A1C2A60174AD0543046B8
:1047A00003F03EF9431CF1D16723238001201BE075
:1047B0005A1C2A600025104A2846D5540B4B1978FC
:1047C000FFF760FF0D4B2A4685211868FFF75AFF57
:1047D00018B97923E9E78529E8D10022044B1A604A
:1047E000D1E700230380032070BD00BFFB1600202B
:1047F000B4030020B8030020FA150020A80300200D
:104800000D28014610B516D00C4C237853B90C482E
:1048100003F0F3F808B9012323700A48FFF772FF89
:10482000012010BD0A28F8D1054803F0E6F8002859
:10483000F3D00023F0E70020F3E700BF7A16002052
:10484000B80300208800002008B5054905488022EB
:1048500003F0CCF8BDE8084000210348FFF73ABF59
:104860007B160020B8030020880000202DE9F041CD
:1048700005880446772D20D07E2D3DD0002D4ED1C9
:10488000FFF794FE284E294B294FDFF8A8801870B7
:104890003560336857F823202AB9274A13707723E5
:1048A000238001203EE008F8035093680021802017
:1048B0009847336801333360EBE700231F4A1360E6
:1048C000194A1360184B1C4A1B6812789A4204DC80
:1048D0001A4B1B68002BF0D1E1E7164AD256002A8A
:1048E00019DA134A002052F82320104B1978FFF7E9
:1048F000C9FE28B97E23D3E70C4B1B788B42D0D15D
:10490000094B0C491A688B5C03F07F038B540B4AEC
:10491000136801331360044A13680133D1E700239D
:1049200003800320BDE8F081C4030020FD160020B1
:1049300040000020EB150020FC160020C0030020E2
:1049400010B40A4B0A4A197800238B4203DA52F852
:10495000044BA04208D107490748CA5C62F07F02B5
:10496000CA5410BCFFF7CEBE0133EEE7FC160020A0
:1049700040000020EB15002098000020054B1A682D
:1049800042F004021A6058699B6940EA032080B231
:10499000704700BF00700D40184A136823F00C03E5
:1049A00013600122164BC3F8A820D3F8A820012ACF
:1049B000FBD10822134BC3F82426E322C3F838287E
:1049C000D3F86426D207FBD50E4810220023D0F876
:1049D0009C16013A01F0010143EA01034FEA430347
:1049E0009BB2F4D1002BF0D0044A190A03F0FE0365
:1049F00051615361EF23C0F83838704700700D40A3
:104A000000200D40008008400088064B40BA80B26C
:104A10008840995CC2F1080201EA20201041C0B22E
:104A2000704700BFAB862000F8B506460A480D4621
:104A3000174603F008F8044630B93A46294630468E
:104A4000BDE8F84003F0FAB9A3680BB128469847CF
:104A5000204603F030F8EEE7C803002038B500F038
:104A6000CFF80546094802F0EEFF044628B95DB1CB
:104A70002846BDE8384003F0DCB9636803B19847C5
:104A8000204603F018F8F0E738BD00BFC803002047
:104A900010B5044600F0C2F838B100F0DFF9034B5E
:104AA000034821469B689847012010BD648420007C
:104AB000294A200070B50B4C0023616E0A4A04F1AC
:104AC0003800FFF723FCFFF759FF656E0023B0FBAA
:104AD000F5F1064A01FB150104F11800BDE870402C
:104AE000FFF714BCCC030020F14A2000094B200042
:104AF000044B5A6E196E5200914294BF59665A6621
:104B0000FFF7D8BFCC03002010B500F037FA00F053
:104B1000C9F900230380044600F04EF82288930070
:104B200008B1017B51B9023398B200F07BF92388B8
:104B300073B1BDE81040074800F0CCB88188234429
:104B40005980C18801329980228002F0B4FFE5E7E4
:104B500010BD00BFCC0300209DF80030012B04D114
:104B6000024B9A6D5A66FFF7A5BF7047CC03002031
:104B7000F8B50F4616461D46064C0146064A204625
:104B800000F096F8C4E9167625660448BDE8F840BA
:104B900000F00CB8CC030020F8832000594B200013
:104BA000014802F04DBF00BF38040020014B1860DF
:104BB000704700BF3C040020014802F044BF00BF22
:104BC000380400202DE9F04105460C480C461646F5
:104BD00002F039FF08B9BDE8F0818388A34209D10A
:104BE0008768002FF7D0334622462946BC46BDE8E9
:104BF000F041604702F05FFFECE700BF380400209F
:104C0000054B10B51B689847044618B181880120F0
:104C100000F002FA204610BDE083200038B5064BB4
:104C200005465B6898470446A988012000F0F4F91E
:104C3000201E18BF012038BDE0832000014B9B6877
:104C4000184700BFE0832000014802F0F9BE00BF12
:104C50004004002081800146014802F011BF00BFDE
:104C6000400400200146014802F0F7BE4004002045
:104C700010B50446054802F0E6FE00B910BD838871
:104C8000A342FBD002F017FFF7E700BF400400206B
:104C900070B505460C461646FFF7DCFF20462E6130
:104CA0000249BDE8704003F0B4B800BFB9862000E7
:104CB00070B505460C461646044AFFF7E9FF204644
:104CC0006E610349BDE8704003F0A3B80084200082
:104CD000BB86200010B5044604491A2000F0AAF94A
:104CE0002046BDE8104003F0A2B800BFD40D00205C
:104CF00070B504461B200D4600F0A8F9064903F0E4
:104D000003F938B1A3691B6823B129462046BDE8E1
:104D10007040184770BD00BFD40D002070B5054627
:104D20000C461646044AFFF7C3FF2046AE6103490E
:104D3000BDE8704003F06DB808842000BF862000F5
:104D400008B5044802F0BAFEBDE80840024802F087
:104D5000B5BE00BFB4000020A800002038B50E4842
:104D600002F0BCFE054650B10C4802F0B7FE044606
:104D7000286030B92946084802F0C4FE2546284676
:104D800038BD00F097F804F1B601A4F8800004F1F2
:104D9000820000F019F9F2E7A8000020B40000201A
:104DA00010B501460446074802F0C2FE48B121682A
:104DB000054802F0A7FE2146BDE81040014802F078
:104DC000A1BE10BDA8000020B400002010B501460F
:104DD0000446094802F0ACFE68B12468B4F88010BB
:104DE000204600F0DBF804F1B60104F18200BDE8D2
:104DF000104000F0FDB810BDA800002010B5074914
:104E00000B88834208DB064C80B222880244181AC1
:104E100008800120228010BD0020FCE7940D0020B6
:104E2000960D0020014B1880704700BF940D0020A4
:104E30000048704764040020014B1888704700BF89
:104E4000940D0020034A044B10781B881844C0B20C
:104E5000704700BF0E170020960D00202DE9F0418D
:104E60000C4E338873B100240B4B0C4FB3F8008009
:104E70000B4B1D783D4421B2414504F1010403DB95
:104E800000233380BDE8F081FFF7DCFF3844435C4A
:104E90006B54F0E7960D0020940D00206404002070
:104EA0000E17002008B5FFF7CDFF014B184408BDD1
:104EB00064040020F8B50C4B04461E780B4B1F8889
:104EC000F519802D0DDC3246094902F089FAFFF709
:104ED000E9FF344401463A46204602F081FA28466A
:104EE000F8BD0025FBE700BF0E170020940D002041
:104EF0006404002008B5FFF7A5FF024B1B88184487
:104F000080B208BD940D002010B50146FFF7F2FFF6
:104F10004318802B12DC431E094A1BB21A44481C5A
:104F2000002B05DA074B187801440120197010BDD9
:104F300012F80149013B14541BB2F1E70020F6E7D7
:104F4000640400200E17002070B5342200210848A8
:104F500002F0BCFA0024074D074E284631460134C2
:104F600002F0CFFF042C05F10205F6D170BD00BFA1
:104F7000A00D0020980D0020A88420000023044AE2
:104F80001380044A1380044A1370FFF7DDBF00BF8B
:104F9000960D0020940D00200E17002038B50C4609
:104FA0000546FFF7EBFF802C28BF802429462246C8
:104FB000034802F015FA034B20461C8038BD00BFA1
:104FC00064040020940D002010B5074B03F1340257
:104FD00053F8044B934240F8044BF9D1034A136849
:104FE0000B6053684B6010BDA00D0020980D002091
:104FF00010B5074B00F1340250F8044B904243F8CF
:10500000044BF9D10B68034A13604B68536010BD21
:10501000A00D0020980D0020024B23F81010012055
:10502000704700BFA00D0020014B33F810007047FF
:10503000A00D002008B5044B1A3803EB400002F025
:1050400060FF012008BD00BF980D0020024B1A38F8
:1050500003EB4000704700BF980D00200149024853
:1050600002F052BFA88420009A0D0020084B10B512
:105070001B689847074B5B689847074B5B689847E6
:10508000064B5B689847BDE81040054B5B681847C6
:1050900018832000388420006484200010842000BD
:1050A000EC832000F8B5FDF7F3FB114D0746002413
:1050B0002E461A20FFF7CAFF294602F025FF80B1CD
:1050C0000A20FFF7B1FF0C2303FB0464237A834219
:1050D0000CD16068381AB0F5206F8CBF0020012019
:1050E000F8BD0134102C05F10C05E2D10020F7E7E2
:1050F000E404002070B5194D00242E461A20FFF755
:10510000A5FF294602F000FF013418B9102C05F163
:105110000C05F3D10C23621E03FB0464A4F10C05FF
:105120007AB90A20FFF780FF3072FDF7B1FB70609B
:105130001A20FFF78BFFBDE870400146074802F0D8
:10514000E0BE2B4654F8180C54F8141C013A03C363
:1051500054F8100C2C461860E0E700BFE40400206F
:10516000014BDB68184700BF64842000014B5B697A
:10517000184700BF38842000014B9B69184700BFC7
:1051800038842000024BD86900B10047704700BF47
:105190003884200070B590F829400F4B042C21462C
:1051A00028BF04210124DB698C400546984701286B
:1051B00038BF0120013C444305D0FFF7DFFBB0FBC3
:1051C000F4F303FB14042B46214605F10800034ABF
:1051D000BDE87040FFF79AB8388420005153200092
:1051E0002DE9F04106461B200F46FFF72FFF494BE4
:1051F00005461A78484C22B901221A70FFF7BEFB07
:10520000208023880BB90123238021880A204B1C8E
:105210002380FFF701FF414802F015FC04460028F7
:1052200047D13F4802F05AFC0446002868D029467E
:10523000201D02F066FE002304F12C00C4E90B30AF
:10524000238502F0FDFB2146344802F019FC206B57
:1052500002F02AFC072853DC324802F03FFC0546E6
:10526000002841D0304802F039FCA860C0B3FFF7F5
:1052700075FD686080B30920D5F80880FFF7D4FE7B
:1052800008BB082388F808300D20C8E90067FFF73D
:10529000CBFE01282946206B1BD102F0FEFB206BC0
:1052A00002F0D1FB854233D12046BDE8F041FFF743
:1052B00071BF2946201D02F027FE0028C7D12046D5
:1052C00002F0F9FBAAE70920FFF7AEFE88F8080014
:1052D000DAE702F0D5FBE2E7A968134802F012FC16
:1052E0002946104802F00EFC206B02F0DDFB38B9B5
:1052F00021460A4802F0B1FB2146094802F002FCAF
:1053000039463046BDE8F0410123042202F05CBF7B
:10531000BDE8F0810F170020D60D00200406002004
:10532000CC000020D8000020C000002008B50548AF
:1053300002F0C4FB044802F0C1FBBDE8084003488A
:1053400002F0BCBBD8000020C0000020CC00002030
:1053500013B5044668B1006B02F075FB024640B11C
:105360002146054B0548DB68019302B0BDE81040BB
:10537000184702B010BD00BF38842000FD53200044
:105380002DE9F0470D4614468B680646D3E90078B0
:10539000106B92F8289002F060FB6868FFF700FD40
:1053A000A968124802F0AEFB2946114802F0AAFB98
:1053B000206B02F048FB60B1002320462385FFF7F5
:1053C000E9FE4B46324641463846BDE8F04702F01A
:1053D000FBBE04F10800FEF7A3FF2146054802F0DA
:1053E0003CFB2146044802F08DFBEAE7C0000020A8
:1053F000D800002004060020CC0000202DE9F04158
:105400000E461746044620B1006B02F01CFB054611
:1054100008B9BDE8F0810A21686802F06CFD804699
:105420000A20FFF701FE804546D0284602F043FBE4
:10543000EDE794F8282000203A4484F828202946F3
:10544000224684F82900BDE8F041FFF799BF002308
:1054500084F8293094F82830DA19D2B284F8282058
:105460000B7A93421CD8224629460220EBE794F897
:105470002930DA19D2B2052A84F8292007D9002266
:1054800094F8283084F82920013384F8283094F8DF
:1054900028200B7A9A4203D3224629460120D2E7DC
:1054A0002046FFF777FE6868BDE8F04102F00FBDC7
:1054B000224629463046C6E7A9680029A9D0032E0E
:1054C000F6D801A353F826F0335420006F5420007F
:1054D0004F54200013542000014B1888704700BF20
:1054E000280100202DE9F041012906460F46144607
:1054F00086B003DC002006B0BDE8F08103A902F00D
:1055000043FE0B4603CB1B88206123839DF811309B
:105510006161002B45D0B51C02AA01A903A802F0C5
:10552000FBFC9DF81380B8F1000F4DD0029B2BB10E
:105530006A7815F8023B03EB02239BB2B8F1020F25
:10554000A38332D12046314902F0DBFC6B78237013
:1055500015F8023B63709DF81580B8F1000F4DD02F
:10556000019B002B37D06A7815F8023B03EB02232E
:10557000029A9BB2E38302B9A383B8F1020F2DD143
:10558000224904F1080002F0BCFC6B78237215F884
:10559000023B6372A81B3B1A8742C4E90E53A9DB86
:1055A000A9E7B378F51CA376B6E7B8F1030FD2D11B
:1055B00005F108021346611E13F8010D9D4201F822
:1055C000010FF9D11546C6E72046104902F099FCB3
:1055D000A4F81C80BFE7A38BE383CEE7B8F1030FE9
:1055E000D8D105F10802134604F1080113F8010DA2
:1055F000AB4201F8010BF9D11546CBE7034904F1A1
:10560000080002F07EFCA4F81E80C3E7A8842000F6
:1056100030B591B00546FFF75FFF4FF6FF73984234
:1056200004D14FF0FF34204611B030BD402200219C
:10563000684601F04BFF404B1A782AB901221A70D4
:10564000FFF79CF93D4B18701420FFF7EDFC8DF827
:1056500010001320FFF7E8FC8DF81200FFF7FEFCA6
:105660000446002848D000238DF813308DF81530FB
:10567000002301248DF814308DF818404DB10A2014
:10568000FFF7D2FC00283FD00A20FFF7CDFC8DF8B1
:105690001A0002248DF81940FFF71EFFADF81C0018
:1056A000FFF7DCFC00283CD04FF6FF738DF8174065
:1056B000ADF80030FFF710FFADF81E001A20FFF71D
:1056C000C5FC014602A802F01CFCFFF7EBFB0E90A4
:1056D000FFF7B2FB0F90684602F0C8FC0446002DAD
:1056E000A1D0FFF711FC00289BD0FFF7A1FB0146DA
:1056F000684602F003FD96E70B20FFF795FC8DF856
:1057000015408DF81300B3E70C4B1A7802B91C70E2
:1057100019780A204A1C1A708DF81A10FFF77CFCC1
:10572000B7E71B20FFF792FC0146684602F0E9FB51
:105730008DF81740BEE700BF221700202317002076
:1057400013B50024094B1C70094B1C80FDF7BCF8F5
:10575000012200F58051074B00940748FEF7DEFF59
:105760000122064B1A7002B010BD00BF291700209D
:10577000D80D00208D5B2000F406002024170020A7
:10578000074B82B01B784BB1064B1A7832B9012215
:105790001A70054B1B6A019302B0184702B070479C
:1057A000241700202917002018832000094B82B0FD
:1057B0001B786BB1084B1A7852B1084A127802F084
:1057C000FF012AB91970064B5B6A019302B01847B2
:1057D00002B0704724170020291700202517002049
:1057E0001883200008B5FFF7E1FF0022014B1A6083
:1057F00008BD00BF04070020044B1B7823B9044BED
:105800001B680BB9FFF7D2BF704700BF2B170020F2
:10581000040700200022094B82B01A70084BC2B264
:105820001A70084A084B28B101211B6A11700193B4
:1058300002B018475B6A1070F9E700BF2417002018
:1058400025170020291700201883200037B50B4B9F
:105850001A7802F0FF056AB901241C70084B1D700C
:10586000FDF732F8224600F58051064B06480095B8
:10587000FEF754FF012003B030BD00BF2417002005
:10588000251700208D5B2000F406002037B50B4B58
:1058900005461B780C4673B1FDF716F8231A022B48
:1058A0004FF0000348BF841C009301222146284684
:1058B000034BFEF733FF03B030BD00BF24170020B9
:1058C0008D5B200013B5224C23680BB9FFF76EFFE8
:1058D000FFF7B2FA032823D0FFF70CFB00B31D4BF0
:1058E0009B68984700281BDBFFF7A6FAC0B1FFF7BB
:1058F00001FBA8B11B20FFF7A9FB174902F004FB2D
:1059000050B11320FFF790FB206058B9FFF74EFF0E
:105910001248FEF705FD0DE0FFF7A0FB0028F0D1CF
:1059200002B010BDFFF72CFF002304210C4A0B48E6
:10593000FEF7ECFCFFF7B6FB0028F1D1FFF7DAFB2E
:10594000084BDB68019302B0BDE81040184700BF68
:105950000407002058842000D40D0020D006002029
:10596000E5572000108420002DE9F04F89B07049E0
:1059700003901A20FFF75EFBFFF770FB04460C2034
:10598000FFF752FBA8B1FFF7B5FA80464FF00109C7
:10599000684D6E68FFF74CFA4146B047664EAB69FA
:1059A00086F800900093984770B10023337001246B
:1059B000A1E001210B20FFF72FFB604B5B689847AC
:1059C0000028E0DA052496E0EB6901939847002867
:1059D000EBD15B4FFFF7EAFE3B7887F80090DBB234
:1059E0000293039B7BBB4FF006096FF0030A6FF035
:1059F0000F0BFCF769FF0490FFF7C2FE0498AAEBB7
:105A000000030493FCF760FF049BC342F9D46B6965
:105A1000984748B90090FFF7C9FE00983070FFF72B
:105A2000C5FE029B3B70C2E7FFF7C0FEFCF74CFFD0
:105A3000ABEB00030493FCF747FF049BC342F9D48C
:105A4000B9F10109D5D10CB9FFF79AFE0A20FFF789
:105A5000EBFAC3B20493FDF7A9F8FCF735FF8146D2
:105A6000DFF8E0B0ABEB000BDFF8DCA0AAEB090A33
:105A7000FCF72AFF1AEB000F49D5FDF797F8002C29
:105A80003DD0AB6840469847FCF71EFF6FF00C0313
:105A90001B1A0593FCF718FF059BC342F9D4002C91
:105AA000E6D1009B9847002835D0FCF70DFF6FF03A
:105AB0001408A8EB0008FCF707FF18EB000FFAD456
:105AC00003212B6907A8984703282DD19DF81E3084
:105AD000049A934228D100254FF00108FFF766FE93
:105AE000029B3B7000233370002D7FF460AFECB954
:105AF000984508BF0224204609B0BDE8F08F039BFB
:105B0000002BBED0FCF7E0FE1BEB000FB9D4002544
:105B10004FF00008E2E7019B98470028C5D16B6968
:105B200098470028A0D1C0E70125F1E72C46E2E71D
:105B3000D40D0020188320002B170020588420004B
:105B400024170020DEFDFFFFB0EFFFFF70B50D4B07
:105B500004461B780D4653B90B4B1B783BB9052205
:105B600029462046BDE87040012302F02DBBFFF717
:105B7000C1F90028F3D00020FFF7F6FE0328024603
:105B8000EED170BD241700202517002040F2E3124B
:105B90002DE9F3476E4E0446338893423AD0B3F56D
:105BA000F27F08D2002B00F0888040F2B1129342BD
:105BB0000BD0002391E040F202229342F9D100235E
:105BC000644A1370644A137007E0634A1378013320
:105BD000DBB2012B137000F28480604B1A78002A2C
:105BE00072D15F4A1268002A6ED11B780BB9FFF799
:105BF000C7FD5C4B5B699847002863D10122554B78
:105C00001A70FCF761FE584B584A18600023137055
:105C1000574A1370514BDFF85C811B7803F0FF0586
:105C2000002B7BD198F80030002B77D0FCF74CFE8E
:105C30006FF4CC724C4B1B68C01A104400286DDA0C
:105C4000DFF82091494FD9F81430984710B13D78CA
:105C50000135EDB23D70464DD9F818A02B780133CF
:105C60002B70D047002854D000233B702B78D9F8F4
:105C70001C700A2B04D9D04710B9B84700284BD064
:105C8000B84700284AD13C4B1B789BB12568FCF7EC
:105C90001BFE2B1A13F1120F4FF0000348BF811C9B
:105CA00000934FF001022046344B58BF05F1140118
:105CB000FEF734FD40F2E3130FE0FCF705FE304B36
:105CC00018607CE7FFF798FDFCF7FEFD00F110017E
:105CD0002046FFF7DBFD40F2B113338002B0BDE890
:105CE000F0871C4B1B78002B8BD1254D2B6803F5BF
:105CF00080532B60FCF7E8FD2B68C3F1A003C3427F
:105D00007FF55DAF20462968FFF7C0FD40F2022312
:105D1000E3E73B78052BA9D9FFF76EFD98F8003033
:105D2000002BE2D00F4DAB69984760B1FCF7CCFD7A
:105D30000D4B1B68C01A6FF4CC7318440028D4DBD9
:105D4000FFF75AFDD1E7EB6998470028EED1F7E756
:105D5000D80D002027170020261700202B17002021
:105D60000407002018832000000700202A170020C5
:105D70002817002029170020241700208D5B200001
:105D8000F00600202DE9F14F06460F461446002A82
:105D900071D03A4BD3F800B0BBF1000F0BD0506874
:105DA000FFF714F801231A463946304601B0BDE822
:105DB000F04F02F009BA1546DFF8C490DFF8C4A02E
:105DC000284601F078FEA8460546D8F80400FEF7FC
:105DD000FDFF0C20FFF728F9E0B91DB101211320C8
:105DE000FFF71AF949461A20FFF724F901210B2081
:105DF000FFF712F9DAF804309847002802DA012395
:105E00000522D1E701210C20FFF706F9D8F804009C
:105E100002F063F8002DD3D1DFF86C90DFF86CA0AE
:105E2000204601F048FE254604466868FEF7CEFF8E
:105E30001320FFF7F9F899F8003080468BB99AF8EB
:105E4000003073B9052501232A463946304602F051
:105E5000BBF985B97CB14FF0010BB8F1000FDFD170
:105E600009E0FFF747F80028ECD05846FFF77CFD23
:105E700003280546E7D101B0BDE8F08F04070020F4
:105E8000D40D00205884200024170020251700205E
:105E900008B5024B1B689847023008BD2C842000CF
:105EA00038B50C4B9B689847041E02DA4FF0FF3060
:105EB00038BDFEF7F7FF03780546002BF6D1022028
:105EC000FEF79CFF0028F1D06878FEF7ABFFA01C1E
:105ED000EEE700BF2C84200070B50220FFF714F815
:105EE00010B94FF0FF3070BDFEF7A2FF002606701C
:105EF0000446FEF7A1FF6070FEF7FCFF0446FFF7C3
:105F0000C7FF20442A2812DCC0F12B00C4B2FEF7E0
:105F1000C9FF0546FEF790FF22463146284401F0AE
:105F2000D5FAFEF789FF204480B2FEF77BFF044BD1
:105F30005B689847041ED4DBFEF790FFA01CD2E7F5
:105F40002C842000014B9B68184700BFEC83200085
:105F500070B504460D4614200121FFF75DF8034B90
:105F600029462046BDE870409B68184710842000F1
:105F7000832910B504460BD1184801F081FF184859
:105F800001F07EFF174801F074FF174801F078FF19
:105F90002388FBB9154801F0A0FC4FF48072144B24
:105FA00011211A8032229A8040F2E7320C481A817D
:105FB000104AFEF7B3FE10210F4A0848FEF7AEFE66
:105FC0000F210E4A0748FEF773FE12210C4A0648BD
:105FD000FEF7A4FE00230320238010BD70070020DD
:105FE000240700208C07002008070020DD86200001
:105FF000B21000209084200098842000A08420000B
:10600000748420002DE9F0410C461E4E1E4801F01C
:1060100064FC3046FEF74EFFF27961781B48FDF7CD
:106020002FFD1B49304601F0A3FAB0FA80F1194860
:106030004909FDF725FD3046154901F099FA044656
:10604000D0B9154DFEF79AFF2746A8466A793379ED
:106050009A4208D1EA79F3799A4204D1404685F808
:10606000417000F0F5FD01340A2C05F14205EDD137
:10607000BDE8F041FEF782BF08490948FDF700FD81
:10608000F6E700BFE40D0020018720001F872000F5
:10609000368720003A872000521300202C1700205A
:1060A000578720007FB5044600230D46104E114847
:1060B0003370717001F011FCFEF760FF1021204673
:1060C000FEF76CFF31460C4801F0DCFE71780B489E
:1060D000FDF7D6FC237B617A2A46CDE90113E37AEA
:1060E00007480093A379FDF7CBFC04B070BD00BF57
:1060F000BC100020728720007007002091872000CC
:10610000A8872000002370B504460D460E4E0F48A8
:106110003370717001F0E1FB40210D48FDF7B0FCD8
:10612000FEF72CFF40212046FEF738FF3146094894
:1061300001F0A8FE2B46627A04F10A010648BDE888
:106140007040FDF79DBC00BF6C100020F087200060
:106150000E8820002407002027882000F7B52D4C4A
:106160002D480E4601F0B9FB2046FEF7A3FE20465F
:106170002A4901F0FDF9054610BBFEF7FFFE637AE0
:10618000E27900937178E37A2548FDF779FC254B95
:10619000E27A5B78934218D1234B2449184601F0E8
:1061A000C5FAE2790573827122890281628942818E
:1061B00040F2E732C2817178FFF774FFFEF7DEFE2E
:1061C00003B0BDE8F040FEF7D9BEE179607A184B24
:1061D0001F7A47B11F788F4205D1DF78874202D1FD
:1061E0005F79974211D00135312D03F10A03EFD1C8
:1061F000104A2389117053806389852193807378B5
:106200000D48D371FEF73EFAD8E70C4801F065FB64
:10621000D4E700BF90100020488820006A88200042
:1062200071882000D40D002080100020AA88200052
:10623000820E0020A810002018010020B088200045
:1062400070B52D4C86B02D480E4601F046FB204619
:10625000FEF730FE20462A4901F08AF9002847D18E
:10626000FEF78CFE274B627A5B789A423AD194F81B
:106270003B302548049394F8393004F10A02039323
:1062800094F83730029394F83530019394F8333012
:10629000009394F83130E179FDF7F2FB1B4D1C4976
:1062A000284601F043FA63791A482B71E3881A4CA7
:1062B000EB80002376782370667001F00EFBFEF70A
:1062C0005DFE0A212846FEF769FE2146134801F0CB
:1062D000D9FD31461248FDF7D3FB06B0BDE870404A
:1062E000FEF74CBE224685210E48FEF7CBF9D5E7D6
:1062F0000D490E48EFE700BFEE0D0020CF882000CB
:10630000EE882000D40D0020F3882000DA0D002054
:1063100036872000328920006E10002008070020F8
:106320004F892000F40000203B17002062892000E4
:1063300070B5038806461446002B3BD0E22B46D1AD
:10634000254B1B788B423AD0244D0320FCF788F86C
:106350002349284601F0EAF92378224AEB71638841
:1063600011462B81A3886B810023107A48BB0A2237
:1063700053432078CA18C85463885380A3889380F5
:10638000E388D38040F201531381164800F0E0FB0C
:10639000154801F0A2FAFEF7F1FD0C210F48FEF7B7
:1063A000FDFD1248FEF796FC6B7AEA79E97A10480F
:1063B000FDF766FB0320FCF75BF8E2233380012046
:1063C00008E00133312B02F10A02CED1DDE70023D0
:1063D0000380032070BD00BFFD1600209C1000202C
:1063E0006A882000820E00207E8920008C07002011
:1063F0009F8920002DE9FF474B4D4C480F4601F087
:106400006CFA2846FEF756FD2846494901F0B0F8D7
:10641000064620B104B0BDE8F047FEF7AFBDFEF779
:10642000ADFDB5F90E30434802932B7B01936B7A97
:106430000093EB7AAA797978FDF722FB0420FEF726
:10644000F3FD04B221463C48FDF71AFB84EAE473ED
:106450002A7BA3EBE473B5F90E401BB202FB0433B5
:10646000541C93FBF4F335491BB2B1F90800EB81DE
:10647000984211DD0A717A786889CA7014228A718B
:1064800001224A71324608800B819BB2086863F38F
:106490000F02496800F088FB294B697A5B78294F25
:1064A0008B4216D10024AA79697AE87A254B1D7AA5
:1064B0004DB11D78954206D1DD788D4203D15D79CD
:1064C000854208BF1C720136312E03F10A03EED15A
:1064D000A0E71D48FDF7D4FA2B7B4FF00A080133E3
:1064E0002B730023194CDFF840A0DFF86490236081
:1064F0002368302BD6DC08FB03F3FA18117A71B14C
:10650000F95CAB7999420AD15046D179FFF7CAFDBF
:106510002368484608FB0373D979FDF7B1FA23686D
:1065200001332360E4E700BF70100020D48920000D
:10653000AA882000F4892000388A2000B2100020A8
:10654000D40D0020820E0020418A20006407002024
:10655000748A2000F8B5204B00211A461E460546D5
:10656000C079D479844207D157796C79A74203D195
:1065700092F84140012C2DD001310A2902F142024A
:10658000EFD1002493F84120D2B9144801F0A5F9C5
:106590004223284603FB046305F1400250F8041B24
:1065A000904243F8041BF9D1422303FB046440F2F8
:1065B0000513A4F840300848BDE8F84000F020BBBF
:1065C00001340A2C03F14203DCD1BDE8F840044851
:1065D00001F083B9F8BD00BFBE100020898A2000F9
:1065E000AE8A2000F8B51D4B00211A461E4605460E
:1065F000C079D479844207D157796C79A74203D105
:1066000092F84140012C1ED001310A2902F14202C8
:10661000EFD1002493F84120B2B9114801F05DF99F
:106620004223284603FB046305F1400250F8041B93
:10663000904243F8041BF9D1422303FB046440F267
:106640000313A4F84030F8BD01340A2C03F14203CF
:10665000E0D1BDE8F840034801F03FB952130020F3
:10666000D78A2000F88A20002DE9F04303880746E6
:106670000C46154685B0002B00F092807A2B40F036
:106680001F81924B1B788B4200F09E800220FBF70B
:10669000E7FE882C8E4C40F099808E4E7378012B4B
:1066A00000F094808C4801F018F98C49204601F0E4
:1066B0003DF84FF480738A4D23812B68012063716C
:1066C0003388DFF82092E380874B5B68984724216A
:1066D0008046D9F8083080209847D9F80430042043
:1066E0009847C0F307134FF47A705843001300F033
:1066F00045FC7E4900F0D4FA7D4900F08BFB00F0A8
:1067000091FCB0F57A7F03464246A8BF4FF47A73F6
:10671000784904F10A00FDF7C3F90023717884F881
:106720003E3094F83B3084F83110029394F83930BD
:106730007148019394F83730009394F8353094F809
:106740003320FDF79DF92B6840F25531622BCCBF09
:106750000123013369482B6001F022F95D4D6B780C
:10676000012B2CD0664B674E5A79002A40F08F805F
:106770003260617A6448FDF783F95548FFF7EAFE15
:10678000624A63792978208913706B7891709080C0
:106790009171D3708521D3715D48FDF773FF0EE0D1
:1067A000FEF7ECF81421B0FBF1F303FB1101032019
:1067B00089B2B1FBF0F15148C90101F0F1F80220B2
:1067C000FBF756FE7A233B8001207CE0514801F024
:1067D00084F829463E4800F0A9FF2B7A05F10A010A
:1067E00023726B7A4C4863726B793035637115F89C
:1067F0002A3CA37115F8293CE37100F097FFAE7BAA
:1068000046480136F6B2314684F83E60FDF738F965
:10681000EB7A434802936B7A0193EB7900936B799F
:10682000EA786978FDF72CF900233E4AB34228DB69
:10683000DFF8A080751E04EB450598F8012095F857
:1068400031103948FDF71CF998F8013095F83120DE
:1068500036489A421CBF04EB460686F8313094F85D
:106860003B30029394F83930019394F83730009319
:1068700094F8353094F8332094F83110FDF700F98E
:106880006CE735F8021B013322F8021BCEE7DB78F8
:106890003360002B3FF46DAF254801F01EF81E4910
:1068A0002448FDF7EDF8E27961792348FDF7E8F82F
:1068B00031680748FFF726FC0548FFF793FE7EE79F
:1068C00000230380032005B0BDE8F083FD160020FF
:1068D0002E0E0020D40D0020258B2000EE882000F5
:1068E0000401002090822000C08320004BEACC3FAE
:1068F00075132542488B2000668B2000400700203E
:10690000B21000206C070020A68C2000780E00201A
:1069100018010020828B2000380E0020958B20006B
:10692000B98B20005E0E0020E68B2000228C200018
:10693000498C20006A8C20007F8C20002DE9F047D4
:1069400003880746002B61D0B3F5837F40F0DE80DB
:10695000714B1B788B4264D00120FBF789FD00232B
:106960006E4C6F4E2360B379F3B17579012D1BD155
:10697000013BDBB2B371BBB94FF6FF7373803223B7
:10698000B38040F2E733717866483381FDF778F8D9
:106990002846FBF765FD23680133236023B1306887
:1069A0007168328900F000F900234FF00A095E4D4A
:1069B000DFF87881DFF878A123602B602A68302A1D
:1069C00031DD236813B1594800F0C2F800234FF0BD
:1069D0004209DFF8608123602B602B68092B3EDDC4
:1069E000236813B1534800F00BF90023DFF8488106
:1069F000524EDFF84CA123602B602B68092B55DD2C
:106A0000236833B14C4800F023F902E00120FBF782
:106A10002FFD4FF4C0714B4800F0C2FF4FF4837359
:106A20003B80012075E009FB02F208EB02014B7A82
:106A30008BB1087A01280ED1013BDBB24B7253B9FE
:106A40000B72504618F802304A79C978FDF718F8E9
:106A50002368013323602B6801332B60AEE709FB09
:106A6000038090F8412082B1727992B1F17881B1BE
:106A7000FFF748FB0023286809FB008080F84130BD
:106A8000FFF7B0FD2368013323602B6801332B60CF
:106A9000A3E709FB038393F84020013AD2B283F8BD
:106AA0004020002AF1D183F84120EBE74FF0420962
:106AB00009FB038393F8412022B393F84020013A65
:106AC000D2B283F84020EAB9597A83F8412050467F
:106AD0007278FCF7D5FF2B681B4A09FB038999F8EC
:106AE00005303178B9F80800137073789170D3705D
:106AF00090809171D37185211448FDF7C3FD2368FF
:106B0000013323602B6801332B6076E70023038079
:106B10000320BDE8F08700BFFD16002060070020BD
:106B2000B2100020C98C200068070020820E0020CF
:106B3000E38C2000BE10002052130020D40D002052
:106B40000F8D2000500700206E0E0020180100203D
:106B5000F7B504461148FCF793FF0025104F04F5E4
:106B6000F576237A53B1617A6379E2780191E1791C
:106B7000384600912178FCF783FF01350A34B4428E
:106B8000EFD12DB9074803B0BDE8F04000F0A5BE35
:106B90000A2003B0BDE8F04000F086BEE98D200079
:106BA000F98D2000278E20007FB506AB03E9070092
:106BB0001048FCF765FF9DF811302BB90E4807B05F
:106BC0005DF804EB00F089BEBDF914309DF80F208C
:106BD00001939DF812309DF80D10009307489DF821
:106BE0001030FCF74DFF0A2007B05DF804EB00F011
:106BF0005BBE00BF328E2000408E20004A8E2000F7
:106C0000F8B504460F48FCF73BFF00250E4F04F58E
:106C1000257694F841303BB1384694F84030627A9A
:106C2000E179FCF72DFF01354234B442F1D125B9A9
:106C3000BDE8F840054800F050BE0A20BDE8F84025
:106C400000F032BE7B8E2000898E2000278E20002F
:106C5000F8B504460F48FCF713FF00250E4F04F566
:106C6000257694F841303BB1384694F84030627A4A
:106C7000E179FCF705FF01354234B442F1D125B981
:106C8000BDE8F840054800F028BE0A20BDE8F840FD
:106C900000F00ABEA68E2000898E2000278E2000DC
:106CA0004FF0FF0C1CEAD0521EBF1CEAD15392EAEF
:106CB0000C0F93EA0C0F6FD01A4480EA010C4002CB
:106CC00018BF5FEA41211ED04FF0006343EA501025
:106CD00043EA5111A0FB01310CF00040B1F5000F67
:106CE0003EBF490041EAD3715B0040EA010062F116
:106CF0007F02FD2A1DD8B3F1004F40EBC25008BF00
:106D000020F00100704790F0000F0CF0004C08BF1D
:106D100049024CEA502040EA51207F3AC2BFD2F1EA
:106D2000FF0340EAC250704740F400004FF00003F8
:106D3000013A5DDC12F1190FDCBF00F00040704732
:106D4000C2F10002410021FA02F1C2F1200200FA70
:106D500002FC5FEA310040F1000053EA4C0308BF37
:106D600020EADC70704792F0000F00F0004C02BF88
:106D7000400010F4000F013AF9D040EA0C0093F003
:106D8000000F01F0004C02BF490011F4000F013B5D
:106D9000F9D041EA0C018FE70CEAD15392EA0C0FCB
:106DA00018BF93EA0C0F0AD030F0004C18BF31F036
:106DB000004CD8D180EA010000F00040704790F00C
:106DC000000F17BF90F0004F084691F0000F91F0B0
:106DD000004F14D092EA0C0F01D142020FD193EA76
:106DE0000C0F03D14B0218BF084608D180EA0100FE
:106DF00000F0004040F0FE4040F40000704740F0DA
:106E0000FE4040F44000704780F0004002E000BFC8
:106E100081F0004142001FBF5FEA410392EA030F85
:106E20007FEA226C7FEA236C6AD04FEA1262D2EBCF
:106E30001363C1BFD218414048404140B8BF5B42D4
:106E4000192B88BF704710F0004F40F4000020F06D
:106E50007F4018BF404211F0004F41F4000121F083
:106E60007F4118BF494292EA030F3FD0A2F10102CD
:106E700041FA03FC10EB0C00C3F1200301FA03F10B
:106E800000F0004302D5494260EB4000B0F5000F2E
:106E900013D3B0F1807F06D340084FEA310102F1ED
:106EA0000102FE2A51D2B1F1004F40EBC25008BF9F
:106EB00020F0010040EA03007047490040EB000069
:106EC000013A28BFB0F5000FEDD2B0FA80FCACF16A
:106ED000080CB2EB0C0200FA0CF0AABF00EBC25097
:106EE00052421843BCBFD0401843704792F0000F85
:106EF00081F4000106BF80F400000132013BB5E7D8
:106F00004FEA41037FEA226C18BF7FEA236C21D04D
:106F100092EA030F04D092F0000F08BF08467047B2
:106F200090EA010F1CBF0020704712F07F4F04D180
:106F3000400028BF40F00040704712F100723CBF93
:106F400000F50000704700F0004343F0FE4040F4BD
:106F5000000070477FEA226216BF08467FEA23637B
:106F60000146420206BF5FEA412390EA010F40F466
:106F7000800070474FF0000304E000BF10F00043B2
:106F800048BF40425FEA000C08BF704743F0964399
:106F900001464FF000001CE050EA010208BF7047B4
:106FA0004FF000030AE000BF50EA010208BF70473B
:106FB00011F0004302D5404261EB41015FEA010C50
:106FC00002BF84460146002043F0B64308BFA3F148
:106FD0008053A3F50003BCFA8CF2083AA3EBC2532A
:106FE00010DB01FA02FC634400FA02FCC2F1200249
:106FF000BCF1004F20FA02F243EB020008BF20F080
:107000000100704702F1200201FA02FCC2F12002E5
:1070100050EA4C0021FA02F243EB020008BF20EADA
:10702000DC7070474FEA4002B2F1FE4F0FD34FF0D1
:107030009E03B3EB12620DD94FEA002343F00043E5
:1070400010F0004F23FA02F018BF404270474FF093
:107050000000704712F1610F01D1420205D110F01A
:10706000004008BF6FF0004070474FF000007047CD
:1070700053B94AB9002908BF00281CBF4FF0FF319F
:107080004FF0FF3000F076B9ADF1080C6DE904CE99
:1070900000F006F8DDF804E0DDE9022304B07047F3
:1070A0002DE9F047089E0D4604468846002B4DD139
:1070B0008A42944668D9B2FA82F252B101FA02F3D6
:1070C000C2F1200120FA01F10CFA02FC41EA0308A6
:1070D00094404FEA1C41B8FBF1F71FFA8CFE01FB0C
:1070E000178807FB0EF0230C43EA084398420AD99D
:1070F0001CEB030307F1FF3580F01E81984240F23C
:107100001B81023F63441B1AB3FBF1F001FB1033F8
:1071100000FB0EFEA4B244EA0344A6450AD91CEBC8
:10712000040400F1FF3380F00981A64540F2068196
:10713000644402380021A4EB0E0440EA07401EB16B
:107140000023D440C6E90043BDE8F0878B4208D94C
:10715000002E00F0EE800021C6E900050846BDE8DB
:10716000F087B3FA83F100294AD1AB4202D38242BD
:1071700000F2FC80841A65EB030301209846002E80
:10718000E2D0C6E90048DFE702B9FFDEB2FA82F2D8
:10719000002A40F09180A1EB0C0001214FEA1C472E
:1071A0001FFA8CFEB0FBF7F307FB1300250C45EA32
:1071B00000450EFB03F0A84208D91CEB050503F1BE
:1071C000FF3802D2A84200F2CE8043462D1AB5FB0A
:1071D000F7F007FB10550EFB00FEA4B244EA05448D
:1071E000A64508D91CEB040400F1FF3502D2A645E0
:1071F00000F2B6802846A4EB0E0440EA03409EE766
:10720000C1F120078B4022FA07FC4CEA030C25FA57
:1072100007FA4FEA1C49BAFBF9F820FA07F309FB11
:1072200018AA8D401FFA8CFE1D4300FA01F308FBDB
:107230000EF02C0C44EA0A44A04202FA01F20BD9E7
:107240001CEB040408F1FF3A80F08880A04240F271
:107250008580A8F102086444241AB4FBF9F009FB04
:10726000104400FB0EFEADB245EA0444A64508D921
:107270001CEB040400F1FF356CD2A6456AD9023834
:10728000644440EA0840A0FB0295A4EB0E04AC4223
:10729000C846AE4656D353D0002E69D0B3EB080291
:1072A00064EB0E0422FA01F304FA07F71F43CC4003
:1072B000C6E90074002147E70CFA02FCC2F1200184
:1072C00025FA01F34FEA1C4720FA01F195400D43DE
:1072D000B3FBF7F107FB11331FFA8CFE280C40EAD1
:1072E000034001FB0EF3834204FA02F408D91CEBBD
:1072F000000001F1FF382FD283422DD902396044BA
:10730000C01AB0FBF7F307FB1300ADB245EA004526
:1073100003FB0EF0A84208D91CEB050503F1FF386A
:1073200016D2A84214D9023B6544281A43EA014107
:1073300038E73146304607E72F46E4E61846F9E6D7
:107340004B45A9D2B9EB020865EB0C0E0138A3E757
:107350004346EAE7284694E74146D1E7D0467BE733
:107360006444023847E7023B65442FE7084606E7D6
:107370003146E9E6704700BF032A10B516D940EA46
:10738000010C1CF0030F04460B4622D1194620467F
:10739000D1F800E0D0F800C00433F44504F104044F
:1073A00017D1043A032A20461946EFD8541EA2B139
:1073B00000F1FF3C013901E0C3180CD01CF801EFCB
:1073C00011F8012FA4EB0C039645F5D0AEEB0200AB
:1073D00010BD541EECE7184610BD104610BD00BF8E
:1073E000844641EA000313F0030349D1403A23D312
:1073F0000B6803604B6843608B688360CB68C36035
:107400000B6903614B6943618B698361CB69C3611C
:107410000B6A03624B6A43628B6A8362CB6AC36204
:107420000B6B03634B6B43638B6B8363CB6BC363EC
:1074300040304031403ADBD230320BD30B6803602E
:107440004B6843608B688360CB68C3601030103139
:10745000103AF3D20C3205D351F8043B40F8043B08
:10746000043AF9D2043208D0D2071CBF11F8013B0C
:1074700000F8013B01D30B8803806046704700BFD2
:10748000082A13D38B07B1D010F00303AED0C3F199
:107490000403D21ADB071CBF11F8013B00F8013BC3
:1074A000A4D331F8023B20F8023B9FE7043AD9D33A
:1074B000013A11F8013B00F8013BF9D20B78037057
:1074C0004B7843708B78837060467047830730B584
:1074D00048D0541E002A3FD00346CAB201E0013C06
:1074E0003AD303F8012B9D07F9D1032C2DD9CDB246
:1074F00045EA05250F2C45EA054536D9A4F11002C9
:1075000022F00F0C03F1200EE6444FEA121C03F1A7
:10751000100242E9045542E9025510327245F8D191
:107520000CF1010214F00C0F03EB021204F00F0C2B
:1075300013D0ACF1040323F003030433134442F8E3
:10754000045B9342FBD10CF003042CB1CAB21C447F
:1075500003F8012B9C42FBD130BD64461346002C3E
:10756000F4D1F9E703461446BFE71A46A446E0E71C
:1075700080EA010C1CF0030F37D110F0030C20F04F
:10758000030021F0030150F8042B08BF51F8043B1D
:107590000ED08CF0030C6FF07F434FEACC0C23FA33
:1075A0000CFC51F8043B42EA0C0243EA0C0300BF16
:1075B000A2F1013C9A4201BF2CEA020C1CF0803F70
:1075C00050F8042B51F8043BF2D04FEA02604FEA26
:1075D0001222012828BFB0EB036F08BF1B0AF4D0AA
:1075E00003F0FF03000EC01A704710F0030F0AD01B
:1075F00010F8012B11F8013B012A28BF9A42F4D060
:10760000A2EB030070474DF8045D50F8042B01F025
:10761000030521F0030151F8043B022D26D04DD87B
:1076200022F07F45B5EB132FA2F1013C2CEA020CAE
:107630000DD11CF0803C08BF51F8043B0AD185EA0B
:107640000205B5EB036F0CD150F8042BE8E74FEAC5
:1076500013235BE03CF07F4C54D10B784FEA12656A
:1076600054E04FEA126503F0FF034FE04FEA024592
:10767000A2F1013C4FEA15452CEA020CB5EB134F81
:1076800018D11CF0803C08BF51F8043B07D185EAB3
:107690000205B5EB034F09D150F8042BE6E75FEA8A
:1076A0000C4C2FD10B884FEA12452FE04FEA0343D1
:1076B0004FEA12454FEA134328E000BF02F0FF05EE
:1076C000B5EB136FA2F1013C2CEA020C0DD11CF0BA
:1076D000803C08BF51F8043B0AD185EA0205B5EBAE
:1076E000032F0AD150F8042BE8E74FEA13630DE0AB
:1076F00012F0FF0F06D051F8043B4FEA122523F099
:107700007F4303E04FF0000020BC704705F0FF020C
:1077100003F0FF00012828BF904204BF2D0A1B0A76
:10772000F4D0A2EB000020BC704700BF80EA010249
:10773000844612F0030F4FD111F0030F32D14DF8F0
:10774000044D11F0040F51F8043B0BD0A3F10132AA
:107750009A4312F0803F04BF4CF8043B51F8043BBD
:1077600016D100BF51F8044BA3F101329A4312F035
:10777000803FA4F101320BD14CF8043BA24312F03C
:10778000803F04BF51F8043B4CF8044BEAD0234639
:107790000CF8013B13F0FF0F4FEA3323F8D15DF8EB
:1077A000044B704711F0010F06D011F8012B0CF8B3
:1077B000012B002A08BF704711F0020FBFD031F82B
:1077C000022B12F0FF0F16BF2CF8022B8CF80020B2
:1077D00012F47F4FB3D1704711F8012B0CF8012B35
:1077E000002AF9D1704700BFFEE708B5FAF74EFD51
:1077F000F7B500240646254627463046FAF730FE00
:107800000197019BAB4215DB3046FAF731FEC5F517
:10781000C8750197019B9D4211DC0134B4F5487F86
:1078200001D103B0F0BDB4F5C87FD4BF2546C4F57F
:107830004875E2E700BF019B01330193E1E700BF18
:10784000019B01330193E5E701207047FAF72CBF54
:1078500010B54FF0E024236923F001032361FAF708
:10786000CBFF236943F00103236110BDFAF7C4BFC6
:1078700070470020FBF784B80120FBF781B8002097
:10788000FBF72ABA0120FBF727BA0220FBF724BA3C
:107890000320FBF721BA10B50C46FBF70FFD20467D
:1078A000BDE81040FBF73CBD10B50446C1B2002056
:1078B000FBF762F9204610BD70B50E460025441E48
:1078C000631C02D014F8010F08B9284670BDB542F8
:1078D000FBD0FFF7E9FF0135F2E738B50546002494
:1078E000285D20B90A20FFF7DFFF204638BDFFF7EB
:1078F000DBFF0134F4E7002070470120704710B52A
:107900000446302200210E20FBF73EFA6CB1012C18
:107910000CD142F210730011A0F28E5058432A236A
:1079200090FBF3F000F5C340283010BD4FF000404D
:10793000FBE7002070470120704710B50446302255
:1079400000210F20FBF720FA5CB1012C03BF40F6A9
:10795000F253584347F6F0734FF0004008BF90FBD6
:10796000F3F010BD084608B511460AB1FFF7A4FFB1
:10797000002008BD38B5044615460068FFF730FD05
:10798000236800202B44236038BD10B5041F54F831
:10799000040F00B910BD0021FCF79CFEF7E770470B
:1079A00010B5044600F00DF82046BDE81040FCF785
:1079B00047BD837BDB0701D5FCF784BD7047FFF72C
:1079C00057BF10B541600446FAF762FF206010BD52
:1079D00010B50446FAF75CFF2368C3F101030344C2
:1079E000606898422CBF0020012010BD0023013A9E
:1079F0000160027143718371704710B542798379D8
:107A00000479D31A34EA030308D0036899544379FC
:107A10000279013313404371012010BD0020FCE7BF
:107A2000837942790179D21A0A421FBF0268D25C77
:107A300001330B401ABF837110464FF0FF3070477F
:107A400000230360704700687047006820B1034658
:107A500000680028FBD118467047036810B53BB199
:107A6000002499421A6806D11CB9026000221A60EB
:107A700010BD2260FAE71C46002AF9D01346F0E751
:107A800038B5FFF7EAFF00230B600546FFF7DDFF7F
:107A900008B9296038BD0160FCE738B5FFF7DDFFA4
:107AA00003680B60016038BD0368002003B97047AC
:107AB0001B680130FAE700B10068704710B5044652
:107AC000428800214068FFF701FD23886288A06892
:107AD0000021BDE810405A43FFF7F8BC002310B561
