:020000040020DA
:10200000702B00208D222000137B2000117B2000EC
:10201000117B2000117B2000117B200000000000BC
:10202000000000000000000000000000C18120004E
:10203000117B200000000000DF812000957B200044
:10204000A77B2000AD7B2000B37B2000B97B200064
:10205000000000009B7B2000A17B2000117B200062
:10206000117B2000000000000000000000000000C4
:102070000000000000000000117B200000000000B4
:102080000000000000000000117B2000117B2000F8
:10209000117B2000117B2000117B2000117B200090
:1020A000117B2000117B2000117B2000117B200080
:1020B000117B2000117B2000117B2000117B200070
:1020C000117B2000117B2000117B2000117B200060
:1020D000117B200000000000000000000000000054
:1020E00000000000000000000000000000000000F0
:1020F000000000000000000091382000A1382000FE
:1021000000000000000000000000000000000000CF
:1021100000000000000000000000000000000000BF
:1021200000000000000000000000000000000000AF
:10213000000000000000000000000000000000009F
:10214000000000000000000000000000000000008F
:10215000000000000000000000000000000000007F
:10216000000000000000000000000000000000006F
:10217000000000000000000000000000000000005F
:10218000000000000000000000000000000000004F
:10219000000000000000000000000000000000003F
:1021A000000000000000000000000000000000002F
:1021B000000000000000000000000000000000001F
:1021C000000000000000000000000000000000000F
:1021D00000000000000000000000000000000000FF
:1021E00000000000000000000000000000000000EF
:1021F00000000000000000000000000000000000DF
:1022000000000000000000000000000000000000CE
:1022100000000000000000000000000000000000BE
:1022200000000000000000000000000000000000AE
:10223000000000000000000000000000000000009E
:10224000000000000000000000000000000000008E
:10225000000000000000000000000000000000007E
:10226000000000000000000000000000000000006E
:10227000117B20007137200095372000012E2000AF
:10228000ED39200031292000117B2000FF2200249D
:1022900008B5094B0948C3F8B420094A636E0949D7
:1022A000121A98470848094A2146236E121A98477D
:1022B00000F00EF8FEE700BF00200D4040000020B7
:1022C000D605002048942000D80500206D2300206A
:1022D00073B500F073FC00F02DFD00F089FC00F0F8
:1022E000B5FA01F071FB05F0FEFC00F01BFD00F0FB
:1022F000ADF8012005F010FC02F060F900F04AFC96
:10230000002000F06DFB012000F06AFB00203D4939
:1023100000F02AFC02F098FA62B6042005F0FCFBFB
:10232000394805F06EFC394805F06BFC00F02CFADA
:10233000002002F031FB01F043FA0021344802F0A2
:10234000C9F902F069F805F015FC00F07DFD00F018
:1023500099FD02F08BFE0821684601F05BFB2D4DD4
:10236000BDF806402C482C8001F08AFB2B4E2978C2
:102370002B4801F085FB69782A4801F081FBF56A5A
:102380004AF6CD310220A84761BA89B20320A84796
:102390001A210120A84708226946736B0B20984731
:1023A000214801F06DFB214B186805F02AFC2048FC
:1023B00001F066FB1F4B186805F023FC1E4801F076
:1023C0005FFB1E4B186805F01CFC00211C4802F046
:1023D00081F91C4B01219B688120984705F073FC13
:1023E000194805F066FC00F0DBFB022005F094FBC9
:1023F00000F0DCFB02F0FAF8C0B20028F8D101F0DE
:102400007BFAF5E701482000D4882000E688200008
:1024100090040020202100200B892000408620000D
:10242000298920002F892000358920001487200069
:102430003C892000448720004389200060872000D9
:10244000C0040020C8852000A487200008B500F043
:1024500043F90022014B1A7008BD00BF2C21002057
:10246000024B1A781043187000F058B92C21002044
:10247000034A137823EA0000107000F04FB900BF40
:102480002C21002008B50B4B1B7803420FD02028CD
:102490000BD004280BD10220074B80211A7800F0C2
:1024A00073FC20EAE07000B208BD0520F4E74FF0AD
:1024B0000040F9E72E2100202D210020802810B5B2
:1024C0000C4605D0B0F5807F2BD04FF0004027E0C0
:1024D0008B1E222BF9D8194BD3F8202422EA0102B3
:1024E000C3F82024D3F8002422EA0102C3F8002410
:1024F0008A0604D501220521002000F029FC63078B
:1025000004D501220221002000F022FC00F034FC5E
:1025100030220B4B1A700B4B187820431870002098
:1025200010BDC8B2202803D005D810F0EF0FCCD1D1
:10253000034B1870F4E73028FAD0C6E700900D403E
:102540002D2100202E21002018B1012804D00020C8
:102550007047034B186A7047024B1878704700BFEA
:1025600000900D403021002010B5094A002013785A
:1025700001331370074B197802F084F8BDE810405E
:1025800005490023054A0968054801F07BBF00BFE3
:10259000302100202F210020100600206925200076
:1025A000F005002008B50346812B08462DD0B3F571
:1025B000807F3ED0802B26D101F0F8FF1E4B0321F7
:1025C00018701E4B0020D3F8202422F00802C3F814
:1025D0002024D3F8002422F00802C3F80024D3F802
:1025E000042422F00802C3F80424D3F8082442F09B
:1025F0000802C3F80824042200F0AAFB03220021E9
:102600000F4800F049FB01200AE00C4B0D49D3F8BC
:10261000102430B142F00802C3F8102401230B60EB
:1026200008BD22F00802C3F810240123C1F880304D
:10263000F6E7054B1960E6E72F21002000900D40DA
:102640004D26200000E100E01006002008B50F48EC
:1026500005F052FBC8B108210C4805F046FB0C4BB5
:10266000196849B100220B4B1A700B4B1B6A43B916
:102670000A4A0B4801F006FFBDE80840094802F08D
:102680005FB9074801F008FFF6E708BDE80500203C
:10269000100600203021002000900D406925200008
:1026A000F0050020C8852000094BD3F8202422F033
:1026B0000402C3F82024D3F8002442F00402C3F833
:1026C000002400221A610122024B1A70704700BFD9
:1026D00000C00D403521002000210F4BD3F82024ED
:1026E00022F0C002C3F82024D3F8002442F0C00234
:1026F000C3F80024C3F8001303F50053D3F82024D3
:1027000022F01002C3F82024D3F8002442F0100273
:10271000C3F800241964704700A00D4010F00202B5
:1027200018BFFF22084BC3F8002210F0040218BFA4
:10273000FF2210F00100C3F8002118BFFF22034B55
:1027400014BF1A641864704700A00D4000C00D400B
:10275000044BDB69C3F3072013F4704F04BF103040
:10276000C0B2704700300D40064B5869C00910F0E8
:10277000060F03BF00F00700C0F1020040034FF452
:102780000040704700300D402DE9F047002488B02C
:10279000FFF7DEFF164B0646DF69236D9847E36CB3
:1027A000804698470446FFF7DFFF054600F05CFAD5
:1027B000814600F065FA824600F010FAAD0A07F093
:1027C0000103A40AC7F34007CDE905A003934146DE
:1027D000CDF8109002970195009406F00F03C6F310
:1027E0000712044801F04CF908B0BDE8F08700BFBB
:1027F00000300D40668920002DE9784800F064F82B
:1028000010490246D1E900BC6646584538BF0CF174
:1028100001063346C1E900230B4ED6E90001B0EBB7
:102820000B0461EB0C05A01845EB0301C6E90001A0
:1028300001F092FD18B1BDE8784801F013BDBDE884
:10284000788800BFE0050020D80500204FF0E02385
:10285000E0210B4A5A610B4A82F82310002207211B
:102860009A61196108498B6843F001038B60074B3B
:10287000DA6004221A6001225A600F229A637047BC
:1028800047E8010000ED00E000200D40000003409B
:10289000034BD3E90023100A40EA0360704700BFEE
:1028A000E0050020044B9862DA6842F00102DA6029
:1028B000DA68D207FCD4704700000340014B186867
:1028C000704700BF14060020054A106C516C936CD1
:1028D0001B0443EA01230343D06C43EA00607047C2
:1028E00000500D4010B504460E4A136DDB07FCD5B1
:1028F00072B6FFF7E9FF231A062BD8BFC41D094B98
:10290000220EDA64C4F307429A64C4F307225A64BD
:10291000E2B21A6462B64FF40032034B1C60034B00
:102920001A6110BD00500D401406002000E100E0C7
:1029300008B500F0CDFF0022064B1A604FF40032BC
:10294000054BC3F89021C3F89020BDE8084001F082
:10295000F7BE00BF1406002000E100E0064B9B69B3
:102960001B075FBF054B986980F00800C0F3C000EB
:1029700048BF0020704700BF00C0004000D00040AA
:102980002C22154B70B502FB00334FF6BF72DC688A
:102990000546236C626413F050020DD00F4EA369FC
:1029A000DB0600D570BD56F825301BB12068C0B2DB
:1029B0009847F4E72368F2E713F4D06FF2D04FF4AE
:1029C00040732363FF236360E36AE262E362236B85
:1029D00043F001032363E5E7D885200018060020B3
:1029E00001282DE9F74F804600F2AD802C254543A4
:1029F000564F7C1994F92090B9F1000FC0F2A380D2
:102A000094F92260002EC0F29E80514800F0CAFF67
:102A1000504B79599A6A94F921A00A439A62DA6A6A
:102A20006168E5680A43DA621A6BA168F0B20A438A
:102A30001A63002322690AEBC901C5F8C83F116077
:102A400094F82310227DCDE9000194F923B000F021
:102A500089F9DDE90001082200F07AF90122310349
:102A60003D4E02FA0BFB88594FEA09394BEA000048
:102A7000885159F8061002FA0AFA4AEA010149F89F
:102A800006105021A963A96B94F9240041F4D06188
:102A9000A963022169634FF440712963A169002889
:102AA0006962E169A9624FF07001E96216DB0023F7
:102AB00094F92510294C41EAC005C4F804510403D7
:102AC000A5598A402A43A251C9B21A46C0B200F0A1
:102AD0003FF9234A136B43F4004313632C2303FB96
:102AE000087393F92640002C1ADB93F82790E5B27F
:102AF00001224946284693F927A000F033F9012323
:102B00002403A25903FA0AF31343A35108224946A6
:102B1000284600F01DF9124A136B43F480431363F7
:102B20002C2000FB0877FA68136B43F00103136352
:102B3000012297F82830590903F01F0302FA03F322
:102B4000084A42F8213003B0BDE8F08FD885200054
:102B50005D29200000200D4020940D4000400D40D4
:102B600000D0004000E100E001289CBF014B43F889
:102B70002010704718060020012808D82C22044B8A
:102B800002FB0030C3689A699206FCD41960704752
:102B9000D88520000022014B1A60704700500D407C
:102BA0000822014B1A60704700500D40A022024BD2
:102BB0001A6050221A60704700500D40014A024BC3
:102BC0009A6070470020200000ED00E0024B58683A
:102BD000C0F38150704700BF00200D4008B5FFF7DB
:102BE000F5FF024B53F8200008BD00BF30862000DF
:102BF00010B5194C0122D4F82034062123F04003EB
:102C0000C4F82034D4F80034032023F04003C4F87F
:102C1000003400F09DF8D4F82034012223F0800322
:102C2000C4F82034D4F80034072123F08003C4F81A
:102C30000034032000F08CF8084A094B1A60094A56
:102C400059681142FCD15A685201FCD4044A5368B5
:102C50005B01FCD510BD00BF00C00D4001010200AA
:102C600000200D4000000101034B04485B6803F0A5
:102C700007031841704700BF00200D400048E801DD
:102C8000034B04485B68C3F302231841704700BF3D
:102C900000200D400048E801024B02EBC10243F85E
:102CA0002200704720060020F8B507460D46002494
:102CB000084E06EB411647FA04F3DB07E1B204D5F0
:102CC00056F824300BB1284698470134082CF2D12D
:102CD000F8BD00BF200600202DE9F8430546DFF8C7
:102CE000388000F0F5FD0D4B2E03F75856F80840DC
:102CF0004FEAC50924FA09F447EA04002946C0B29C
:102D0000FFF7D2FFE4B2064BFFB204FA09F4F75022
:102D100046F80840BDE8F88318970D4018940D4018
:102D20001C940D4080220021014804F023BD00BF07
:102D300020060020034B044A1A60044B803A1A60B4
:102D4000704700BFA006002080400D40A406002070
:102D5000034B01EBC0011B6843F82120704700BF03
:102D6000A0060020034B01EBC0011B6843F82120A3
:102D7000704700BFA4060020024A136843F03003E6
:102D80001360704700700D400E2870B506460DD1D7
:102D9000134B5C6B44F0020058631248D0F8F456B1
:102DA00025F03F0343F00103C0F8F4360E48836872
:102DB00023F0FF031A4311433143816003681B066C
:102DC000FCD5C368006903F0FC0343EA00230E2E20
:102DD00018B201BF034BC3F8F456014B5C6370BDDE
:102DE000000001440080084000700D40034BD3F800
:102DF0000007B0FA80F04009704700BF00B00840FB
:102E00004FF40042064B10B5064CC3F89021C3F8AE
:102E10009020206818B101F075FC0023236010BDDC
:102E200000E100E0A8060020064B9A6C42F0020286
:102E30009A64DA6C42F00202DA641A6D42F002021D
:102E40001A65704700200D4007B50C4800F0AAFD38
:102E5000FFF7EAFF0A4B5A6D42F002025A65002260
:102E60000192019A0F2A06DD5A6D22F002025A657C
:102E700003B05DF804FB019A0132F1E7ED2D20006B
:102E800000200D40064B9A6C22F002029A64DA6C24
:102E900022F00202DA641A6D22F002021A6570470B
:102EA00000200D400D4BD3F84C269107FBD4D3F8EE
:102EB0004C2652065EBFED22C3F83828C3F83828E6
:102EC000D3F82C2612B1EF22C3F83828044A012087
:102ED000137803F07F031370704700BF0080084031
:102EE00038210020044BD3F84C0600F02200A0F15A
:102EF000200358425841704700800840024BD3F8E5
:102F00004C0600F04000704700800840054BD3F8A5
:102F1000002620B142F00102C3F80026704722F0DB
:102F20000102F9E700800840284B1870002841D0C2
:102F3000274A53681B03FCD5264BD3F8042842F0DC
:102F40000202C3F80428D3F8042842F00102C3F8AF
:102F50000428D3F804285007FBD5D3F8042822F01E
:102F60000102C3F804281B4BD3F804285107FBD4F3
:102F7000D3F8042842F00202C3F80428D3F8042846
:102F800042F00102C3F80428D3F804285207FBD505
:102F9000D3F88C2622F00402C3F88C26D3F8342808
:102FA00022F00402C3F834284FF400520A4BC3F84D
:102FB00090207047074AD2F88C3643F00403C2F8D9
:102FC0008C364FF40052044B1A61704737210020B1
:102FD00000200D400080084000E100E0094B93F91B
:102FE0000020002A0CDBED21074AC2F83818C2F88D
:102FF0003818E321C2F838181A7862F07F021A7084
:1030000001207047382100200080084070B5A0F1F1
:103010000B05EBB20F2B044614D80C4ED6F84836ED
:1030200013F03F0302D0FFF73DFF012305EB8505B9
:103030000B35C6F83C560BB1FFF7D0FF044B60B21E
:103040001C7070BD4FF0FF30FBE700BF00800840F0
:103050005605002038B50C46002900F09180102854
:1030600000F29080DFE800F009111D252B434C6031
:10307000667D818E8E86885D8A00434BD3F82C3620
:10308000003B18BF012323602BE005223E4BD3F801
:103090003C3603F07F030B3B93FBF2F30B33DBB2C5
:1030A000F1E7394AD2F8CC15D2F8C83543EA012302
:1030B000E9E7354AD2F8D415D2F8D035F6E700233F
:1030C000314A0B60D2F8003603F001030B60D2F8EE
:1030D0002426900644BF43F002030B602B4B1B7861
:1030E0000BB900200BE00B6843F00403CBE7002092
:1030F000274B08601B78002BF3D001230B6038BDF1
:10310000214B2449D3F840260023D2B201EBC3005F
:103110000079904202D851F83330B4E701330E2BD6
:10312000F4D16FF01703AEE7174BD3F858365BB204
:10313000493BA8E7144DD5F8483699060FD1FFF75B
:103140004DFF0123D5F86426D207FBD5D5F860568C
:10315000493D6DB20BB1FFF7A5FE2560C1E7002325
:10316000F0E70D4B93F900308DE70C4B1B7803F023
:103170007F0388E70B2386E71A2384E7072382E788
:103180000220BCE70120BAE7008008403721002078
:1031900057050020788620003921002036210020A4
:1031A00010B50B4CD4F8483699060FD1FFF716FF2F
:1031B0000123D4F86426D207FBD5D4F84C46C4F3D7
:1031C00000140BB1FFF76EFE204610BD0023F0E7A0
:1031D0000080084010B50C46072865D8DFE800F0ED
:1031E000040F1A232C444A5E012903D1FFF7F6FE8F
:1031F00000203EE0002959D1FFF754FEF8E7A1F185
:103200000B030F2B52D8C8B2FFF700FF0130EFD1EC
:1032100003202EE0264BCAB2C1F30724C3F8C82509
:10322000C3F8CC45E4E7224BCAB2C1F30724C3F884
:10323000D025C3F8D445DBE731F0070336D101F0E0
:103240000100FFF763FE1A4B11F0020FD3F824269A
:10325000C1F3800014BF42F0200222F02002C3F824
:103260002426FFF761FEC3E731F001001ED1114BA8
:10327000197010BD01F118031F2B17D80D230E4A2A
:1032800052F833108C4206DC02EBC3031A79084B68
:10329000C3F84026ACE7013BF2D2A9E7044BCCB21D
:1032A0004934C3F85846A3E70120E2E70220E0E7EB
:1032B00000800840570500207886200070B505463C
:1032C0000C46144ED6F84C369B07FBD4124B93F9A0
:1032D0000030002B01DBFFF781FEEE23691EC6F8EC
:1032E0003838C6F83838A31CC6F8283821440220DC
:1032F00000F080FA0949013C41EA0411022000F083
:103300008BFA022000F092FA022000F0A7FA0020C7
:1033100070BD00BF008008403821002002C001C0FD
:1033200070B5264B93F90030002B19DBFFF7CCFA70
:103330000446FFF753FEC4F1FF2404F57F04F6347E
:10334000FFF7C2FAC442FBD401261D4B1B784BB9D0
:103350001C4CD4F84C36990609D50224204670BD81
:103360000026F2E7FFF71CFF0028F1D1F5E7E9237B
:103370000425C4F83838D4F84C369A0703D4013DF4
:1033800015F0FF050AD1D4F84C369B070AD50D4B32
:10339000D3F84C4614F00204FAD109E00620FFF7F6
:1033A00081FAE8E7EE23C4F83838C4F83838012445
:1033B000002ED3D0FFF776FDD0E700BF38210020E4
:1033C00057050020008008400B280DD1082A0DD198
:1033D00061B1074B074A083111F8010D43F8040B9E
:1033E0009342F9D1002070470120704702207047B6
:1033F000A8850840C885084070B5384A0546D2F807
:103400004C0610F0400009D0D2F82808040606D572
:10341000ED23C2F83838C2F83838002070BDC0B289
:103420000428F5D902388842F2DCC4B2032C24D136
:10343000D2F828382B70D2F828386B70D2F8283898
:10344000AB70264D264BD5F82818264E493949B27F
:103450001970D5F828381806337026D589B204209B
:1034600001F0DAFD3178032001F07F0101F0D4FD95
:103470001D4B1B78FBB12046D0E7291903200139E9
:1034800000F0C0F91949631E032041EA031100F05E
:10349000C3F9032000F0CAF9032000F0DFF903208C
:1034A00000F0E8F90028FAD1CBE7ED23C5F8383869
:1034B000C5F83838B1E7D5F84C365A06DBD5D5F81B
:1034C0004C361B0603D50A4801F01CF9D3E7ED235F
:1034D000C5F83838C5F83838CDE700BF0080084057
:1034E00039210020362100203721002002C0010CA4
:1034F000780400202DE9F041294F3E7816F00106AE
:103500004CD10125274B284CC3F8A850C3F8AC5028
:10351000C3F8B050F823C4F858360923C4F8E83784
:1035200015230B22C4F8C836204B4FF07F085A6091
:103530004023C4F82436D4F8243643F02003C4F8DA
:103540002436D523C4F80866C4F85086C4F840363B
:10355000174B1878FFF75AFD4FF48042154B0220A5
:10356000C4F894861A6100F06DF91349022000F046
:1035700049F9032000F066F90F49032000F03AF9F9
:103580000E4B1878FFF7D0FC0D48314601F0A2F839
:1035900028463B782B433B70BDE8F0810020FBE7D9
:1035A0003821002000200D400080084000600D40C0
:1035B0005605002000E100E028880840372100205F
:1035C0007804002038B50388044653B340F2034220
:1035D000934233D11B4B1A7842BB822924D11B78EA
:1035E00073B901F0CBFC01F05DFC8021FFF704FF13
:1035F000002805DD80B201F015FC134B1B699847CC
:10360000124B1A7852060CD500221A70104BD3F8C0
:103610004856FFF747FCFFF76DFFAB0601D0FFF7F9
:10362000DDFC40F20343238001200AE01A78002ADF
:10363000FAD0064A12785006F6D5CEE7002303806A
:10364000032038BD3721002060872000382100206A
:10365000008008400B282DE9F8430D460FD1082AB9
:103660007CD100297AD03E4B3E4A4D1E53F80419B6
:10367000934205F8011FF9D10020BDE8F8830C281A
:103680006AD1042A6AD1002968D0374BD3F81028B0
:1036900022F00702C3F81028D3F8042842F00802E9
:1036A000C3F80428D3F81428D3F81818D3F810084E
:1036B000D2B220F07000C3F81008D3F82448D3F831
:1036C0002008090242EA006289B224040A4304F491
:1036D0007F04D3F81C7842EA0408D3F81028FFB21C
:1036E00022F0070242F00102C3F81028D3F80428A0
:1036F00042F00802C3F80428D3F81448D3F8182875
:10370000D3F81018E4B221F0700141F01001C3F8B1
:103710001018D3F82418D3F82008120292B244EA01
:1037200000640904144301F47F010C43D3F81C180E
:103730005FFA81F9FFF7C8F8B8EB040467EB0907F3
:10374000FF0306460023094AE00347EA544103F019
:10375000DFFD361A2E608FE701208EE702208CE70E
:10376000C4850840A4850840008008400048E8015E
:1037700008B5054B1B7813B9044800F0C3FF0022BD
:10378000034BC3F8342808BD3721002078040020FB
:1037900000800840074A0848D2F82C38042B1FBF85
:1037A00006490B7843F040030B700023C2F82C3815
:1037B00000F0A8BF008008407804002038210020D5
:1037C00010B5094C40220021204603F0D3FF01220E
:1037D000064B5A604FF480429C60054B5A604FF490
:1037E00000425A6010BD00BF0000002000F00F40F2
:1037F00000E100E003289EBF014B00011950704713
:103800000000002003289EBF024B03EB0010416024
:10381000704700BF0000002003289EBF024B03EB4F
:1038200000108160704700BF00000020032806D808
:103830000123034A03FA00F0916A0843906270473B
:1038400000F00F40032806D80123034A03FA00F0D2
:10385000116A08431062704700F00F40032806D831
:103860000123034A03FA00F051690843506170478D
:1038700000F00F4003289FBF044B03EB001080684B
:1038800000F0070088BF0020704700BF0000002044
:103890004FF0FF32014BC3F80425704700F00F4092
:1038A0000122014BDA64704700F00F40074B5A6861
:1038B000D102FCD41A6822F480321A605A68D2030A
:1038C000FCD41A6842F400321A60704700200D40A0
:1038D00010B5084CA36D99070BD063685A01FCD44E
:1038E00063685B01FCD504F047F9FFF7DFFF0023B5
:1038F000A36510BD00200D4070B5264BD3F8484697
:1039000014F03F0414D1244D55F8043B23B19847DB
:1039100070B10134052CF7D1204E337843B1FEF756
:10392000CDFF0446FEF7D0FF201A092800D90CB9B4
:1039300030BF26E01A4B1A6822F400321A605A6827
:10394000D202FCD41A68164D42F480321A606B68B9
:10395000DB03FCD5FEF7B8FF241A092C03D8BDE819
:103960007040FFF7A3BF632C0CD93378022B09D129
:10397000AB6500F07DFE38B1FFF798FF0022084BE1
:103980009A6570BD0123F3E7FEF798FF0028F3D096
:10399000CEE700BF00800840AC0600203A2100209E
:1039A00000200D40074A10B50023144652F8041BAE
:1039B000814202D011B944F8230010BD0133052B18
:1039C000F4D1FAE7AC0600200022054B05499A65C0
:1039D0000B6943F004030B61034B1A70704700BF7F
:1039E00000200D4000ED00E03A2100204FF480322D
:1039F000064B10B5064CC3F89021C3F89020206800
:103A000018B100F07FFE0023236010BD00E100E04C
:103A1000C00600204FF4201270B592F82B40431ED0
:103A200054B101F52011154A273191421AD011F8ED
:103A3000010903F8010FF8E792F82A40122CF0D19F
:103A400092F829204B2AECD14C0804F520120B4D9A
:103A50002732AA4207D1002301F520112044273143
:103A6000A34205DB70BD12F8016903F8016FF0E7AE
:103A7000CA1A1278013300F8012BF1E72700280059
:103A80000FB407B504AA52F8041B0448019200F0D1
:103A900039F803B05DF804EB04B0704788040020E7
:103AA0000EB43FB5094B07AA52F8041B01900493CA
:103AB00004A801AB0392059300F024F80022019BB7
:103AC0001A7006B05DF804EB03B070479D7C2000CF
:103AD00070B505460C460A4E102C07D874B1224624
:103AE0002B6868680649BDE87040184710223146C7
:103AF0002B686868984710B9103CEDE7204670BD08
:103B0000848A20002DE9F04F8046154600278DB0AD
:103B10000491049B1B78002B00F07983049B1A7896
:103B20001C460133002A00F06183252AF7D1049B4B
:103B30009C4205D05DE323783744002B00F0678377
:103B40006278631C002A00F062830024184610F893
:103B5000012B19462B2A15D009D8202A15D0232A43
:103B600016D0A2F13106082E40D8002219E02D2AE5
:103B700004D0302AF5D144F0100401E044F00104EF
:103B80000346E3E744F00604FAE744F00204F7E7EB
:103B900044F00804F4E70A21019A01FB0299A9F113
:103BA0003002194613F8019B0192A9F13002092A4B
:103BB000F1D90B782E2B36D14A784B1CA2F130006C
:103BC000092828D84FF0000B1A781946A2F13000C6
:103BD000092803F1010318D90B786C2B6BD14B78B2
:103BE0006C2B23D144F08004023122E02A2A09D12F
:103BF0002B680146002B019305F10405B8BF44F082
:103C00000104D6E700230193D3E70A2101FB0B2B24
:103C1000ABF1300BD8E72A2A04D1D5F800B0023135
:103C20000435D9E719464FF0FF3BD5E7013144F0A1
:103C300060040B78782B0CD8572B48D8472B08D822
:103C4000402B00F28D80002B00F0E182252B00F04C
:103C5000D0804B1C049304F4E063B3F5A06F00F034
:103C6000A28200F2C980B3F5407F00F06882B3F50C
:103C7000806F00F02F82B3F5807F7FF44AAFBBF1F5
:103C8000000FACBF24F010044FF0010B14F40059E6
:103C900004F0E00300F07A81402B00F0728100F222
:103CA000C280002B00F07081202B00F0CB8000261A
:103CB000B2460023D3E0682BBBD14B78682B02D1EE
:103CC00044F0200490E7013144F04004B1E7583B50
:103CD000202BBED801A252F823F000BFA53D200042
:103CE000533C2000533C2000533C2000533C200018
:103CF000533C2000533C2000533C2000533C200008
:103D0000CF3D2000533C2000DB3D20008D3D2000B6
:103D1000B73D2000AB3D2000C33D2000533C2000B8
:103D20008D3D2000533C2000533C2000533C20009C
:103D3000533C2000ED3D2000993D2000E73D200050
:103D4000533C2000533C2000E13D2000533C200028
:103D5000933D2000533C2000533C20009F3D200019
:103D6000413B062B3FF675AF01A252F823F000BF8E
:103D7000D53D2000533C2000533C2000533C200004
:103D8000BD3D2000B13D2000C93D200044F4245435
:103D90005FE744F410645CE744F4885459E744F462
:103DA000C85456E744F4B24453E744F4007450E76F
:103DB00044F484444DE744F402444AE744F4424462
:103DC00047E744F4813444E744F4A13441E744F440
:103DD000C1343EE744F4E1343BE744F4A06438E7FF
:103DE00044F4806435E744F4407432E744F4E0641A
:103DF0002FE744F4C0642CE7B3F5C06F07D0B3F5E8
:103E0000E06F7FF486AE2B6804351F6081E60122E7
:103E1000D8F80030A649D8F804009847002840F0A8
:103E2000F481013775E6602B00F0AE80802B7FF4C3
:103E30003EAFEA1D22F007021546D2F804A055F85D
:103E4000086B04E095F9006004354FEAE67ABAF1B0
:103E5000000FBFF62EAF012376426AEB4A0A0293A7
:103E600004F4C053B3F5805F00F0E480B3F5C05FA5
:103E700000F0E680B3F5006F00F0C6800DF12E0370
:103E8000009300230393039B41F608029B4588BFE0
:103E9000ABEB030B41F2080304EA020198BF4FF0B9
:103EA000000B994204D1BBF1010F38BF4FF0010B59
:103EB000039B91425B4440F0DF8056EA0A0200F027
:103EC000DB807C497C4A14F4804F4FF0020614BF1B
:103ED0008A469246B9F1000F0DD0029A002A40F0AE
:103EE000CE8004F00602022A00F0CD80062A734A32
:103EF00004BF0126924606EB0309019B4B4594BF84
:103F00004FF00009A3EB090914F00103019304D158
:103F1000E20640F1BC80CB4499464EB13246514650
:103F2000D8F80030D8F804009847002840F06D8198
:103F30005C46039BDFF888A11F44102CD8E90030B1
:103F400000F2AD802CB122465D499847002840F030
:103F50005C81D8F80030039A0099D8F804003744FF
:103F60009847002840F05181019B5F44002B00F0EE
:103F7000E08049464046FFF7ABFD002800F0D980BD
:103F800043E1B5F900605FE72E685DE7402B1BD089
:103F900007D8DBB1202B11D04E46CA46CDF8089089
:103FA0005EE7602B12D0802BF6D1EA1D22F00702CB
:103FB0001546D2F804A055F8086B02E02E78CA46E0
:103FC0000435CDF808904BE72E88F8E72E68F6E721
:103FD000039805990A22002303F09AF9009B3032D6
:103FE00003F8012D0398059900930A22002303F09A
:103FF0008FF903900591039B059A1343E8D1009A2A
:104000000DF12E039B1A3DE70DF12E030396CDF81B
:1040100014A00093EFE7009803F00701303100F897
:10402000011DDB0843EA42730090D20853EA020103
:10403000F1D1E4E70DF12E01334652460091F5E748
:10404000204B14F4804F2049524608BF194633468E
:104050000DF12E00009053EA0200D0D003F00F00C3
:10406000DDF800C0085C1B090CF8010D43EA02737F
:10407000CDF800C01209EEE70026B2462AE7012675
:10408000DFF848A037E70126DFF844A033E74946C8
:104090004046FFF71DFD00283FF43FAFB5E010227A
:1040A00051469847002840F0B080103C45E700BFDB
:1040B000828A2000738A2000768A2000798A200074
:1040C000948A2000628A2000518A20008A9320006E
:1040D000418920002E6804356EB333469A469AF81B
:1040E00000200133002AF9D1AAEB060ABBF1000F28
:1040F00002DBDA4528BFDA46019B534594BF4FF0F7
:104100000009A3EB0A0914F0010405D14946404611
:10411000FFF7DEFC002878D152463146D8F800304F
:10412000D8F80400984700286FD15744002C7FF43A
:1041300020AF4F44EDE44FF0060A374ED6E7374B39
:1041400014F4804F364808BF18460DF12B030022A7
:104150009A462968043551EA02061AD1BAEB030AD5
:1041600004BF302203F8012C4FF0780208BF03F19E
:10417000FF3303F8012C4FF0300208BF4FF0010A63
:1041800003F8022C2322DE1E03F8032C0AF1030A93
:10419000B2E701F00F06865D090941EA027103F8F2
:1041A000016D1209D7E7DDF804902B68B9F1010F12
:1041B00038BF4FF0010914F0010405F104058DF832
:1041C000183009F1FF3605D131464046FFF780FC33
:1041D000D8B937440122D8F80030D8F8040006A92D
:1041E000984790B9002CA4D03146C3E6049B9C426A
:1041F0000DD0049B0499E61A3246D8F80030D8F85E
:104200000400984700283FF496AC4FF0FF3738463B
:104210000DB0BDE8F08F00BF7B8A2000628A2000CD
:10422000518A200010B50D4C236813B90C4A136055
:1042300010BDFEF72DFB2268D2E900310B441B1A9A
:1042400092681AB91844064B1860F1E7D2E90014D5
:104250002144091A8B4228BF0B46F1E7C80600200B
:10426000C4060020014800F04DBA00BF90040020B1
:104270002DE9F0410388054653B1592B46D18729D2
:1042800021D1002023490B6863B918B10B6001E00C
:10429000204A1360592301202B80BDE8F0810120C2
:1042A0003346F1E7D3E902649442F8D000B10B60E1
:1042B00019460B4689680029ECD0C8689042F8D1AD
:1042C00089689960F4E78229E4D14FF00008114F22
:1042D00000263C68002CDDD0204603F00DFD90B197
:1042E00022468821E06800F0CDF950B9A368E0606B
:1042F0002EB1B360C4F80880FFF794FFE8E73B6095
:10430000F8E7FFF7AFFF2646A468E3E70023038042
:104310000320C2E7C806002010B50446FFF7A2FF3D
:10432000E3680B4A0BB1136833B90A4B1B68E360AF
:1043300013681460A36004E0A34206D1054A126822
:10434000DA60BDE81040FFF76DBF9B68ECE700BF87
:10435000C806002050080020024B1868003818BF1B
:1043600001207047C806002010B50B4A04461368A8
:10437000834208D183681360FFF754FF0023C4E928
:10438000023310BD1346002BF8D09A68A242F9D12F
:10439000A2689A60F0E700BFC8060020F8B503885D
:1043A00005461646CBB14A2B2BD188291FD1174879
:1043B00003F0B3FC0446C4B1231D9E421FD1214625
:1043C000124803F0B4FC124E636937683360A36986
:1043D0000BB1E0699847376007E00C4803F09DFC9B
:1043E000044634B901220B4B1A704A232B8001205A
:1043F0000AE0A168201D03F067FC2468F1E7246847
:10440000D9E7002303800320F8BD00BFCC060020BD
:10441000500800203B21002010B50024054B064821
:104420001C7003F077FC2146BDE81040034800F003
:1044300051B900BF3B210020CC060020A004002081
:1044400070B50446E3610B4B049D1B78C4E905522B
:104450006BB1094D094B2E68201D2B6003F034FC15
:104460002E602146BDE87040054803F073BCA16092
:10447000F7E700BF3B21002050080020A0040020E7
:10448000CC06002013B5034C24680094FFF7D8FF36
:1044900002B010BD5008002010B5084B04461B7830
:1044A00043B10430FFF760FF2146BDE810400448E7
:1044B00003F03DBCC0E90333F6E700BF3B21002019
:1044C000CC06002038B5836804460D469BB10A48E7
:1044D00004600220A07304F10C0098470238012800
:1044E00001D9832D05D121462046BDE8384000F092
:1044F00005B80123A37338BD500800202DE9F84307
:104500001C4F04463D6888462B46A34204D00BB995
:10451000BDE8F8831B68F8E7002CF9D0164EA37BA2
:10452000D6F8009063B10023A3738DB9A3683BB1A3
:10453000444505D02A468321346004F10C00984795
:104540003B68A3420ED123683B60C6F80090DFE7CA
:10455000A54204D022468721284603F0BEFB2D68E1
:10456000E3E71346002BF0D01A68A242F9D1226883
:104570001A60EAE75408002050080020002238B5ED
:104580000125084B1A70084B1C6804B938BDE37B41
:104590002BB1002282212046E581FFF793FF24689A
:1045A000F3E700BF3F21002054080020024B187899
:1045B000421C1A70704700BF3D2100208A22064B22
:1045C0001A700023054A1370054A1370054A1360D8
:1045D000054A1360704700BF3D2100203C210020A8
:1045E0003E21002054080020500800202DE9F04111
:1045F0001A4E33780BB1FFF7C1FF194D2C7894B1E7
:104600000C221849184F0B78013C5A430133B81853
:1046100003F01F03BF5C0B702C70D0E9018090B9D0
:10462000124B1C6824B9337828781844BDE8F0810F
:1046300033780BB1FFF7A2FF20464246394603F01C
:104640004CFB2468EEE7812F08BF01234246394620
:1046500008BF837303F041FBE5E700BF3F21002063
:104660003E2100203C210020D006002054080020DC
:10467000024A034B10781B78184470473E210020F3
:104680003F210020F0B50B4D2C78202C0FD00C26AC
:10469000094B0A4F1B78234403F01F037343FE1892
:1046A000C6E9012000200134F9542C70F0BD01202E
:1046B000FCE700BF3E2100203C210020D006002066
:1046C00038B5034C256803F008FB256038BD00BFF2
:1046D0005008002010B40A4609490C68234683425A
:1046E0000CD04BB950B104600860012110BC81733B
:1046F00083818121FFF7E4BF1B68F0E710BC70479E
:104700005408002038B1837B013B012B9FBF01235C
:10471000014AC373137070473F21002002460846C8
:1047200010B5064953600C68029B106093600A60E4
:104730000CB9FEF7D7F8002010BD00BF58080020C4
:1047400010B5084C206858B100232360D0E901312E
:104750009847236823B1BDE810401868FEF7C2B837
:1047600010BD00BF5808002070B505880446672DAD
:1047700009D0792D2FD0002D33D1FFF717FF1B4B18
:1047800018701B4B1D601B4E194D08E00A282B6842
:104790000ED07E2B03DC5A1C2A60174AD0543046B8
:1047A00003F058FB431CF1D16723238001201BE059
:1047B0005A1C2A600025104A2846D5540B4B1978FC
:1047C000FFF760FF0D4B2A4685211868FFF75AFF57
:1047D00018B97923E9E78529E8D10022044B1A604A
:1047E000D1E700230380032070BD00BF41220020D9
:1047F0005C080020600800204021002050080020B4
:104800000D28014610B516D00C4C237853B90C482E
:1048100003F00DFB08B9012323700A48FFF772FF6C
:10482000012010BD0A28F8D1054803F000FB00283C
:10483000F3D00023F0E70020F3E700BFC021002001
:1048400060080020B004002008B505490548802212
:1048500003F0E6FABDE8084000210348FFF73ABF3D
:10486000C121002060080020B00400202DE9F041A3
:1048700005880446772D20D07E2D3DD0002D4ED1C9
:10488000FFF794FE284E294B294FDFF8A8801870B7
:104890003560336857F823202AB9274A13707723E5
:1048A000238001203EE008F8035093680021802017
:1048B0009847336801333360EBE700231F4A1360E6
:1048C000194A1360184B1C4A1B6812789A4204DC80
:1048D0001A4B1B68002BF0D1E1E7164AD256002A8A
:1048E00019DA134A002052F82320104B1978FFF7E9
:1048F000C9FE28B97E23D3E70C4B1B788B42D0D15D
:10490000094B0C491A688B5C03F07F038B540B4AEC
:10491000136801331360044A13680133D1E700239D
:1049200003800320BDE8F0816C08002043220020B2
:104930006804002031210020422200206808002065
:1049400010B40A4B0A4A197800238B4203DA52F852
:10495000044BA04208D107490748CA5C62F07F02B5
:10496000CA5410BCFFF7CEBE0133EEE7422200204E
:104970006804002031210020C0040020054B1A6883
:1049800042F004021A6058699B6940EA032080B231
:10499000704700BF00700D40184A136823F00C03E5
:1049A00013600122164BC3F8A820D3F8A820012ACF
:1049B000FBD10822134BC3F82426E322C3F838287E
:1049C000D3F86426D207FBD50E4810220023D0F876
:1049D0009C16013A01F0010143EA01034FEA430347
:1049E0009BB2F4D1002BF0D0044A190A03F0FE0365
:1049F00051615361EF23C0F83838704700700D40A3
:104A000000200D40008008400088064B40BA80B26C
:104A10008840995CC2F1080201EA20201041C0B22E
:104A2000704700BFD58A2000F8B506460A480D46F3
:104A3000174603F072F9044630B93A462946304623
:104A4000BDE8F84003F0A6BBA3680BB12846984721
:104A5000204603F09AF9EEE77008002038B500F020
:104A6000EFF80546094803F058F9044628B95DB146
:104A70002846BDE8384003F088BB636803B1984717
:104A8000204603F082F9F0E738BD00BF700800202F
:104A900010B5044600F0E2F838B100F0DFF9034B3E
:104AA000034821469B689847012010BD8C87200051
:104AB000294A200070B50B4C0023616E0A4A04F1AC
:104AC0003800FFF7DFFCFFF759FF656E0023B0FBEE
:104AD000F5F1064A01FB150104F11800BDE870402C
:104AE000FFF7D0BC74080020F14A2000094B2000D9
:104AF000044B5A6E196E5200914294BF59665A6621
:104B0000FFF7D8BF7408002010B500F037FA00F0A6
:104B1000C9F900230380044600F06EF82288930050
:104B200008B1017B51B9023398B200F07BF92388B8
:104B300073B1BDE81040074800F044B881882344B1
:104B40005980C18801329980228003F01EF9E5E77F
:104B500010BD00BF740800209DF80030012B04D167
:104B6000024B9A6D5A66FFF7A5BF70477408002084
:104B7000F8B50F4616461D46064C0146064A204625
:104B800000F00EF8C4E9167625660448BDE8F84042
:104B900000F02CB87408002020872000594B20001A
:104BA00070B505460C461646044A00F091F82046BA
:104BB0006E610349BDE8704003F0D7BA2887200032
:104BC000E38A200010B5044604491A2000F032FAA6
:104BD0002046BDE8104003F0D6BA00BF20210020D7
:104BE000014803F097B800BFE0080020014B1860AF
:104BF000704700BFE4080020014803F08EB800BFF2
:104C0000E00800202DE9F04105460C480C46164608
:104C100003F083F808B9BDE8F0818388A34209D185
:104C20008768002FF7D0334622462946BC46BDE8A8
:104C3000F041604703F0A9F8ECE700BFE00800206E
:104C4000054B10B51B689847044618B181880120B0
:104C500000F0E2F9204610BD0887200038B5064B69
:104C600005465B6898470446A988012000F0D4F9FE
:104C7000201E18BF012038BD08872000014B9B680B
:104C8000184700BF08872000014803F043B800BF61
:104C9000E808002081800146014803F05BB800BFAE
:104CA000E80800200146014803F041B8E808002068
:104CB00010B50446054803F030F800B910BD8388EC
:104CC000A342FBD003F061F8F7E700BFE80800203B
:104CD00070B505460C461646FFF7DCFF20462E61F0
:104CE0000249BDE8704003F040BA00BFE78A2000E7
:104CF00070B504461B200D4600F0A8F9064903F0E4
:104D000097FA38B1A3691B6823B129462046BDE84C
:104D10007040184770BD00BF2021002070B50546C7
:104D20000C461646044AFFF73BFF2046AE61034996
:104D3000BDE8704003F019BA30872000E98A2000EE
:104D400008B5044803F024F8BDE80840024803F021
:104D50001FB800BFDC040020D004002038B50E4886
:104D600003F026F8054650B10C4803F021F804463C
:104D7000286030B92946084803F02EF82546284611
:104D800038BD00F097F804F1B601A4F8800004F1F2
:104D9000820000F019F9F2E7D0040020DC040020C2
:104DA00010B501460446074803F02CF848B12168C5
:104DB000054803F011F82146BDE81040014803F012
:104DC0000BB810BDD0040020DC04002010B5014653
:104DD0000446094803F016F868B12468B4F8801056
:104DE000204600F0DBF804F1B60104F18200BDE8D2
:104DF000104000F0FDB810BDD004002010B50749E8
:104E00000B88834208DB064C80B222880244181AC1
:104E100008800120228010BD0020FCE7E020002057
:104E2000E2200020014B1880704700BFE0200020E6
:104E3000004870470C090020014B1888704700BFDC
:104E4000E0200020034A044B10781B881844C0B2AD
:104E5000704700BF54220020E22000202DE9F041DD
:104E60000C4E338873B100240B4B0C4FB3F8008009
:104E70000B4B1D783D4421B2414504F1010403DB95
:104E800000233380BDE8F081FFF7DCFF3844435C4A
:104E90006B54F0E7E2200020E02000200C09002005
:104EA0005422002008B5FFF7CDFF014B184408BD80
:104EB0000C090020F8B50C4B04461E780B4B1F88DC
:104EC000F519802D0DDC3246094902F0DDFBFFF7B4
:104ED000E9FF344401463A46204602F0D5FB284615
:104EE000F8BD0025FBE700BF54220020E020002091
:104EF0000C09002008B5FFF7A5FF024B1B881844DA
:104F000080B208BDE020002010B50146FFF7F2FF97
:104F10004318802B12DC431E094A1BB21A44481C5A
:104F2000002B05DA074B187801440120197010BDD9
:104F300012F80149013B14541BB2F1E70020F6E7D7
:104F40000C0900205422002070B5342200210848AA
:104F500002F010FC0024074D074E2846314601346C
:104F600003F063F9042C05F10205F6D170BD00BF12
:104F7000EC200020E4200020D28820000023044AF6
:104F80001380044A1380044A1370FFF7DDBF00BF8B
:104F9000E2200020E02000205422002038B50C46FA
:104FA0000546FFF7EBFF802C28BF802429462246C8
:104FB000034802F069FB034B20461C8038BD00BF4C
:104FC0000C090020E020002010B5074B03F134024B
:104FD00053F8044B934240F8044BF9D1034A136849
:104FE0000B6053684B6010BDEC200020E4200020D3
:104FF00010B5074B00F1340250F8044B904243F8CF
:10500000044BF9D10B68034A13604B68536010BD21
:10501000EC200020E4200020024B23F81010012097
:10502000704700BFEC200020014B33F810007047A0
:10503000EC20002008B5044B1A3803EB400003F0C5
:10504000F4F8012008BD00BFE4200020024B1A380C
:1050500003EB4000704700BFE420002001490248F4
:1050600003F0E6B8D2882000E6200020084B10B5F7
:105070001B689847074B5B689847074B5B689847E6
:10508000064B5B689847BDE81040054B5B681847C6
:1050900040862000608720008C8720004487200005
:1050A00014872000F8B5FDF7F3FB114D07460024E7
:1050B0002E461A20FFF7CAFF294603F0B9F880B13F
:1050C0000A20FFF7B1FF0C2303FB0464237A834219
:1050D0000CD16068381AB0F5206F8CBF0020012019
:1050E000F8BD0134102C05F10C05E2D10020F7E7E2
:1050F0008C09002070B5194D00242E461A20FFF7A8
:10510000A5FF294603F094F8013418B9102C05F1D5
:105110000C05F3D10C23621E03FB0464A4F10C05FF
:105120007AB90A20FFF780FF3072FDF7B1FB70609B
:105130001A20FFF78BFFBDE870400146074803F0D7
:1051400074B82B4654F8180C54F8141C013A03C3D5
:1051500054F8100C2C461860E0E700BF8C090020C2
:10516000014B1888704700BF540500202DE9F0411D
:10517000012906460F46144686B003DC002006B01F
:10518000BDE8F08103A903F093F90B4603CB1B881C
:10519000206123839DF811306161002B45D0B51C3F
:1051A00002AA01A903A803F04BF89DF81380B8F1F7
:1051B000000F4DD0029B2BB16A7815F8023B03EB30
:1051C00002239BB2B8F1020FA38332D120463149AA
:1051D00003F02BF86B78237015F8023B63709DF891
:1051E0001580B8F1000F4DD0019B002B37D06A78A5
:1051F00015F8023B03EB0223029A9BB2E38302B948
:10520000A383B8F1020F2DD1224904F1080003F065
:105210000CF86B78237215F8023B6372A81B3B1ADB
:105220008742C4E90E53A9DBA9E7B378F51CA3763E
:10523000B6E7B8F1030FD2D105F108021346611E9B
:1052400013F8010D9D4201F8010FF9D11546C6E78B
:105250002046104902F0E9FFA4F81C80BFE7A38BA9
:10526000E383CEE7B8F1030FD8D105F10802134666
:1052700004F1080113F8010DAB4201F8010BF9D15B
:105280001546CBE7034904F1080002F0CEFFA4F86D
:105290001E80C3E7D288200030B591B00546FFF7E5
:1052A0005FFF4FF6FF73984204D14FF0FF34204662
:1052B00011B030BD40220021684602F05BFA404B3D
:1052C0001A782AB901221A70FFF758FB3D4B187063
:1052D0001420FFF7A9FE8DF810001320FFF7A4FE9D
:1052E0008DF81200FFF7BAFE0446002848D00023CC
:1052F0008DF813308DF81530002301248DF814300B
:105300008DF818404DB10A20FFF78EFE00283FD0DF
:105310000A20FFF789FE8DF81A0002248DF8194043
:10532000FFF71EFFADF81C00FFF798FE00283CD0E9
:105330004FF6FF738DF81740ADF80030FFF710FF00
:10534000ADF81E001A20FFF781FE014602A802F008
:105350006CFFFFF7A7FD0E90FFF76EFD0F906846FC
:1053600003F018F80446002DA1D0FFF7CDFD00286A
:105370009BD0FFF75DFD0146684603F053F896E7C2
:105380000B20FFF751FE8DF815408DF81300B3E7A1
:105390000C4B1A7802B91C7019780A204A1C1A7032
:1053A0008DF81A10FFF738FEB7E71B20FFF74EFE07
:1053B0000146684602F039FF8DF81740BEE700BF8E
:1053C0005522002056220020014BDB68184700BF01
:1053D0008C872000014B5B69184700BF6087200065
:1053E000014B9B69184700BF60872000024BD869BA
:1053F00000B10047704700BF6087200070B590F88B
:1054000029400F4B042C214628BF04210124DB69CD
:105410008C4005469847012838BF0120013C444391
:1054200005D0FFF7ABFAB0FBF4F303FB14042B46F3
:10543000214605F10800034ABDE87040FFF722B895
:1054400060872000B95520002DE9F04106461B2059
:105450000F46FFF7FBFD494B05461A78484C22B929
:1054600001221A70FFF78AFA208023880BB90123E2
:10547000238021880A204B1C2380FFF7CDFD414863
:1054800002F04BFC0446002847D13F4802F090FC54
:105490000446002868D02946201D02F0C6FE0023DD
:1054A00004F12C00C4E90B30238502F033FC2146C3
:1054B000344802F04FFC206B02F060FC072853DCFC
:1054C000324802F075FC0546002841D0304802F011
:1054D0006FFCA860C0B3FFF741FC686080B309208F
:1054E000D5F80880FFF7A0FD08BB082388F808302E
:1054F0000D20C8E90067FFF797FD01282946206BBA
:105500001BD102F034FC206B02F007FC854233D142
:105510002046BDE8F041FFF771BF2946201D02F08B
:1055200087FE0028C7D1204602F02FFCAAE70920F9
:10553000FFF77AFD88F80800DAE702F00BFCE2E7F3
:10554000A968134802F048FC2946104802F044FCC0
:10555000206B02F013FC38B921460A4802F0E7FB41
:105560002146094802F038FC39463046BDE8F04192
:105570000123042202F0BCBFBDE8F08157220020C5
:1055800022210020AC0A0020F404002000050020A5
:10559000E804002008B5054802F0FAFB044802F0D0
:1055A000F7FBBDE80840034802F0F2BB000500200D
:1055B000E8040020F404002013B5044668B1006B31
:1055C00002F0ABFB024640B12146054B0548DB68C3
:1055D000019302B0BDE81040184702B010BD00BFF3
:1055E00060872000655620002DE9F0470D461446DF
:1055F0008B680646D3E90078106B92F8289002F089
:1056000096FB6868FFF7CCFBA968124802F0E4FB40
:105610002946114802F0E0FB206B02F07EFB60B1EE
:10562000002320462385FFF7E9FE4B4632464146DC
:105630003846BDE8F04702F05BBF04F10800FEF712
:105640002BFF2146054802F072FB2146044802F078
:10565000C3FBEAE7E804002000050020AC0A0020B4
:10566000F40400202DE9F0410E461746044620B10F
:10567000006B02F052FB054608B9BDE8F0810A2133
:10568000686802F0CCFD80460A20FFF7CDFC80451B
:1056900046D0284602F079FBEDE794F82820002058
:1056A0003A4484F828202946224684F82900BDE897
:1056B000F041FFF799BF002384F8293094F828308F
:1056C000DA19D2B284F828200B7A93421CD82246E9
:1056D00029460220EBE794F82930DA19D2B2052ADC
:1056E00084F8292007D9002294F8283084F829204A
:1056F000013384F8283094F828200B7A9A4203D397
:10570000224629460120D2E72046FFF777FE686847
:10571000BDE8F04102F06FBD224629463046C6E79B
:10572000A9680029A9D0032EF6D801A353F826F0C2
:105730009B562000D7562000B75620007B562000ED
:1057400013B50024094B1C70094B1C80FDF7BCF8F5
:10575000012200F58051074B00940748FEF7DEFF59
:105760000122064B1A7002B010BD00BF6F2200204C
:10577000242100208D5B20009C0B00206A22002049
:10578000074B82B01B784BB1064B1A7832B9012215
:105790001A70054B1B6A019302B0184702B070479C
:1057A0006A2200206F22002040862000094B82B030
:1057B0001B786BB1084B1A7852B1084A127802F084
:1057C000FF012AB91970064B5B6A019302B01847B2
:1057D00002B070476A2200206F2200206B22002056
:1057E0004086200008B5FFF7E1FF0022014B1A6058
:1057F00008BD00BFAC0B0020044B1B7823B9044B41
:105800001B680BB9FFF7D2BF704700BF71220020A1
:10581000AC0B00200022094B82B01A70084BC2B2B8
:105820001A70084A084B28B101211B6A11700193B4
:1058300002B018475B6A1070F9E700BF6A220020C7
:105840006B2200206F2200204086200037B50B4BD2
:105850001A7802F0FF056AB901241C70084B1D700C
:10586000FDF732F8224600F58051064B06480095B8
:10587000FEF754FF012003B030BD00BF6A220020B4
:105880006B2200208D5B20009C0B002037B50B4B5A
:1058900005461B780C4673B1FDF716F8231A022B48
:1058A0004FF0000348BF841C009301222146284684
:1058B000034BFEF733FF03B030BD00BF6A22002068
:1058C0008D5B200013B5224C23680BB9FFF76EFFE8
:1058D000FFF7B2FA032823D0FFF70CFB00B31D4BF0
:1058E0009B68984700281BDBFFF7A6FAC0B1FFF7BB
:1058F00001FBA8B11B20FFF7A9FB174902F098FC98
:1059000050B11320FFF790FB206058B9FFF74EFF0E
:105910001248FEF7C1FD0DE0FFF7A0FB0028F0D113
:1059200002B010BDFFF72CFF002304210C4A0B48E6
:10593000FEF7A8FDFFF7B6FB0028F1D1FFF7DAFB71
:10594000084BDB68019302B0BDE81040184700BF68
:10595000AC0B00208087200020210020780B002045
:10596000E5572000448720002DE9F04F89B07049A9
:1059700003901A20FFF75EFBFFF770FB04460C2034
:10598000FFF752FBA8B1FFF7B5FA80464FF00109C7
:10599000684D6E68FFF74CFA4146B047664EAB69FA
:1059A00086F800900093984770B10023337001246B
:1059B000A1E001210B20FFF72FFB604B5B689847AC
:1059C0000028E0DA052496E0EB6901939847002867
:1059D000EBD15B4FFFF7EAFE3B7887F80090DBB234
:1059E0000293039B7BBB4FF006096FF0030A6FF035
:1059F0000F0BFCF769FF0490FFF7C2FE0498AAEBB7
:105A000000030493FCF760FF049BC342F9D46B6965
:105A1000984748B90090FFF7C9FE00983070FFF72B
:105A2000C5FE029B3B70C2E7FFF7C0FEFCF74CFFD0
:105A3000ABEB00030493FCF747FF049BC342F9D48C
:105A4000B9F10109D5D10CB9FFF79AFE0A20FFF789
:105A5000EBFAC3B20493FDF7A9F8FCF735FF8146D2
:105A6000DFF8E0B0ABEB000BDFF8DCA0AAEB090A33
:105A7000FCF72AFF1AEB000F49D5FDF797F8002C29
:105A80003DD0AB6840469847FCF71EFF6FF00C0313
:105A90001B1A0593FCF718FF059BC342F9D4002C91
:105AA000E6D1009B9847002835D0FCF70DFF6FF03A
:105AB0001408A8EB0008FCF707FF18EB000FFAD456
:105AC00003212B6907A8984703282DD19DF81E3084
:105AD000049A934228D100254FF00108FFF766FE93
:105AE000029B3B7000233370002D7FF460AFECB954
:105AF000984508BF0224204609B0BDE8F08F039BFB
:105B0000002BBED0FCF7E0FE1BEB000FB9D4002544
:105B10004FF00008E2E7019B98470028C5D16B6968
:105B200098470028A0D1C0E70125F1E72C46E2E71D
:105B30002021002040862000712200208087200044
:105B40006A220020DEFDFFFFB0EFFFFF70B50D4BB6
:105B500004461B780D4653B90B4B1B783BB9052205
:105B600029462046BDE87040012302F0C1BCFFF782
:105B7000C1F90028F3D00020FFF7F6FE0328024603
:105B8000EED170BD6A2200206B22002040F2E312A9
:105B90002DE9F3476E4E0446338893423AD0B3F56D
:105BA000F27F08D2002B00F0888040F2B1129342BD
:105BB0000BD0002391E040F202229342F9D100235E
:105BC000644A1370644A137007E0634A1378013320
:105BD000DBB2012B137000F28480604B1A78002A2C
:105BE00072D15F4A1268002A6ED11B780BB9FFF799
:105BF000C7FD5C4B5B699847002863D10122554B78
:105C00001A70FCF761FE584B584A18600023137055
:105C1000574A1370514BDFF85C811B7803F0FF0586
:105C2000002B7BD198F80030002B77D0FCF74CFE8E
:105C30006FF4CC724C4B1B68C01A104400286DDA0C
:105C4000DFF82091494FD9F81430984710B13D78CA
:105C50000135EDB23D70464DD9F818A02B780133CF
:105C60002B70D047002854D000233B702B78D9F8F4
:105C70001C700A2B04D9D04710B9B84700284BD064
:105C8000B84700284AD13C4B1B789BB12568FCF7EC
:105C90001BFE2B1A13F1120F4FF0000348BF811C9B
:105CA00000934FF001022046344B58BF05F1140118
:105CB000FEF734FD40F2E3130FE0FCF705FE304B36
:105CC00018607CE7FFF798FDFCF7FEFD00F110017E
:105CD0002046FFF7DBFD40F2B113338002B0BDE890
:105CE000F0871C4B1B78002B8BD1254D2B6803F5BF
:105CF00080532B60FCF7E8FD2B68C3F1A003C3427F
:105D00007FF55DAF20462968FFF7C0FD40F2022312
:105D1000E3E73B78052BA9D9FFF76EFD98F8003033
:105D2000002BE2D00F4DAB69984760B1FCF7CCFD7A
:105D30000D4B1B68C01A6FF4CC7318440028D4DBD9
:105D4000FFF75AFDD1E7EB6998470028EED1F7E756
:105D5000242100206D2200206C22002071220020CE
:105D6000AC0B002040862000A80B002070220020F1
:105D70006E2200206F2200206A2200208D5B20000E
:105D8000980B00202DE9F14F06460F461446002AD5
:105D900071D03A4BD3F800B0BBF1000F0BD0506874
:105DA000FFF714F801231A463946304601B0BDE822
:105DB000F04F02F09DBB1546DFF8C490DFF8C4A099
:105DC000284601F0E2FFA8460546D8F80400FEF791
:105DD000FDFF0C20FFF728F9E0B91DB101211320C8
:105DE000FFF71AF949461A20FFF724F901210B2081
:105DF000FFF712F9DAF804309847002802DA012395
:105E00000522D1E701210C20FFF706F9D8F804009C
:105E100002F0F7F9002DD3D1DFF86C90DFF86CA019
:105E2000204601F0B2FF254604466868FEF7CEFF23
:105E30001320FFF7F9F899F8003080468BB99AF8EB
:105E4000003073B9052501232A463946304602F051
:105E50004FFB85B97CB14FF0010BB8F1000FDFD1DA
:105E600009E0FFF747F80028ECD05846FFF77CFD23
:105E700003280546E7D101B0BDE8F08FAC0B002048
:105E800020210020808720006A2200206B22002031
:105E900008B5024B1B689847023008BD38872000C0
:105EA00038B50C4B9B689847041E02DA4FF0FF3060
:105EB00038BDFEF7F7FF03780546002BF6D1022028
:105EC000FEF79CFF0028F1D06878FEF7ABFFA01C1E
:105ED000EEE700BF3887200070B50220FFF714F806
:105EE00010B94FF0FF3070BDFEF7A2FF002606701C
:105EF0000446FEF7A1FF6070FEF7FCFF0446FFF7C3
:105F0000C7FF20442A2812DCC0F12B00C4B2FEF7E0
:105F1000C9FF0546FEF790FF22463146284401F0AE
:105F200029FCFEF789FF204480B2FEF77BFF044B7B
:105F30005B689847041ED4DBFEF790FFA01CD2E7F5
:105F400038872000014B9B68184700BF148720004A
:105F500070B504460D4614200121FFF75DF8034B90
:105F600029462046BDE870409B68184744872000BA
:105F7000832938B504460BD1194802F015F91948A0
:105F800002F012F9184802F0ECF8184802F00CF987
:105F9000258805BB164801F034FE4FF48072154B7E
:105FA00011211A8032225A6040F2E7320D481A82DB
:105FB000114A9D60FEF7B2FE1021104A0848FEF714
:105FC000ADFE0F210E4A0848FEF7EAFD12210D4AE8
:105FD0000648FEF7A3FE00230320238038BD00BF40
:105FE000241100204C0C002050110020C00B002078
:105FF000078B20007C110020B8872000C08720007C
:10600000C88720009C8720002DE9F041174801F047
:10601000F8FD1748FEF74EFF15491648FDF730FD0D
:106020001549134800F0D2FED0B1144CFEF7A6FF7C
:106030000A250027A046104E226833689A4207D1ED
:10604000627973799A4203D14046676700F0E6FDB2
:10605000013D04F17804EFD1BDE8F041FEF78EBFB9
:1060600003490748FDF70CFDF6E700BF2B8B200026
:1060700072220020498B2000B80B0020401600201F
:106080005B8B2000F0B5002304460D46154E164FDD
:1060900085B016483370717001F0B3FD3946204663
:1060A00000F022FE39461248FDF7EAFCFEF766FFD3
:1060B00027213846FEF772FF31460E4802F076F887
:1060C00071780D48FDF7DCFCA36861792A46CDE9BB
:1060D0000113E379094800932368FDF7D1FC05B06B
:1060E000F0BD00BF2A210020EB220020768B20008B
:1060F000958B200024110020AC8B2000C38B200046
:106100002DE9F041002304460D46114E114F12486F
:106110003370717001F075FD3946204600F0A4FD22
:1061200039460E48FDF7ACFCFEF728FF5B213846E8
:10613000FEF734FF31460A4802F038F82B46E27980
:1061400004F108010748BDE8F041FDF799BC00BF24
:1061500026210020122300200B8C2000298C2000F7
:106160004C0C00203F8C2000F7B52D480D462D4CDF
:1061700001F047FD2C48FEF79DFE2B492B48FDF70B
:106180007FFC2146284800F051FEF8B1FEF7F6FEEC
:106190006379226800936978E3792548FDF770FCFC
:1061A000244BE0795B78834215D123482368036050
:1061B000A3888380E388C3800023836040F2E733B1
:1061C00083816978FFF75EFFFEF7D8FE03B0BDE874
:1061D000F040FEF7D3BE312221686679174BDF68A5
:1061E00047B11F688F4205D15F79B74202D1DF798D
:1061F000874210D0013A03F11403F0D1104AA3886A
:1062000011609380E3888521D3806B780D485372A9
:10621000FEF738FAD8E70C4801F0F3FCD4E700BFEA
:10622000608C2000401100209B050020828C200003
:10623000988C20002021002014110020000D002047
:106240006811002040050020D18C20002DE9FF417D
:1062500047480E46474C01F0D4FC4748FEF72AFE5B
:1062600045494648FDF70CFC2146434800F016FE20
:1062700020B904B0BDE8F041FEF780BEB4F90C309F
:106280003F480293A368019363790093E3792268FE
:106290007178FDF7F5FB0420FEF7C6FE05B229462E
:1062A0003848FDF7EDFB85EAE573A168A3EBE573DC
:1062B000B4F90C501BB201FB05334D1C93FBF5F3F5
:1062C000314A1BB2B2F91000A3819842D1DD51606E
:1062D00071781426D17001211382E088C2E9021678
:1062E0001369108000930FCA00F046FC274B6179B8
:1062F0005B78274F8B4216D13122002521686079C7
:10630000234BE479DE684EB11E688E4206D15E7979
:10631000864203D1DE79A64208BFDD60013A03F16F
:106320001403EFD1A5E71B48FDF7AAFBA3681A4D9C
:106330000133A3600023DFF864802B602B68302BCF
:10634000DADC7343FA18D16871B1F95823689942BD
:106350000AD12046517AFFF795FE2B68404606FB8E
:106360000373597AFDF78CFB2B6801332B60E5E74B
:10637000F08C20000411002073050020108D2000F7
:10638000248D2000688D20007C1100202021002019
:10639000000D0020718D2000FC100020A48D200035
:1063A00070B5324886B00E46314C01F02AFC3148B7
:1063B000FEF780FD2F493048FDF762FB21462D484E
:1063C00000F0A6FC00284DD0FEF7D8FDFEF7D6FD64
:1063D0002A4BE2795B789A423ED194F8683028489B
:1063E000049394F8673004F10802039394F866303C
:1063F000029394F86530019394F86430009394F814
:1064000063306179FDF73CFB23681E4D1E482B600D
:10641000A3881E4CAB80002376782370667001F051
:10642000F0FB28461A4900F045FC19491948FDF7C8
:1064300027FBFEF7A3FD0F211548FEF7AFFD214610
:10644000154801F0B3FE31461448FDF719FB06B0BC
:10645000BDE87040FEF792BD224685211048FEF748
:1064600011F9D1E703490F48EFE700BFB98D2000CC
:10647000DC0B002081220020D88D2000202100206C
:10648000EB8D2000B00B00202A8E20002821002058
:10649000DC220020478E2000C00B00205C8E2000F4
:1064A0001C0500206F8E200070B503880646144638
:1064B000002B41D0E22B4CD1284B1B788B4240D093
:1064C0000320FBF7CDFF264D2368264A2B60A388C7
:1064D0001146AB80E388EB800023D068002832D1DE
:1064E000142253432068CA18C850A38801219380FE
:1064F000E388D380238913810523C2E90313194854
:1065000000F00EFB184801F07CFB1849144800F01D
:10651000DBFB16491648FDF7B3FAFEF72FFD1A21EB
:106520001248FEF73BFD1348FEF74CFB6B792A68D7
:10653000E9791148FDF7A4FA0320FBF799FFE2235C
:106540003380012008E00133312B02F11402C4D161
:10655000D5E700230380032070BD00BF4322002045
:1065600048110020000D00208B8E200058050020CF
:10657000AC8E200050110020C58E2000F8B51A4BBB
:1065800005461A460A241E4641795079884206D1AA
:1065900017682868874202D1506F012823D0013C38
:1065A00002F17802F1D15A6F9AB9104801F029FB33
:1065B000782303FB046470222946204601F064F826
:1065C00001230522C4E91C230748BDE8F84000F078
:1065D000FFBA01340A2C03F17803E4D1BDE8F84096
:1065E000034801F00EBBF8BD90110020FA8E200088
:1065F0001F8F2000F8B5184B05461A460A241E4680
:1066000041795079884206D117682868874202D1BB
:10661000506F012814D0013C02F17802F1D15A6F79
:106620007AB90E4801F0EDFA782303FB0464702276
:106630002946204601F028F803220123C4E91C233F
:10664000F8BD01340A2C03F17803E8D1BDE8F84025
:10665000034801F0D6BA00BF40160020488F200042
:10666000698F20002DE9F043038806460C46154645
:1066700085B0002B7ED07A2B40F00D81894B1B78A2
:106680008B4200F08B800220FBF7EAFE882C864FBD
:10669000864C40F085807B78012B00F08180844817
:1066A00001F0AFFA4FF48073824DE3802B68012034
:1066B00023603B88DFF80092A380804B5B6898479B
:1066C00024218046D9F8083080209847D9F8043032
:1066D00004209847C0F307134FF47A70584300130F
:1066E00000F09CFD764900F02BFC764900F0E2FCBE
:1066F00000F0E8FDB0F57A7F03467349A8BF4FF478
:106700007A73424604F10800FDF7CAF90023E366F4
:106710006E4B40F2553184F869307B786C4884F8D0
:1067200063302B68622BCCBF012301332B6001F057
:10673000CBFA7B78012B2CD0664B674D9A68002AE8
:1067400040F090802A60E1796448FDF799F9574854
:10675000FFF714FF624A23683978E08813607B787A
:106760001171D08011725371852153725D48FDF70C
:1067700089FF0EE0FEF702F91421B0FBF1F303FBF1
:106780001101032089B2B1FBF0F15148C90101F0B8
:106790009BFA0220FBF76CFE7A23338001207DE018
:1067A000514801F02EFAAB7905F10801A371EB799C
:1067B0004E48E3712B6823602B7923716B796371E9
:1067C00001F02AF8D5F86C90494809F101084146D2
:1067D000C4F86C80FDF754F995F868304548029389
:1067E00095F86730A144019395F86630009395F8C9
:1067F000653095F8642095F86310FDF741F995F838
:1068000063303D4884F8633095F8643084F8643030
:1068100095F8653084F8653095F8663084F8663010
:1068200095F8673084F8673095F8683084F86830F8
:1068300099F863207B789A421CBFA04488F86330A3
:1068400094F86830029394F86730019394F86630B6
:10685000009394F8653094F8642094F86310FDF781
:106860000FF966E7DB782B60002B3FF46CAF234811
:1068700001F0C7F91D492248FDF702F96279216844
:106880002048FDF7FDF829680848FFF739FC07485C
:10689000FFF7B0FE7DE700230380032005B0BDE8CD
:1068A000F08300BF4322002020210020680C00203C
:1068B000968F20002C050020B8852000E886200057
:1068C0004BEACC3F75132542A98F2000C78F2000CB
:1068D000D41000207C11002000110020B690200070
:1068E000EC0C002040050020CE8F2000700C002012
:1068F000E18F200005902000329020005990200068
:106900007A9020008F9020002DE9F34703880746F6
:10691000002B66D040F20512934240F0DE80724BAD
:106920001B788B4268D00120FBF7A2FD00236F4C3F
:106930006F4E2360F368002B21DDD6F80880B8F194
:10694000010F1CD1013BF360CBB94FF6FF7272808F
:106950003222C6E9012340F2E73371786548338279
:10696000FDF78EF84046FBF77BFD2368013323607B
:106970002BB13369009396E80F0000F0FDF8002377
:106980004FF014095C4DDFF87481DFF874A12360C7
:106990002B602A68302A31DD236813B1574800F094
:1069A000BFF800234FF07809DFF8588123602B608F
:1069B0002B68092B3EDD236813B1524800F008F91B
:1069C0000023514EDFF84481DFF844A123602B609F
:1069D0002B68092B50DD236833B14B4800F01EF9BA
:1069E00002E00120FBF744FD4FF4C071494801F07B
:1069F0006BF940F205133B80012071E009FB02F2C4
:106A000008EB02010B69002B10DDC86801280DD1CD
:106A1000013B0B6153B9CB60504658F80230CA793C
:106A20004979FDF72DF82368013323602B68013382
:106A30002B60AEE709FB0380426F7AB1B2688AB17E
:106A4000F17879B1FFF75CFB0023286809FB00802F
:106A50004367FFF7CFFD2368013323602B680133C1
:106A60002B60A5E709FB03831A6F013A002A1A6716
:106A7000F4DA00225A67EEE74FF0780909FB036366
:106A80005A6F32B31A6F013A002A1A6721DA0022CC
:106A9000D9795A67504698F80120FCF7F1FF2B6826
:106AA0001D4A09FB03F956F8093006EB0900C088B6
:106AB00098F80010136098F8013011715371D0806C
:106AC0001172537285211548FDF7DCFD23680133EF
:106AD00023602B6801332B607AE7002303800320B7
:106AE00002B0BDE8F08700BF43220020F410002070
:106AF0007C110020D9902000F8100020000D00200B
:106B0000F39020009011002040160020202100204A
:106B10001F912000E4100020D80C00204005002028
:106B2000F7B504461148FCF7ABFF0025104F04F5FC
:106B30007576E36853B12169E37962790191617AED
:106B4000384600912168FCF79BFF01351434B442AC
:106B5000EFD12DB9074803B0BDE8F04001F051B8BE
:106B60000A2003B0BDE8F04001F032B8F9912000EE
:106B7000099220003792200084B007B50DF1100C67
:106B80008CE80F000F48FCF77BFF069B33B90E48DB
:106B900003B05DF804EB04B001F033B8BDF9203068
:106BA0009DF813200193079B9DF81110009307484F
:106BB000059BFCF765FF0A2003B05DF804EB04B009
:106BC00001F006B842922000509220005A92200014
:106BD000F8B504460E48FCF753FF00250D4F04F5A9
:106BE0009666636F33B13846236FE2796179FCF7BB
:106BF00047FF01357834B442F3D125B9BDE8F840F8
:106C0000054800F0FEBF0A20BDE8F84000F0E0BFF4
:106C10008B9220009992200037922000F8B504460C
:106C20000E48FCF72DFF00250D4F04F59666636FA7
:106C300033B13846236FE2796179FCF721FF0135E2
:106C40007834B442F3D125B9BDE8F840054800F0E6
:106C5000D8BF0A20BDE8F84000F0BABFB6922000C5
:106C60009992200037922000024600B592F86830D1
:106C700089B0079392F867300846069392F8663019
:106C80000B49059392F86530049392F864300393AE
:106C900092F86330029302F108030193D3790093D1
:106CA00053791268FCF7FCFE09B05DF804FB00BFE5
:106CB000C892200002460846537902491268FCF740
:106CC000EFBE00BF0E93200007B50246D3790846F9
:106CD0000093537903491268FCF7E2FE03B05DF8B4
:106CE00004FB00BF219320001FB50246B2F90C300F
:106CF00008460293936805490193D3790093537929
:106D00001268FCF7CDFE05B05DF804FB419320004E
:106D100038B5044626480D4600F073FF042220468D
:106D2000244900F0D7FD00283CD1234800F069FF3A
:106D30002248237A0370637A437000F06DFC286068
:106D4000E37B1F48037000F067FC6871A37D1D485A
:106D5000037000F061FC2022E87194F84730A1181C
:106D6000303B85F8633094F8493005F10800303B3A
:106D700085F8643094F84B30303B85F8653094F8F2
:106D80004D30303B85F8663094F84F30303B85F815
:106D9000673094F85130303B85F8683000F0D8FD0A
:106DA000012038BD084800F02CFF0020F9E700BFA3
:106DB000709320008C93200091932000BE0500204A
:106DC000CE050020B60500209A93200038B5044671
:106DD00010480D4600F015FF032220460E4900F032
:106DE00079FD90B90D4800F00CFF0D48E379037070
:106DF000237A437000F010FC2860A37B09480370DD
:106E000000F00AFC6871012038BD074800F0F9FE67
:106E10000020F9E7A4932000BF932000C393200033
:106E2000C7050020D4050020CB93200038B50446C8
:106E300013480D4600F0E5FE07222046114900F0F8
:106E400049FDC0B9104800F0DCFE1048E37A037039
:106E5000237B437000F0E0FB2860A37C0C480370A8
:106E600000F0DAFB6871637E0A48037000F0D4FB1F
:106E7000E871012038BD084800F0C3FE0020F9E7A2
:106E8000D4932000EF932000F7932000C405002046
:106E9000D2050020BA0500200394200070B50446F6
:106EA0001E480D4600F0ADFE052220461C4900F0AC
:106EB00011FD064660BB1B4800F0A3FE1A48637A2A
:106EC0000370A37A437000F0A7FB2860237C174867
:106ED0002E71037000F0A0FB6871E37D144803700D
:106EE00000F09AFBE871637F1248037000F094FB96
:106EF000A86094F824301048037094F8253043704B
:106F000094F82630837000F087FBA881012070BDC3
:106F10000A4800F076FE0020F9E700BF1094200038
:106F20002B94200031942000C1050020D0050020C2
:106F3000B8050020BC050020CA0500203B942000B5
:106F40004FF0FF0C1CEAD0521EBF1CEAD15392EA4C
:106F50000C0F93EA0C0F6FD01A4480EA010C400228
:106F600018BF5FEA41211ED04FF0006343EA501082
:106F700043EA5111A0FB01310CF00040B1F5000FC4
:106F80003EBF490041EAD3715B0040EA010062F173
:106F90007F02FD2A1DD8B3F1004F40EBC25008BF5D
:106FA00020F00100704790F0000F0CF0004C08BF7B
:106FB00049024CEA502040EA51207F3AC2BFD2F148
:106FC000FF0340EAC250704740F400004FF0000356
:106FD000013A5DDC12F1190FDCBF00F00040704790
:106FE000C2F10002410021FA02F1C2F1200200FACE
:106FF00002FC5FEA310040F1000053EA4C0308BF95
:1070000020EADC70704792F0000F00F0004C02BFE5
:10701000400010F4000F013AF9D040EA0C0093F060
:10702000000F01F0004C02BF490011F4000F013BBA
:10703000F9D041EA0C018FE70CEAD15392EA0C0F28
:1070400018BF93EA0C0F0AD030F0004C18BF31F093
:10705000004CD8D180EA010000F00040704790F069
:10706000000F17BF90F0004F084691F0000F91F00D
:10707000004F14D092EA0C0F01D142020FD193EAD3
:107080000C0F03D14B0218BF084608D180EA01005B
:1070900000F0004040F0FE4040F40000704740F037
:1070A000FE4040F44000704780F0004002E000BF26
:1070B00081F0004142001FBF5FEA410392EA030FE3
:1070C0007FEA226C7FEA236C6AD04FEA1262D2EB2D
:1070D0001363C1BFD218414048404140B8BF5B4232
:1070E000192B88BF704710F0004F40F4000020F0CB
:1070F0007F4018BF404211F0004F41F4000121F0E1
:107100007F4118BF494292EA030F3FD0A2F101022A
:1071100041FA03FC10EB0C00C3F1200301FA03F168
:1071200000F0004302D5494260EB4000B0F5000F8B
:1071300013D3B0F1807F06D340084FEA310102F14A
:107140000102FE2A51D2B1F1004F40EBC25008BFFC
:1071500020F0010040EA03007047490040EB0000C6
:10716000013A28BFB0F5000FEDD2B0FA80FCACF1C7
:10717000080CB2EB0C0200FA0CF0AABF00EBC250F4
:1071800052421843BCBFD0401843704792F0000FE2
:1071900081F4000106BF80F400000132013BB5E735
:1071A0004FEA41037FEA226C18BF7FEA236C21D0AB
:1071B00092EA030F04D092F0000F08BF0846704710
:1071C00090EA010F1CBF0020704712F07F4F04D1DE
:1071D000400028BF40F00040704712F100723CBFF1
:1071E00000F50000704700F0004343F0FE4040F41B
:1071F000000070477FEA226216BF08467FEA2363D9
:107200000146420206BF5FEA412390EA010F40F4C3
:10721000800070474FF0000304E000BF10F000430F
:1072200048BF40425FEA000C08BF704743F09643F6
:1072300001464FF000001CE050EA010208BF704711
:107240004FF000030AE000BF50EA010208BF704798
:1072500011F0004302D5404261EB41015FEA010CAD
:1072600002BF84460146002043F0B64308BFA3F1A5
:107270008053A3F50003BCFA8CF2083AA3EBC25387
:1072800010DB01FA02FC634400FA02FCC2F12002A6
:10729000BCF1004F20FA02F243EB020008BF20F0DD
:1072A0000100704702F1200201FA02FCC2F1200243
:1072B00050EA4C0021FA02F243EB020008BF20EA38
:1072C000DC7070474FEA4002B2F1FE4F0FD34FF02F
:1072D0009E03B3EB12620DD94FEA002343F0004343
:1072E00010F0004F23FA02F018BF404270474FF0F1
:1072F0000000704712F1610F01D1420205D110F078
:10730000004008BF6FF0004070474FF0000070472A
:1073100053B94AB9002908BF00281CBF4FF0FF31FC
:107320004FF0FF3000F076B9ADF1080C6DE904CEF6
:1073300000F006F8DDF804E0DDE9022304B0704750
:107340002DE9F047089E0D4604468846002B4DD196
:107350008A42944668D9B2FA82F252B101FA02F333
:10736000C2F1200120FA01F10CFA02FC41EA030803
:1073700094404FEA1C41B8FBF1F71FFA8CFE01FB69
:10738000178807FB0EF0230C43EA084398420AD9FA
:107390001CEB030307F1FF3580F01E81984240F299
:1073A0001B81023F63441B1AB3FBF1F001FB103356
:1073B00000FB0EFEA4B244EA0344A6450AD91CEB26
:1073C000040400F1FF3380F00981A64540F20681F4
:1073D000644402380021A4EB0E0440EA07401EB1C9
:1073E0000023D440C6E90043BDE8F0878B4208D9AA
:1073F000002E00F0EE800021C6E900050846BDE839
:10740000F087B3FA83F100294AD1AB4202D382421A
:1074100000F2FC80841A65EB030301209846002EDD
:10742000E2D0C6E90048DFE702B9FFDEB2FA82F235
:10743000002A40F09180A1EB0C0001214FEA1C478B
:107440001FFA8CFEB0FBF7F307FB1300250C45EA8F
:1074500000450EFB03F0A84208D91CEB050503F11B
:10746000FF3802D2A84200F2CE8043462D1AB5FB67
:10747000F7F007FB10550EFB00FEA4B244EA0544EA
:10748000A64508D91CEB040400F1FF3502D2A6453D
:1074900000F2B6802846A4EB0E0440EA03409EE7C3
:1074A000C1F120078B4022FA07FC4CEA030C25FAB5
:1074B00007FA4FEA1C49BAFBF9F820FA07F309FB6F
:1074C00018AA8D401FFA8CFE1D4300FA01F308FB39
:1074D0000EF02C0C44EA0A44A04202FA01F20BD945
:1074E0001CEB040408F1FF3A80F08880A04240F2CF
:1074F0008580A8F102086444241AB4FBF9F009FB62
:10750000104400FB0EFEADB245EA0444A64508D97E
:107510001CEB040400F1FF356CD2A6456AD9023891
:10752000644440EA0840A0FB0295A4EB0E04AC4280
:10753000C846AE4656D353D0002E69D0B3EB0802EE
:1075400064EB0E0422FA01F304FA07F71F43CC4060
:10755000C6E90074002147E70CFA02FCC2F12001E1
:1075600025FA01F34FEA1C4720FA01F195400D433B
:10757000B3FBF7F107FB11331FFA8CFE280C40EA2E
:10758000034001FB0EF3834204FA02F408D91CEB1A
:10759000000001F1FF382FD283422DD90239604417
:1075A000C01AB0FBF7F307FB1300ADB245EA004584
:1075B00003FB0EF0A84208D91CEB050503F1FF38C8
:1075C00016D2A84214D9023B6544281A43EA014165
:1075D00038E73146304607E72F46E4E61846F9E635
:1075E0004B45A9D2B9EB020865EB0C0E0138A3E7B5
:1075F0004346EAE7284694E74146D1E7D0467BE791
:107600006444023847E7023B65442FE7084606E733
:107610003146E9E6704700BF0A22002100F05CBA5B
:10762000032A10B516D940EA010C1CF0030F0446DA
:107630000B4622D119462046D1F800E0D0F800C010
:107640000433F44504F1040417D1043A032A204614
:107650001946EFD8541EA2B100F1FF3C013901E0F8
:10766000C3180CD01CF801EF11F8012FA4EB0C0388
:107670009645F5D0AEEB020010BD541EECE718465F
:1076800010BD104610BD00BF844641EA000313F050
:10769000030349D1403A23D30B6803604B6843602E
:1076A0008B688360CB68C3600B6903614B6943617E
:1076B0008B698361CB69C3610B6A03624B6A436266
:1076C0008B6A8362CB6AC3620B6B03634B6B43634E
:1076D0008B6B8363CB6BC36340304031403ADBD26A
:1076E00030320BD30B6803604B6843608B68836058
:1076F000CB68C36010301031103AF3D20C3205D38E
:1077000051F8043B40F8043B043AF9D2043208D063
:10771000D2071CBF11F8013B00F8013B01D30B88D5
:1077200003806046704700BF082A13D38B07B1D08F
:1077300010F00303AED0C3F10403D21ADB071CBF61
:1077400011F8013B00F8013BA4D331F8023B20F8CB
:10775000023B9FE7043AD9D3013A11F8013B00F804
:10776000013BF9D20B7803704B7843708B788370B0
:1077700060467047830730B548D0541E002A3FD07A
:107780000346CAB201E0013C3AD303F8012B9D073E
:10779000F9D1032C2DD9CDB245EA05250F2C45EAA8
:1077A000054536D9A4F1100222F00F0C03F1200E8A
:1077B000E6444FEA121C03F1100242E9045542E983
:1077C000025510327245F8D10CF1010214F00C0F81
:1077D00003EB021204F00F0C13D0ACF1040323F0FE
:1077E00003030433134442F8045B9342FBD10CF0CF
:1077F00003042CB1CAB21C4403F8012B9C42FBD1F8
:1078000030BD64461346002CF4D1F9E70346144614
:10781000BFE71A46A446E0E780EA0102844612F078
:10782000030F4FD111F0030F32D14DF8044D11F079
:10783000040F51F8043B0BD0A3F101329A4312F02C
:10784000803F04BF4CF8043B51F8043B16D100BF05
:1078500051F8044BA3F101329A4312F0803FA4F196
:1078600001320BD14CF8043BA24312F0803F04BF1D
:1078700051F8043B4CF8044BEAD023460CF8013B8A
:1078800013F0FF0F4FEA3323F8D15DF8044B704734
:1078900011F0010F06D011F8012B0CF8012B002A72
:1078A00008BF704711F0020FBFD031F8022B12F061
:1078B000FF0F16BF2CF8022B8CF8002012F47F4F1C
:1078C000B3D1704711F8012B0CF8012B002AF9D124
:1078D000704700BFA2B330B540EA0104A407864652
:1078E0000B462AD004780B78A3422FD1012A0CD062
:1078F000844654B11CF8014F11F8013F9C4225D138
:107900006FEA0C031344C318F3D1002030BD1946AD
:10791000DEF800407046A4F1013323EA040C0B4664
:1079200053F8045B0EF1040EAC420BD1043AECD0D8
:107930001CF0803FE9D170461946032AE7D8D1E709
:107940001046704704780B789C42D1D0E01A30BDC5
:1079500030B540EA0104A30722D1032A20D90B46FF
:107960008446194653F8045BA5F1013424EA050462
:1079700014F0803F15D1043A032A19464CF8045BF1
:10798000EFD801F1FF3E52B163461EF8011F541EAD
:1079900003F8011B41B122469C46002AF4D130BDB8
:1079A000844601F1FF3EEEE76244002CF7D003F875
:1079B000011B9342FBD130BD2DE9F04F81468E462D
:1079C000444D70461EF801CB15F80C4014F0080425
:1079D000F7D1BCF12D0FE34653D06FF00048BCF156
:1079E0002B0F04BF9EF800B000F1020E1BB1102B4C
:1079F0004FD01F4604E0BBF1300F55D00A231F467D
:107A00000025B8FBF7F6284607FB168A07E08642F2
:107A100015D329D0012507FB00C01EF801BBABF12F
:107A2000300CBCF1090F06D9ABF1410CBCF1190FB8
:107A300008D8ABF1370C63450DDD002DE7DA4FF0C8
:107A4000FF35EAE7ABF1610CBCF1190F03D8ABF1DC
:107A5000570C6345F1DC002D0BDB04B140420AB149
:107A600095BB1160BDE8F08FE245D3DA4FF0FF35EA
:107A7000D3E72223C9F800301AB340460EF1FF3194
:107A8000EFE79EF800B04FF00048012400F1020E2D
:107A9000ACE7BBF1300FACD19EF8000000F0DF0086
:107AA000582807D01F46ABE79EF8003003F0DF03ED
:107AB000582B0BD110279EF801B03B460EF1020E59
:107AC0009EE74046BDE8F08F8046D6E708231F4674
:107AD00096E700BFD1872000012A10B50AD0242ADA
