:020000040020DA
:10200000302400208D222000277620002576200015
:10201000257620002576200025762000000000008F
:10202000000000000000000000000000D57C20003F
:102030002576200000000000F37C2000A976200017
:10204000BB762000C1762000C7762000CD76200028
:1020500000000000AF762000B57620002576200035
:1020600025762000000000000000000000000000B5
:1020700000000000000000002576200000000000A5
:1020800000000000000000002576200025762000DA
:102090002576200025762000257620002576200054
:1020A0002576200025762000257620002576200044
:1020B0002576200025762000257620002576200034
:1020C0002576200025762000257620002576200024
:1020D0002576200000000000000000000000000045
:1020E00000000000000000000000000000000000F0
:1020F000000000000000000091382000A1382000FE
:1021000000000000000000000000000000000000CF
:1021100000000000000000000000000000000000BF
:1021200000000000000000000000000000000000AF
:10213000000000000000000000000000000000009F
:10214000000000000000000000000000000000008F
:10215000000000000000000000000000000000007F
:10216000000000000000000000000000000000006F
:10217000000000000000000000000000000000005F
:10218000000000000000000000000000000000004F
:10219000000000000000000000000000000000003F
:1021A000000000000000000000000000000000002F
:1021B000000000000000000000000000000000001F
:1021C000000000000000000000000000000000000F
:1021D00000000000000000000000000000000000FF
:1021E00000000000000000000000000000000000EF
:1021F00000000000000000000000000000000000DF
:1022000000000000000000000000000000000000CE
:1022100000000000000000000000000000000000BE
:1022200000000000000000000000000000000000AE
:10223000000000000000000000000000000000009E
:10224000000000000000000000000000000000008E
:10225000000000000000000000000000000000007E
:10226000000000000000000000000000000000006E
:10227000257620007137200095372000012E2000A0
:10228000ED3920003129200025762000FF2200248E
:1022900008B5094B0948C3F8B420094A636E0949D7
:1022A000121A98470848094A2146236E121A98477D
:1022B00000F00EF8FEE700BF00200D4040000020B7
:1022C00058050020048C200058050020301C0020F8
:1022D00073B500F073FC00F02DFD00F089FC00F0F8
:1022E000B5FA01F071FB05F088FA00F01BFD00F073
:1022F000ADF8012005F09AF902F060F900F04AFC0F
:10230000002000F06DFB012000F06AFB00203D4939
:1023100000F02AFC02F098FA62B6042005F086F973
:10232000394805F0F8F9394805F0F5F900F02CFACC
:10233000002002F031FB01F043FA0021344802F0A2
:10234000C9F901F0ADFF05F09FF900F07DFD00F047
:1023500099FD02F08BFE0821684601F05BFB2D4DD4
:10236000BDF806402C482C8001F08AFB2B4E2978C2
:102370002B4801F085FB69782A4801F081FBF56A5A
:102380004AF6CD310220A84761BA89B20320A84796
:102390001A210120A84708226946736B0B20984731
:1023A000214801F06DFB214B186805F0B4F9204875
:1023B00001F066FB1F4B186805F0ADF91E4801F0EF
:1023C0005FFB1E4B186805F0A6F900211C4802F0BF
:1023D00081F91C4B01219B688120984705F0FDF98C
:1023E000194805F0F0F900F0DBFB022005F01EF9BA
:1023F00000F0DCFB02F0FAF8C0B20028F8D101F0DE
:102400007BFAF5E701482000E0832000F2832000FA
:10241000A0040020301A00201784200054812000DE
:10242000358420003B842000418420002882200045
:10243000488420004C8220004F84200074822000B9
:10244000C0040020DC802000B082200008B500F02D
:1024500043F90022014B1A7008BD00BF3A1A002050
:10246000024B1A781043187000F058B93A1A00203D
:10247000034A137823EA0000107000F04FB900BF40
:102480003A1A002008B50B4B1B7803420FD02028C6
:102490000BD004280BD10220074B80211A7800F0C2
:1024A00073FC20EAE07000B208BD0520F4E74FF0AD
:1024B0000040F9E73C1A00203B1A0020802810B5A4
:1024C0000C4605D0B0F5807F2BD04FF0004027E0C0
:1024D0008B1E222BF9D8194BD3F8202422EA0102B3
:1024E000C3F82024D3F8002422EA0102C3F8002410
:1024F0008A0604D501220521002000F029FC63078B
:1025000004D501220221002000F022FC00F034FC5E
:1025100030220B4B1A700B4B187820431870002098
:1025200010BDC8B2202803D005D810F0EF0FCCD1D1
:10253000034B1870F4E73028FAD0C6E700900D403E
:102540003B1A00203C1A002018B1012804D00020BA
:102550007047034B186A7047024B1878704700BFEA
:1025600000900D403E1A002010B5094A0020137853
:1025700001331370074B197802F084F8BDE810405E
:1025800005490023054A0968054801F0BFBE00BFA0
:102590003E1A00203D1A00209005002069252000E9
:1025A0007005002008B50346812B08462DD0B3F5F1
:1025B000807F3ED0802B26D101F0F8FF1E4B0321F7
:1025C00018701E4B0020D3F8202422F00802C3F814
:1025D0002024D3F8002422F00802C3F80024D3F802
:1025E000042422F00802C3F80424D3F8082442F09B
:1025F0000802C3F80824042200F0AAFB03220021E9
:102600000F4800F049FB01200AE00C4B0D49D3F8BC
:10261000102430B142F00802C3F8102401230B60EB
:1026200008BD22F00802C3F810240123C1F880304D
:10263000F6E7054B1960E6E73D1A002000900D40D3
:102640004D26200000E100E09005002008B50F486D
:1026500005F0DCF8C8B108210C4805F0D0F80C4BA7
:10266000196849B100220B4B1A700B4B1B6A43B916
:102670000A4A0B4801F04AFEBDE80840094802F04A
:102680005FB9074801F04CFEF6E708BD6805002079
:10269000900500203E1A002000900D406925200082
:1026A00070050020DC802000094BD3F8202422F0A4
:1026B0000402C3F82024D3F8002442F00402C3F833
:1026C000002400221A610122024B1A70704700BFD9
:1026D00000C00D40431A002000210F4BD3F82024E6
:1026E00022F0C002C3F82024D3F8002442F0C00234
:1026F000C3F80024C3F8001303F50053D3F82024D3
:1027000022F01002C3F82024D3F8002442F0100273
:10271000C3F800241964704700A00D4010F00202B5
:1027200018BFFF22084BC3F8002210F0040218BFA4
:10273000FF2210F00100C3F8002118BFFF22034B55
:1027400014BF1A641864704700A00D4000C00D400B
:10275000044BDB69C3F3072013F4704F04BF103040
:10276000C0B2704700300D40064B5869C00910F0E8
:10277000060F03BF00F00700C0F1020040034FF452
:102780000040704700300D402DE9F047002488B02C
:10279000FFF7DEFF164B0646DF69236D9847E36CB3
:1027A000804698470446FFF7DFFF054600F05CFAD5
:1027B000814600F065FA824600F010FAAD0A07F093
:1027C0000103A40AC7F34007CDE905A003934146DE
:1027D000CDF8109002970195009406F00F03C6F310
:1027E0000712044801F04CF908B0BDE8F08700BFBB
:1027F00000300D40728420002DE9784800F064F824
:1028000010490246D1E900BC6646584538BF0CF174
:1028100001063346C1E900230B4ED6E90001B0EBB7
:102820000B0461EB0C05A01845EB0301C6E90001A0
:1028300001F026FE18B1BDE8784801F0A7BDBDE85B
:10284000788800BF60050020580500204FF0E02385
:10285000E0210B4A5A610B4A82F82310002207211B
:102860009A61196108498B6843F001038B60074B3B
:10287000DA6004221A6001225A600F229A637047BC
:1028800047E8010000ED00E000200D40000003409B
:10289000034BD3E90023100A40EA0360704700BFEE
:1028A00060050020044B9862DA6842F00102DA60A9
:1028B000DA68D207FCD4704700000340014B186867
:1028C000704700BF94050020054A106C516C936C52
:1028D0001B0443EA01230343D06C43EA00607047C2
:1028E00000500D4010B504460E4A136DDB07FCD5B1
:1028F00072B6FFF7E9FF231A062BD8BFC41D094B98
:10290000220EDA64C4F307429A64C4F307225A64BD
:10291000E2B21A6462B64FF40032034B1C60034B00
:102920001A6110BD00500D409405002000E100E048
:1029300008B500F0CDFF0022064B1A604FF40032BC
:10294000054BC3F89021C3F89020BDE8084001F082
:10295000F7BE00BF9405002000E100E0064B9B6934
:102960001B075FBF054B986980F00800C0F3C000EB
:1029700048BF0020704700BF00C0004000D00040AA
:102980002C22154B70B502FB00334FF6BF72DC688A
:102990000546236C626413F050020DD00F4EA369FC
:1029A000DB0600D570BD56F825301BB12068C0B2DB
:1029B0009847F4E72368F2E713F4D06FF2D04FF4AE
:1029C00040732363FF236360E36AE262E362236B85
:1029D00043F001032363E5E7EC8020009805002025
:1029E00001282DE9F74F804600F2AD802C254543A4
:1029F000564F7C1994F92090B9F1000FC0F2A380D2
:102A000094F92260002EC0F29E80514800F0CAFF67
:102A1000504B79599A6A94F921A00A439A62DA6A6A
:102A20006168E5680A43DA621A6BA168F0B20A438A
:102A30001A63002322690AEBC901C5F8C83F116077
:102A400094F82310227DCDE9000194F923B000F021
:102A500089F9DDE90001082200F07AF90122310349
:102A60003D4E02FA0BFB88594FEA09394BEA000048
:102A7000885159F8061002FA0AFA4AEA010149F89F
:102A800006105021A963A96B94F9240041F4D06188
:102A9000A963022169634FF440712963A169002889
:102AA0006962E169A9624FF07001E96216DB0023F7
:102AB00094F92510294C41EAC005C4F804510403D7
:102AC000A5598A402A43A251C9B21A46C0B200F0A1
:102AD0003FF9234A136B43F4004313632C2303FB96
:102AE000087393F92640002C1ADB93F82790E5B27F
:102AF00001224946284693F927A000F033F9012323
:102B00002403A25903FA0AF31343A35108224946A6
:102B1000284600F01DF9124A136B43F480431363F7
:102B20002C2000FB0877FA68136B43F00103136352
:102B3000012297F82830590903F01F0302FA03F322
:102B4000084A42F8213003B0BDE8F08FEC80200045
:102B50005D29200000200D4020940D4000400D40D4
:102B600000D0004000E100E001289CBF014B43F889
:102B70002010704798050020012808D82C22044B0B
:102B800002FB0030C3689A699206FCD41960704752
:102B9000EC8020000022014B1A60704700500D406D
:102BA0000822014B1A60704700500D40A022024BD2
:102BB0001A6050221A60704700500D40014A024BC3
:102BC0009A6070470020200000ED00E0024B58683A
:102BD000C0F38150704700BF00200D4008B5FFF7DB
:102BE000F5FF024B53F8200008BD00BF44812000D0
:102BF00010B5194C0122D4F82034062123F04003EB
:102C0000C4F82034D4F80034032023F04003C4F87F
:102C1000003400F09DF8D4F82034012223F0800322
:102C2000C4F82034D4F80034072123F08003C4F81A
:102C30000034032000F08CF8084A094B1A60094A56
:102C400059681142FCD15A685201FCD4044A5368B5
:102C50005B01FCD510BD00BF00C00D4001010200AA
:102C600000200D4000000101034B04485B6803F0A5
:102C700007031841704700BF00200D400048E801DD
:102C8000034B04485B68C3F302231841704700BF3D
:102C900000200D400048E801024B02EBC10243F85E
:102CA00022007047A0050020F8B507460D46002415
:102CB000084E06EB411647FA04F3DB07E1B204D5F0
:102CC00056F824300BB1284698470134082CF2D12D
:102CD000F8BD00BFA00500202DE9F8430546DFF848
:102CE000388000F0F5FD0D4B2E03F75856F80840DC
:102CF0004FEAC50924FA09F447EA04002946C0B29C
:102D0000FFF7D2FFE4B2064BFFB204FA09F4F75022
:102D100046F80840BDE8F88318970D4018940D4018
:102D20001C940D4080220021014804F0ADBA00BF80
:102D3000A0050020034B044A1A60044B803A1A6035
:102D4000704700BF2006002080400D402406002070
:102D5000034B01EBC0011B6843F82120704700BF03
:102D600020060020034B01EBC0011B6843F8212023
:102D7000704700BF24060020024A136843F0300366
:102D80001360704700700D400E2870B506460DD1D7
:102D9000134B5C6B44F0020058631248D0F8F456B1
:102DA00025F03F0343F00103C0F8F4360E48836872
:102DB00023F0FF031A4311433143816003681B066C
:102DC000FCD5C368006903F0FC0343EA00230E2E20
:102DD00018B201BF034BC3F8F456014B5C6370BDDE
:102DE000000001440080084000700D40034BD3F800
:102DF0000007B0FA80F04009704700BF00B00840FB
:102E00004FF40042064B10B5064CC3F89021C3F8AE
:102E10009020206818B101F075FC0023236010BDDC
:102E200000E100E028060020064B9A6C42F0020206
:102E30009A64DA6C42F00202DA641A6D42F002021D
:102E40001A65704700200D4007B50C4800F0AAFD38
:102E5000FFF7EAFF0A4B5A6D42F002025A65002260
:102E60000192019A0F2A06DD5A6D22F002025A657C
:102E700003B05DF804FB019A0132F1E7ED2D20006B
:102E800000200D40064B9A6C22F002029A64DA6C24
:102E900022F00202DA641A6D22F002021A6570470B
:102EA00000200D400D4BD3F84C269107FBD4D3F8EE
:102EB0004C2652065EBFED22C3F83828C3F83828E6
:102EC000D3F82C2612B1EF22C3F83828044A012087
:102ED000137803F07F031370704700BF0080084031
:102EE000461A0020044BD3F84C0600F02200A0F153
:102EF000200358425841704700800840024BD3F8E5
:102F00004C0600F04000704700800840054BD3F8A5
:102F1000002620B142F00102C3F80026704722F0DB
:102F20000102F9E700800840284B1870002841D0C2
:102F3000274A53681B03FCD5264BD3F8042842F0DC
:102F40000202C3F80428D3F8042842F00102C3F8AF
:102F50000428D3F804285007FBD5D3F8042822F01E
:102F60000102C3F804281B4BD3F804285107FBD4F3
:102F7000D3F8042842F00202C3F80428D3F8042846
:102F800042F00102C3F80428D3F804285207FBD505
:102F9000D3F88C2622F00402C3F88C26D3F8342808
:102FA00022F00402C3F834284FF400520A4BC3F84D
:102FB00090207047074AD2F88C3643F00403C2F8D9
:102FC0008C364FF40052044B1A617047451A0020AA
:102FD00000200D400080084000E100E0094B93F91B
:102FE0000020002A0CDBED21074AC2F83818C2F88D
:102FF0003818E321C2F838181A7862F07F021A7084
:1030000001207047461A00200080084070B5A0F1EA
:103010000B05EBB20F2B044614D80C4ED6F84836ED
:1030200013F03F0302D0FFF73DFF012305EB8505B9
:103030000B35C6F83C560BB1FFF7D0FF044B60B21E
:103040001C7070BD4FF0FF30FBE700BF00800840F0
:103050005605002038B50C46002900F09180102854
:1030600000F29080DFE800F009111D252B434C6031
:10307000667D818E8E86885D8A00434BD3F82C3620
:10308000003B18BF012323602BE005223E4BD3F801
:103090003C3603F07F030B3B93FBF2F30B33DBB2C5
:1030A000F1E7394AD2F8CC15D2F8C83543EA012302
:1030B000E9E7354AD2F8D415D2F8D035F6E700233F
:1030C000314A0B60D2F8003603F001030B60D2F8EE
:1030D0002426900644BF43F002030B602B4B1B7861
:1030E0000BB900200BE00B6843F00403CBE7002092
:1030F000274B08601B78002BF3D001230B6038BDF1
:10310000214B2449D3F840260023D2B201EBC3005F
:103110000079904202D851F83330B4E701330E2BD6
:10312000F4D16FF01703AEE7174BD3F858365BB204
:10313000493BA8E7144DD5F8483699060FD1FFF75B
:103140004DFF0123D5F86426D207FBD5D5F860568C
:10315000493D6DB20BB1FFF7A5FE2560C1E7002325
:10316000F0E70D4B93F900308DE70C4B1B7803F023
:103170007F0388E70B2386E71A2384E7072382E788
:103180000220BCE70120BAE700800840451A002071
:10319000570500208C812000471A0020441A002087
:1031A00010B50B4CD4F8483699060FD1FFF716FF2F
:1031B0000123D4F86426D207FBD5D4F84C46C4F3D7
:1031C00000140BB1FFF76EFE204610BD0023F0E7A0
:1031D0000080084010B50C46072865D8DFE800F0ED
:1031E000040F1A232C444A5E012903D1FFF7F6FE8F
:1031F00000203EE0002959D1FFF754FEF8E7A1F185
:103200000B030F2B52D8C8B2FFF700FF0130EFD1EC
:1032100003202EE0264BCAB2C1F30724C3F8C82509
:10322000C3F8CC45E4E7224BCAB2C1F30724C3F884
:10323000D025C3F8D445DBE731F0070336D101F0E0
:103240000100FFF763FE1A4B11F0020FD3F824269A
:10325000C1F3800014BF42F0200222F02002C3F824
:103260002426FFF761FEC3E731F001001ED1114BA8
:10327000197010BD01F118031F2B17D80D230E4A2A
:1032800052F833108C4206DC02EBC3031A79084B68
:10329000C3F84026ACE7013BF2D2A9E7044BCCB21D
:1032A0004934C3F85846A3E70120E2E70220E0E7EB
:1032B00000800840570500208C81200070B505462D
:1032C0000C46144ED6F84C369B07FBD4124B93F9A0
:1032D0000030002B01DBFFF781FEEE23691EC6F8EC
:1032E0003838C6F83838A31CC6F8283821440220DC
:1032F00000F080FA0949013C41EA0411022000F083
:103300008BFA022000F092FA022000F0A7FA0020C7
:1033100070BD00BF00800840461A002002C001C0F6
:1033200070B5264B93F90030002B19DBFFF7CCFA70
:103330000446FFF753FEC4F1FF2404F57F04F6347E
:10334000FFF7C2FAC442FBD401261D4B1B784BB9D0
:103350001C4CD4F84C36990609D50224204670BD81
:103360000026F2E7FFF71CFF0028F1D1F5E7E9237B
:103370000425C4F83838D4F84C369A0703D4013DF4
:1033800015F0FF050AD1D4F84C369B070AD50D4B32
:10339000D3F84C4614F00204FAD109E00620FFF7F6
:1033A00081FAE8E7EE23C4F83838C4F83838012445
:1033B000002ED3D0FFF776FDD0E700BF461A0020DD
:1033C00057050020008008400B280DD1082A0DD198
:1033D00061B1074B074A083111F8010D43F8040B9E
:1033E0009342F9D1002070470120704702207047B6
:1033F000A8850840C885084070B5384A0546D2F807
:103400004C0610F0400009D0D2F82808040606D572
:10341000ED23C2F83838C2F83838002070BDC0B289
:103420000428F5D902388842F2DCC4B2032C24D136
:10343000D2F828382B70D2F828386B70D2F8283898
:10344000AB70264D264BD5F82818264E493949B27F
:103450001970D5F828381806337026D589B204209B
:1034600001F0DAFD3178032001F07F0101F0D4FD95
:103470001D4B1B78FBB12046D0E7291903200139E9
:1034800000F0C0F91949631E032041EA031100F05E
:10349000C3F9032000F0CAF9032000F0DFF903208C
:1034A00000F0E8F90028FAD1CBE7ED23C5F8383869
:1034B000C5F83838B1E7D5F84C365A06DBD5D5F81B
:1034C0004C361B0603D50A4801F01CF9D3E7ED235F
:1034D000C5F83838C5F83838CDE700BF0080084057
:1034E000471A0020441A0020451A002002C0010C8F
:1034F000780400202DE9F041294F3E7816F00106AE
:103500004CD10125274B284CC3F8A850C3F8AC5028
:10351000C3F8B050F823C4F858360923C4F8E83784
:1035200015230B22C4F8C836204B4FF07F085A6091
:103530004023C4F82436D4F8243643F02003C4F8DA
:103540002436D523C4F80866C4F85086C4F840363B
:10355000174B1878FFF75AFD4FF48042154B0220A5
:10356000C4F894861A6100F06DF91349022000F046
:1035700049F9032000F066F90F49032000F03AF9F9
:103580000E4B1878FFF7D0FC0D48314601F0A2F839
:1035900028463B782B433B70BDE8F0810020FBE7D9
:1035A000461A002000200D400080084000600D40B9
:1035B0005605002000E100E028880840451A002058
:1035C0007804002038B50388044653B340F2034220
:1035D000934233D11B4B1A7842BB822924D11B78EA
:1035E00073B901F0CBFC01F05DFC8021FFF704FF13
:1035F000002805DD80B201F015FC134B1B699847CC
:10360000124B1A7852060CD500221A70104BD3F8C0
:103610004856FFF747FCFFF76DFFAB0601D0FFF7F9
:10362000DDFC40F20343238001200AE01A78002ADF
:10363000FAD0064A12785006F6D5CEE7002303806A
:10364000032038BD451A002074822000461A00204D
:10365000008008400B282DE9F8430D460FD1082AB9
:103660007CD100297AD03E4B3E4A4D1E53F80419B6
:10367000934205F8011FF9D10020BDE8F8830C281A
:103680006AD1042A6AD1002968D0374BD3F81028B0
:1036900022F00702C3F81028D3F8042842F00802E9
:1036A000C3F80428D3F81428D3F81818D3F810084E
:1036B000D2B220F07000C3F81008D3F82448D3F831
:1036C0002008090242EA006289B224040A4304F491
:1036D0007F04D3F81C7842EA0408D3F81028FFB21C
:1036E00022F0070242F00102C3F81028D3F80428A0
:1036F00042F00802C3F80428D3F81448D3F8182875
:10370000D3F81018E4B221F0700141F01001C3F8B1
:103710001018D3F82418D3F82008120292B244EA01
:1037200000640904144301F47F010C43D3F81C180E
:103730005FFA81F9FFF7C8F8B8EB040467EB0907F3
:10374000FF0306460023094AE00347EA544103F019
:1037500069FB361A2E608FE701208EE702208CE786
:10376000C4850840A4850840008008400048E8015E
:1037700008B5054B1B7813B9044800F0C3FF0022BD
:10378000034BC3F8342808BD451A002078040020F4
:1037900000800840074A0848D2F82C38042B1FBF85
:1037A00006490B7843F040030B700023C2F82C3815
:1037B00000F0A8BF0080084078040020461A0020CE
:1037C00010B5094C40220021204603F05DFD012286
:1037D000064B5A604FF480429C60054B5A604FF490
:1037E00000425A6010BD00BF0000002000F00F40F2
:1037F00000E100E003289EBF014B00011950704713
:103800000000002003289EBF024B03EB0010416024
:10381000704700BF0000002003289EBF024B03EB4F
:1038200000108160704700BF00000020032806D808
:103830000123034A03FA00F0916A0843906270473B
:1038400000F00F40032806D80123034A03FA00F0D2
:10385000116A08431062704700F00F40032806D831
:103860000123034A03FA00F051690843506170478D
:1038700000F00F4003289FBF044B03EB001080684B
:1038800000F0070088BF0020704700BF0000002044
:103890004FF0FF32014BC3F80425704700F00F4092
:1038A0000122014BDA64704700F00F40074B5A6861
:1038B000D102FCD41A6822F480321A605A68D2030A
:1038C000FCD41A6842F400321A60704700200D40A0
:1038D00010B5084CA36D99070BD063685A01FCD44E
:1038E00063685B01FCD503F0D1FEFFF7DFFF002327
:1038F000A36510BD00200D4070B5264BD3F8484697
:1039000014F03F0414D1244D55F8043B23B19847DB
:1039100070B10134052CF7D1204E337843B1FEF756
:10392000CDFF0446FEF7D0FF201A092800D90CB9B4
:1039300030BF26E01A4B1A6822F400321A605A6827
:10394000D202FCD41A68164D42F480321A606B68B9
:10395000DB03FCD5FEF7B8FF241A092C03D8BDE819
:103960007040FFF7A3BF632C0CD93378022B09D129
:10397000AB6500F07DFE38B1FFF798FF0022084BE1
:103980009A6570BD0123F3E7FEF798FF0028F3D096
:10399000CEE700BF008008402C060020481A002017
:1039A00000200D40074A10B50023144652F8041BAE
:1039B000814202D011B944F8230010BD0133052B18
:1039C000F4D1FAE72C0600200022054B05499A6540
:1039D0000B6943F004030B61034B1A70704700BF7F
:1039E00000200D4000ED00E0481A00204FF4803226
:1039F000064B10B5064CC3F89021C3F89020206800
:103A000018B100F07FFE0023236010BD00E100E04C
:103A1000400600204FF4201270B592F82B40431E50
:103A200054B101F52011154A273191421AD011F8ED
:103A3000010903F8010FF8E792F82A40122CF0D19F
:103A400092F829204B2AECD14C0804F520120B4D9A
:103A50002732AA4207D1002301F520112044273143
:103A6000A34205DB70BD12F8016903F8016FF0E7AE
:103A7000CA1A1278013300F8012BF1E72700280059
:103A80000FB407B504AA52F8041B0448019200F0D1
:103A900039F803B05DF804EB04B0704788040020E7
:103AA0000EB43FB5094B07AA52F8041B01900493CA
:103AB00004A801AB0392059300F024F80022019BB7
:103AC0001A7006B05DF804EB03B07047B1772000C0
:103AD00070B505460C460A4E102C07D874B1224624
:103AE0002B6868680649BDE87040184710223146C7
:103AF0002B686868984710B9103CEDE7204670BD08
:103B0000908520002DE9F04F8046154600278DB0A6
:103B10000491049B1B78002B00F07983049B1A7896
:103B20001C460133002A00F06183252AF7D1049B4B
:103B30009C4205D05DE323783744002B00F0678377
:103B40006278631C002A00F062830024184610F893
:103B5000012B19462B2A15D009D8202A15D0232A43
:103B600016D0A2F13106082E40D8002219E02D2AE5
:103B700004D0302AF5D144F0100401E044F00104EF
:103B80000346E3E744F00604FAE744F00204F7E7EB
:103B900044F00804F4E70A21019A01FB0299A9F113
:103BA0003002194613F8019B0192A9F13002092A4B
:103BB000F1D90B782E2B36D14A784B1CA2F130006C
:103BC000092828D84FF0000B1A781946A2F13000C6
:103BD000092803F1010318D90B786C2B6BD14B78B2
:103BE0006C2B23D144F08004023122E02A2A09D12F
:103BF0002B680146002B019305F10405B8BF44F082
:103C00000104D6E700230193D3E70A2101FB0B2B24
:103C1000ABF1300BD8E72A2A04D1D5F800B0023135
:103C20000435D9E719464FF0FF3BD5E7013144F0A1
:103C300060040B78782B0CD8572B48D8472B08D822
:103C4000402B00F28D80002B00F0E182252B00F04C
:103C5000D0804B1C049304F4E063B3F5A06F00F034
:103C6000A28200F2C980B3F5407F00F06882B3F50C
:103C7000806F00F02F82B3F5807F7FF44AAFBBF1F5
:103C8000000FACBF24F010044FF0010B14F40059E6
:103C900004F0E00300F07A81402B00F0728100F222
:103CA000C280002B00F07081202B00F0CB8000261A
:103CB000B2460023D3E0682BBBD14B78682B02D1EE
:103CC00044F0200490E7013144F04004B1E7583B50
:103CD000202BBED801A252F823F000BFA53D200042
:103CE000533C2000533C2000533C2000533C200018
:103CF000533C2000533C2000533C2000533C200008
:103D0000CF3D2000533C2000DB3D20008D3D2000B6
:103D1000B73D2000AB3D2000C33D2000533C2000B8
:103D20008D3D2000533C2000533C2000533C20009C
:103D3000533C2000ED3D2000993D2000E73D200050
:103D4000533C2000533C2000E13D2000533C200028
:103D5000933D2000533C2000533C20009F3D200019
:103D6000413B062B3FF675AF01A252F823F000BF8E
:103D7000D53D2000533C2000533C2000533C200004
:103D8000BD3D2000B13D2000C93D200044F4245435
:103D90005FE744F410645CE744F4885459E744F462
:103DA000C85456E744F4B24453E744F4007450E76F
:103DB00044F484444DE744F402444AE744F4424462
:103DC00047E744F4813444E744F4A13441E744F440
:103DD000C1343EE744F4E1343BE744F4A06438E7FF
:103DE00044F4806435E744F4407432E744F4E0641A
:103DF0002FE744F4C0642CE7B3F5C06F07D0B3F5E8
:103E0000E06F7FF486AE2B6804351F6081E60122E7
:103E1000D8F80030A649D8F804009847002840F0A8
:103E2000F481013775E6602B00F0AE80802B7FF4C3
:103E30003EAFEA1D22F007021546D2F804A055F85D
:103E4000086B04E095F9006004354FEAE67ABAF1B0
:103E5000000FBFF62EAF012376426AEB4A0A0293A7
:103E600004F4C053B3F5805F00F0E480B3F5C05FA5
:103E700000F0E680B3F5006F00F0C6800DF12E0370
:103E8000009300230393039B41F608029B4588BFE0
:103E9000ABEB030B41F2080304EA020198BF4FF0B9
:103EA000000B994204D1BBF1010F38BF4FF0010B59
:103EB000039B91425B4440F0DF8056EA0A0200F027
:103EC000DB807C497C4A14F4804F4FF0020614BF1B
:103ED0008A469246B9F1000F0DD0029A002A40F0AE
:103EE000CE8004F00602022A00F0CD80062A734A32
:103EF00004BF0126924606EB0309019B4B4594BF84
:103F00004FF00009A3EB090914F00103019304D158
:103F1000E20640F1BC80CB4499464EB13246514650
:103F2000D8F80030D8F804009847002840F06D8198
:103F30005C46039BDFF888A11F44102CD8E90030B1
:103F400000F2AD802CB122465D499847002840F030
:103F50005C81D8F80030039A0099D8F804003744FF
:103F60009847002840F05181019B5F44002B00F0EE
:103F7000E08049464046FFF7ABFD002800F0D980BD
:103F800043E1B5F900605FE72E685DE7402B1BD089
:103F900007D8DBB1202B11D04E46CA46CDF8089089
:103FA0005EE7602B12D0802BF6D1EA1D22F00702CB
:103FB0001546D2F804A055F8086B02E02E78CA46E0
:103FC0000435CDF808904BE72E88F8E72E68F6E721
:103FD000039805990A22002302F024FF009B303247
:103FE00003F8012D0398059900930A22002302F09B
:103FF00019FF03900591039B059A1343E8D1009A9A
:104000000DF12E039B1A3DE70DF12E030396CDF81B
:1040100014A00093EFE7009803F00701303100F897
:10402000011DDB0843EA42730090D20853EA020103
:10403000F1D1E4E70DF12E01334652460091F5E748
:10404000204B14F4804F2049524608BF194633468E
:104050000DF12E00009053EA0200D0D003F00F00C3
:10406000DDF800C0085C1B090CF8010D43EA02737F
:10407000CDF800C01209EEE70026B2462AE7012675
:10408000DFF848A037E70126DFF844A033E74946C8
:104090004046FFF71DFD00283FF43FAFB5E010227A
:1040A00051469847002840F0B080103C45E700BFDB
:1040B0008E8520007F852000828520008585200058
:1040C000A08520006E8520005D852000758B200076
:1040D0004D8420002E6804356EB333469A469AF814
:1040E00000200133002AF9D1AAEB060ABBF1000F28
:1040F00002DBDA4528BFDA46019B534594BF4FF0F7
:104100000009A3EB0A0914F0010405D14946404611
:10411000FFF7DEFC002878D152463146D8F800304F
:10412000D8F80400984700286FD15744002C7FF43A
:1041300020AF4F44EDE44FF0060A374ED6E7374B39
:1041400014F4804F364808BF18460DF12B030022A7
:104150009A462968043551EA02061AD1BAEB030AD5
:1041600004BF302203F8012C4FF0780208BF03F19E
:10417000FF3303F8012C4FF0300208BF4FF0010A63
:1041800003F8022C2322DE1E03F8032C0AF1030A93
:10419000B2E701F00F06865D090941EA027103F8F2
:1041A000016D1209D7E7DDF804902B68B9F1010F12
:1041B00038BF4FF0010914F0010405F104058DF832
:1041C000183009F1FF3605D131464046FFF780FC33
:1041D000D8B937440122D8F80030D8F8040006A92D
:1041E000984790B9002CA4D03146C3E6049B9C426A
:1041F0000DD0049B0499E61A3246D8F80030D8F85E
:104200000400984700283FF496AC4FF0FF3738463B
:104210000DB0BDE8F08F00BF878520006E852000BF
:104220005D852000F8B5038805461646CBB14A2BBC
:104230002BD188291FD1174803F023FB0446C4B1B2
:10424000231D9E421FD12146124803F024FB124E2B
:10425000636937683360A3690BB1E06998473760D9
:1042600007E00C4803F00DFB044634B901220B4B68
:104270001A704A232B8001200AE0A168201D03F058
:10428000ADFA2468F1E72468D9E70023038003200E
:10429000F8BD00BF44060020D0070020491A0020C6
:1042A00010B50024054B06481C7003F0E7FA2146C0
:1042B000BDE81040034800F00DBA00BF491A0020C5
:1042C000440600209004002070B50446E3610B4BC7
:1042D000049D1B78C4E905526BB1094D094B2E684A
:1042E000201D2B6003F07AFA2E602146BDE8704055
:1042F000054803F0E3BAA160F7E700BF491A0020C0
:10430000D0070020900400204406002013B5034C81
:1043100024680094FFF7D8FF02B010BDD00700203A
:1043200010B5084B04461B7843B1043000F0B0F8D8
:104330002146BDE81040044803F0ADBAC0E903339C
:10434000F6E700BF491A00204406002010B50D4CC6
:10435000236813B90C4A136010BDFEF799FA22685E
:10436000D2E900310B441B1A92681AB91844064B63
:104370001860F1E7D2E900142144091A8B4228BFE2
:104380000B46F1E74C06002048060020014800F0EB
:10439000B9B900BFA00400202DE9F041038805460B
:1043A00053B1592B46D1872921D1002023490B68CD
:1043B00063B918B10B6001E0204A13605923012052
:1043C0002B80BDE8F08101203346F1E7D3E9026498
:1043D0009442F8D000B10B6019460B468968002959
:1043E000ECD0C8689042F8D189689960F4E78229D6
:1043F000E4D14FF00008114F00263C68002CDDD0BE
:10440000204603F003FA90B122468821E06800F0CC
:1044100039F950B9A368E0602EB1B360C4F80880E0
:10442000FFF794FFE8E73B60F8E7FFF7AFFF2646AA
:10443000A468E3E7002303800320C2E74C060020C2
:1044400010B50446FFF7A2FFE3680B4A0BB11368EF
:1044500033B90A4B1B68E36013681460A36004E07F
:10446000A34206D1054A1268DA60BDE81040FFF7A2
:104470006DBF9B68ECE700BF4C060020D007002012
:10448000024B1868003818BF012070474C06002006
:1044900010B50B4A04461368834208D18368136041
:1044A000FFF754FF0023C4E9023310BD1346002B6D
:1044B000F8D09A68A242F9D1A2689A60F0E700BFEA
:1044C0004C06002038B5836804460D469BB10A4867
:1044D00004600220A07304F10C0098470238012800
:1044E00001D9832D05D121462046BDE8384000F092
:1044F00005B80123A37338BDD00700202DE9F84388
:104500001C4F04463D6888462B46A34204D00BB995
:10451000BDE8F8831B68F8E7002CF9D0164EA37BA2
:10452000D6F8009063B10023A3738DB9A3683BB1A3
:10453000444505D02A468321346004F10C00984795
:104540003B68A3420ED123683B60C6F80090DFE7CA
:10455000A54204D022468721284603F048F92D6859
:10456000E3E71346002BF0D01A68A242F9D1226883
:104570001A60EAE7D4070020D0070020002238B5EF
:104580000125084B1A70084B1C6804B938BDE37B41
:104590002BB1002282212046E581FFF793FF24689A
:1045A000F3E700BF4D1A0020D4070020024B187813
:1045B000421C1A70704700BF4B1A00208A22064B1B
:1045C0001A700023054A1370054A1370054A1360D8
:1045D000054A1360704700BF4B1A00204A1A00209A
:1045E0004C1A0020D4070020D00700202DE9F0410C
:1045F0001A4E33780BB1FFF7C1FF194D2C7894B1E7
:104600000C221849184F0B78013C5A430133B81853
:1046100003F01F03BF5C0B702C70D0E9018090B9D0
:10462000124B1C6824B9337828781844BDE8F0810F
:1046300033780BB1FFF7A2FF20464246394603F01C
:10464000D6F82468EEE7812F08BF01234246394699
:1046500008BF837303F0CBF8E5E700BF4D1A0020D5
:104660004C1A00204A1A002050060020D4070020CF
:10467000024A034B10781B78184470474C1A0020EC
:104680004D1A0020F0B50B4D2C78202C0FD00C26A5
:10469000094B0A4F1B78234403F01F037343FE1892
:1046A000C6E9012000200134F9542C70F0BD01202E
:1046B000FCE700BF4C1A00204A1A002050060020D8
:1046C00038B5034C256803F092F8256038BD00BF6B
:1046D000D007002010B40A4609490C6823468342DB
:1046E0000CD04BB950B104600860012110BC81733B
:1046F00083818121FFF7E4BF1B68F0E710BC70479E
:10470000D407002038B1837B013B012B9FBF0123DD
:10471000014AC373137070474D1A002002460846C1
:1047200010B5064953600C68029B106093600A60E4
:104730000CB9FEF7D7F8002010BD00BFD807002045
:1047400010B5084C206858B100232360D0E901312E
:104750009847236823B1BDE810401868FEF7C2B837
:1047600010BD00BFD807002070B505880446672D2E
:1047700009D0792D2FD0002D33D1FFF717FF1B4B18
:1047800018701B4B1D601B4E194D08E00A282B6842
:104790000ED07E2B03DC5A1C2A60174AD0543046B8
:1047A00003F05CF8431CF1D16723238001201BE058
:1047B0005A1C2A600025104A2846D5540B4B1978FC
:1047C000FFF760FF0D4B2A4685211868FFF75AFF57
:1047D00018B97923E9E78529E8D10022044B1A604A
:1047E000D1E700230380032070BD00BF4F1B0020D2
:1047F000DC070020E00700204E1A0020D007002030
:104800000D28014610B516D00C4C237853B90C482E
:1048100003F011F808B9012323700A48FFF772FF6B
:10482000012010BD0A28F8D1054803F004F800283B
:10483000F3D00023F0E70020F3E700BFCE1A0020FA
:10484000E0070020B004002008B505490548802293
:1048500002F0EAFFBDE8084000210348FFF73ABF35
:10486000CF1A0020E0070020B00400202DE9F0411D
:1048700005880446772D20D07E2D3DD0002D4ED1C9
:10488000FFF794FE284E294B294FDFF8A8801870B7
:104890003560336857F823202AB9274A13707723E5
:1048A000238001203EE008F8035093680021802017
:1048B0009847336801333360EBE700231F4A1360E6
:1048C000194A1360184B1C4A1B6812789A4204DC80
:1048D0001A4B1B68002BF0D1E1E7164AD256002A8A
:1048E00019DA134A002052F82320104B1978FFF7E9
:1048F000C9FE28B97E23D3E70C4B1B788B42D0D15D
:10490000094B0C491A688B5C03F07F038B540B4AEC
:10491000136801331360044A13680133D1E700239D
:1049200003800320BDE8F081EC070020511B00202C
:10493000680400203F1A0020501B0020E8070020D8
:1049400010B40A4B0A4A197800238B4203DA52F852
:10495000044BA04208D107490748CA5C62F07F02B5
:10496000CA5410BCFFF7CEBE0133EEE7501B002047
:10497000680400203F1A0020C0040020054B1A687C
:1049800042F004021A6058699B6940EA032080B231
:10499000704700BF00700D40184A136823F00C03E5
:1049A00013600122164BC3F8A820D3F8A820012ACF
:1049B000FBD10822134BC3F82426E322C3F838287E
:1049C000D3F86426D207FBD50E4810220023D0F876
:1049D0009C16013A01F0010143EA01034FEA430347
:1049E0009BB2F4D1002BF0D0044A190A03F0FE0365
:1049F00051615361EF23C0F83838704700700D40A3
:104A000000200D40008008400088064B40BA80B26C
:104A10008840995CC2F1080201EA20201041C0B22E
:104A2000704700BFE1852000F8B506460A480D46EC
:104A3000174602F026FF044630B93A46294630466A
:104A4000BDE8F84003F018B9A3680BB128469847B1
:104A5000204602F04EFFEEE7F007002038B500F0E8
:104A6000CFF80546094802F00CFF044628B95DB1AD
:104A70002846BDE8384003F0FAB8636803B19847A8
:104A8000204602F036FFF0E738BD00BFF0070020F7
:104A900010B5044600F0C2F838B100F0DFF9034B5E
:104AA000034821469B689847012010BDA082200042
:104AB000294A200070B50B4C0023616E0A4A04F1AC
:104AC0003800FFF723FCFFF759FF656E0023B0FBAA
:104AD000F5F1064A01FB150104F11800BDE870402C
:104AE000FFF714BCF4070020F14A2000094B200016
:104AF000044B5A6E196E5200914294BF59665A6621
:104B0000FFF7D8BFF407002010B500F037FA00F027
:104B1000C9F900230380044600F04EF82288930070
:104B200008B1017B51B9023398B200F07BF92388B8
:104B300073B1BDE81040074800F0CCB88188234429
:104B40005980C18801329980228002F0D2FEE5E7C7
:104B500010BD00BFF40700209DF80030012B04D1E8
:104B6000024B9A6D5A66FFF7A5BF7047F407002005
:104B7000F8B50F4616461D46064C0146064A204625
:104B800000F096F8C4E9167625660448BDE8F840BA
:104B900000F00CB8F407002034822000594B2000AC
:104BA000014802F06BBE00BF60080020014B186096
:104BB000704700BF64080020014802F062BE00BFD9
:104BC000600800202DE9F04105460C480C461646C9
:104BD00002F057FE08B9BDE8F0818388A34209D1ED
:104BE0008768002FF7D0334622462946BC46BDE8E9
:104BF000F041604702F07DFEECE700BF6008002056
:104C0000054B10B51B689847044618B181880120F0
:104C100000F002FA204610BD1C82200038B5064B79
:104C200005465B6898470446A988012000F0F4F91E
:104C3000201E18BF012038BD1C822000014B9B683C
:104C4000184700BF1C822000014802F017BE00BFB9
:104C50006808002081800146014802F02FBE00BF95
:104C6000680800200146014802F015BE68080020CF
:104C700010B50446054802F004FE00B910BD838853
:104C8000A342FBD002F035FEF7E700BF6808002022
:104C900070B505460C461646FFF7DCFF20462E6130
:104CA0000249BDE8704002F0D2BF00BFEF8520008E
:104CB00070B505460C461646044AFFF7E9FF204644
:104CC0006E610349BDE8704002F0C1BF3C82200024
:104CD000F185200010B5044604491A2000F0AAF915
:104CE0002046BDE8104002F0C0BF00BF301A0020CF
:104CF00070B504461B200D4600F0A8F9064903F0E4
:104D000021F838B1A3691B6823B129462046BDE8C4
:104D10007040184770BD00BF301A002070B50546BE
:104D20000C461646044AFFF7C3FF2046AE6103490E
:104D3000BDE8704002F08BBF44822000F585200062
:104D400008B5044802F0D8FDBDE80840024802F06A
:104D5000D3BD00BFDC040020D004002038B50E48CD
:104D600002F0DAFD054650B10C4802F0D5FD0446CC
:104D7000286030B92946084802F0E2FD2546284659
:104D800038BD00F097F804F1B601A4F8800004F1F2
:104D9000820000F019F9F2E7D0040020DC040020C2
:104DA00010B501460446074802F0E0FD48B121680D
:104DB000054802F0C5FD2146BDE81040014802F05B
:104DC000BFBD10BDD0040020DC04002010B501469A
:104DD0000446094802F0CAFD68B12468B4F880109E
:104DE000204600F0DBF804F1B60104F18200BDE8D2
:104DF000104000F0FDB810BDD004002010B50749E8
:104E00000B88834208DB064C80B222880244181AC1
:104E100008800120228010BD0020FCE7F01900204E
:104E2000F2190020014B1880704700BFF0190020D4
:104E3000004870478C080020014B1888704700BF5D
:104E4000F0190020034A044B10781B881844C0B2A4
:104E5000704700BF621B0020F21900202DE9F041CD
:104E60000C4E338873B100240B4B0C4FB3F8008009
:104E70000B4B1D783D4421B2414504F1010403DB95
:104E800000233380BDE8F081FFF7DCFF3844435C4A
:104E90006B54F0E7F2190020F01900208C08002074
:104EA000621B002008B5FFF7CDFF014B184408BD79
:104EB0008C080020F8B50C4B04461E780B4B1F885D
:104EC000F519802D0DDC3246094902F067F9FFF72C
:104ED000E9FF344401463A46204602F05FF928468D
:104EE000F8BD0025FBE700BF621B0020F019002081
:104EF0008C08002008B5FFF7A5FF024B1B8818445B
:104F000080B208BDF019002010B50146FFF7F2FF8E
:104F10004318802B12DC431E094A1BB21A44481C5A
:104F2000002B05DA074B187801440120197010BDD9
:104F300012F80149013B14541BB2F1E70020F6E7D7
:104F40008C080020621B002070B534220021084824
:104F500002F09AF90024074D074E284631460134E5
:104F600002F0EDFE042C05F10205F6D170BD00BF84
:104F7000FC190020F4190020DE8320000023044ADD
:104F80001380044A1380044A1370FFF7DDBF00BF8B
:104F9000F2190020F0190020621B002038B50C46E1
:104FA0000546FFF7EBFF802C28BF802429462246C8
:104FB000034802F0F3F8034B20461C8038BD00BFC5
:104FC0008C080020F019002010B5074B03F13402C3
:104FD00053F8044B934240F8044BF9D1034A136849
:104FE0000B6053684B6010BDFC190020F4190020C1
:104FF00010B5074B00F1340250F8044B904243F8CF
:10500000044BF9D10B68034A13604B68536010BD21
:10501000FC190020F4190020024B23F81010012085
:10502000704700BFFC190020014B33F81000704797
:10503000FC19002008B5044B1A3803EB400002F0BD
:105040007EFE012008BD00BFF4190020024B1A3873
:1050500003EB4000704700BFF419002001490248EB
:1050600002F070BEDE832000F6190020084B10B558
:105070001B689847074B5B689847074B5B689847E6
:10508000064B5B689847BDE81040054B5B681847C6
:105090005481200074822000A08220004C822000D5
:1050A00028822000F8B5FDF7F3FB114D07460024D8
:1050B0002E461A20FFF7CAFF294602F043FE80B1B0
:1050C0000A20FFF7B1FF0C2303FB0464237A834219
:1050D0000CD16068381AB0F5206F8CBF0020012019
:1050E000F8BD0134102C05F10C05E2D10020F7E7E2
:1050F0000C09002070B5194D00242E461A20FFF728
:10510000A5FF294602F01EFE013418B9102C05F146
:105110000C05F3D10C23621E03FB0464A4F10C05FF
:105120007AB90A20FFF780FF3072FDF7B1FB70609B
:105130001A20FFF78BFFBDE870400146074802F0D8
:10514000FEBD2B4654F8180C54F8141C013A03C346
:1051500054F8100C2C461860E0E700BF0C09002042
:10516000014BDB68184700BFA0822000014B5B6940
:10517000184700BF74822000014B9B69184700BF8D
:1051800074822000024BD86900B10047704700BF0D
:105190007482200070B590F829400F4B042C2146F2
:1051A00028BF04210124DB698C400546984701286B
:1051B00038BF0120013C444305D0FFF7DFFBB0FBC3
:1051C000F4F303FB14042B46214605F10800034ABF
:1051D000BDE87040FFF79AB8748220005153200058
:1051E0002DE9F04106461B200F46FFF72FFF494BE4
:1051F00005461A78484C22B901221A70FFF7BEFB07
:10520000208023880BB90123238021880A204B1C8E
:105210002380FFF701FF414802F033FB04460028DA
:1052200047D13F4802F078FB0446002868D0294661
:10523000201D02F084FD002304F12C00C4E90B3092
:10524000238502F01BFB2146344802F037FB206B1C
:1052500002F048FB072853DC324802F05DFB0546AC
:10526000002841D0304802F057FBA860C0B3FFF7D8
:1052700075FD686080B30920D5F80880FFF7D4FE7B
:1052800008BB082388F808300D20C8E90067FFF73D
:10529000CBFE01282946206B1BD102F01CFB206BA2
:1052A00002F0EFFA854233D12046BDE8F041FFF726
:1052B00071BF2946201D02F045FD0028C7D12046B8
:1052C00002F017FBAAE70920FFF7AEFE88F80800F6
:1052D000DAE702F0F3FAE2E7A968134802F030FBDC
:1052E0002946104802F02CFB206B02F0FBFA38B97B
:1052F00021460A4802F0CFFA2146094802F020FB75
:1053000039463046BDE8F0410123042202F07ABE5E
:10531000BDE8F081631B0020321A00202C0A002017
:10532000F404002000050020E804002008B505482A
:1053300002F0E2FA044802F0DFFABDE80840034850
:1053400002F0DABA00050020E8040020F40400208E
:1053500013B5044668B1006B02F093FA024640B1FF
:105360002146054B0548DB68019302B0BDE81040BB
:10537000184702B010BD00BF74822000FD5320000A
:105380002DE9F0470D4614468B680646D3E90078B0
:10539000106B92F8289002F07EFA6868FFF700FD23
:1053A000A968124802F0CCFA2946114802F0C8FA5E
:1053B000206B02F066FA60B1002320462385FFF7D8
:1053C000E9FE4B46324641463846BDE8F04702F01A
:1053D00019BE04F10800FEF7A3FF2146054802F0BC
:1053E0005AFA2146044802F0ABFAEAE7E804002042
:1053F000000500202C0A0020F40400202DE9F041D3
:105400000E461746044620B1006B02F03AFA0546F4
:1054100008B9BDE8F0810A21686802F08AFC80467C
:105420000A20FFF701FE804546D0284602F061FAC7
:10543000EDE794F8282000203A4484F828202946F3
:10544000224684F82900BDE8F041FFF799BF002308
:1054500084F8293094F82830DA19D2B284F8282058
:105460000B7A93421CD8224629460220EBE794F897
:105470002930DA19D2B2052A84F8292007D9002266
:1054800094F8283084F82920013384F8283094F8DF
:1054900028200B7A9A4203D3224629460120D2E7DC
:1054A0002046FFF777FE6868BDE8F04102F02DBCAA
:1054B000224629463046C6E7A9680029A9D0032E0E
:1054C000F6D801A353F826F0335420006F5420007F
:1054D0004F54200013542000014B1888704700BF20
:1054E000540500202DE9F041012906460F461446D7
:1054F00086B003DC002006B0BDE8F08103A902F00D
:1055000061FD0B4603CB1B88206123839DF811307E
:105510006161002B45D0B51C02AA01A903A802F0C5
:1055200019FC9DF81380B8F1000F4DD0029B2BB1F0
:105530006A7815F8023B03EB02239BB2B8F1020F25
:10554000A38332D12046314902F0F9FB6B782370F6
:1055500015F8023B63709DF81580B8F1000F4DD02F
:10556000019B002B37D06A7815F8023B03EB02232E
:10557000029A9BB2E38302B9A383B8F1020F2DD143
:10558000224904F1080002F0DAFB6B78237215F867
:10559000023B6372A81B3B1A8742C4E90E53A9DB86
:1055A000A9E7B378F51CA376B6E7B8F1030FD2D11B
:1055B00005F108021346611E13F8010D9D4201F822
:1055C000010FF9D11546C6E72046104902F0B7FB96
:1055D000A4F81C80BFE7A38BE383CEE7B8F1030FE9
:1055E000D8D105F10802134604F1080113F8010DA2
:1055F000AB4201F8010BF9D11546CBE7034904F1A1
:10560000080002F09CFBA4F81E80C3E7DE832000A4
:1056100030B591B00546FFF75FFF4FF6FF73984234
:1056200004D14FF0FF34204611B030BD402200219C
:10563000684601F029FE404B1A782AB901221A70F7
:10564000FFF79CF93D4B18701420FFF7EDFC8DF827
:1056500010001320FFF7E8FC8DF81200FFF7FEFCA6
:105660000446002848D000238DF813308DF81530FB
:10567000002301248DF814308DF818404DB10A2014
:10568000FFF7D2FC00283FD00A20FFF7CDFC8DF8B1
:105690001A0002248DF81940FFF71EFFADF81C0018
:1056A000FFF7DCFC00283CD04FF6FF738DF8174065
:1056B000ADF80030FFF710FFADF81E001A20FFF71D
:1056C000C5FC014602A802F03AFBFFF7EBFB0E9087
:1056D000FFF7B2FB0F90684602F0E6FB0446002D90
:1056E000A1D0FFF711FC00289BD0FFF7A1FB0146DA
:1056F000684602F021FC96E70B20FFF795FC8DF839
:1057000015408DF81300B3E70C4B1A7802B91C70E2
:1057100019780A204A1C1A708DF81A10FFF77CFCC1
:10572000B7E71B20FFF792FC0146684602F007FB33
:105730008DF81740BEE700BF761B0020771B0020C6
:1057400013B50024094B1C70094B1C80FDF7BCF8F5
:10575000012200F58051074B00940748FEF7DEFF59
:105760000122064B1A7002B010BD00BF7D1B002045
:10577000341A00208D5B20001C0B0020781B0020B9
:10578000074B82B01B784BB1064B1A7832B9012215
:105790001A70054B1B6A019302B0184702B070479C
:1057A000781B00207D1B002054812000094B82B013
:1057B0001B786BB1084B1A7852B1084A127802F084
:1057C000FF012AB91970064B5B6A019302B01847B2
:1057D00002B07047781B00207D1B0020791B002041
:1057E0005481200008B5FFF7E1FF0022014B1A6049
:1057F00008BD00BF2C0B0020044B1B7823B9044BC1
:105800001B680BB9FFF7D2BF704700BF7F1B00209A
:105810002C0B00200022094B82B01A70084BC2B238
:105820001A70084A084B28B101211B6A11700193B4
:1058300002B018475B6A1070F9E700BF781B0020C0
:10584000791B00207D1B00205481200037B50B4BB5
:105850001A7802F0FF056AB901241C70084B1D700C
:10586000FDF732F8224600F58051064B06480095B8
:10587000FEF754FF012003B030BD00BF781B0020AD
:10588000791B00208D5B20001C0B002037B50B4BD3
:1058900005461B780C4673B1FDF716F8231A022B48
:1058A0004FF0000348BF841C009301222146284684
:1058B000034BFEF733FF03B030BD00BF781B002061
:1058C0008D5B200013B5224C23680BB9FFF76EFFE8
:1058D000FFF7B2FA032823D0FFF70CFB00B31D4BF0
:1058E0009B68984700281BDBFFF7A6FAC0B1FFF7BB
:1058F00001FBA8B11B20FFF7A9FB174902F022FA10
:1059000050B11320FFF790FB206058B9FFF74EFF0E
:105910001248FEF705FD0DE0FFF7A0FB0028F0D1CF
:1059200002B010BDFFF72CFF002304210C4A0B48E6
:10593000FEF7ECFCFFF7B6FB0028F1D1FFF7DAFB2E
:10594000084BDB68019302B0BDE81040184700BF68
:105950002C0B002094822000301A0020F80A00202E
:10596000E55720004C8220002DE9F04F89B07049A6
:1059700003901A20FFF75EFBFFF770FB04460C2034
:10598000FFF752FBA8B1FFF7B5FA80464FF00109C7
:10599000684D6E68FFF74CFA4146B047664EAB69FA
:1059A00086F800900093984770B10023337001246B
:1059B000A1E001210B20FFF72FFB604B5B689847AC
:1059C0000028E0DA052496E0EB6901939847002867
:1059D000EBD15B4FFFF7EAFE3B7887F80090DBB234
:1059E0000293039B7BBB4FF006096FF0030A6FF035
:1059F0000F0BFCF769FF0490FFF7C2FE0498AAEBB7
:105A000000030493FCF760FF049BC342F9D46B6965
:105A1000984748B90090FFF7C9FE00983070FFF72B
:105A2000C5FE029B3B70C2E7FFF7C0FEFCF74CFFD0
:105A3000ABEB00030493FCF747FF049BC342F9D48C
:105A4000B9F10109D5D10CB9FFF79AFE0A20FFF789
:105A5000EBFAC3B20493FDF7A9F8FCF735FF8146D2
:105A6000DFF8E0B0ABEB000BDFF8DCA0AAEB090A33
:105A7000FCF72AFF1AEB000F49D5FDF797F8002C29
:105A80003DD0AB6840469847FCF71EFF6FF00C0313
:105A90001B1A0593FCF718FF059BC342F9D4002C91
:105AA000E6D1009B9847002835D0FCF70DFF6FF03A
:105AB0001408A8EB0008FCF707FF18EB000FFAD456
:105AC00003212B6907A8984703282DD19DF81E3084
:105AD000049A934228D100254FF00108FFF766FE93
:105AE000029B3B7000233370002D7FF460AFECB954
:105AF000984508BF0224204609B0BDE8F08F039BFB
:105B0000002BBED0FCF7E0FE1BEB000FB9D4002544
:105B10004FF00008E2E7019B98470028C5D16B6968
:105B200098470028A0D1C0E70125F1E72C46E2E71D
:105B3000301A0020548120007F1B00209482200016
:105B4000781B0020DEFDFFFFB0EFFFFF70B50D4BAF
:105B500004461B780D4653B90B4B1B783BB9052205
:105B600029462046BDE87040012302F04BBAFFF7FA
:105B7000C1F90028F3D00020FFF7F6FE0328024603
:105B8000EED170BD781B0020791B002040F2E3129B
:105B90002DE9F3476E4E0446338893423AD0B3F56D
:105BA000F27F08D2002B00F0888040F2B1129342BD
:105BB0000BD0002391E040F202229342F9D100235E
:105BC000644A1370644A137007E0634A1378013320
:105BD000DBB2012B137000F28480604B1A78002A2C
:105BE00072D15F4A1268002A6ED11B780BB9FFF799
:105BF000C7FD5C4B5B699847002863D10122554B78
:105C00001A70FCF761FE584B584A18600023137055
:105C1000574A1370514BDFF85C811B7803F0FF0586
:105C2000002B7BD198F80030002B77D0FCF74CFE8E
:105C30006FF4CC724C4B1B68C01A104400286DDA0C
:105C4000DFF82091494FD9F81430984710B13D78CA
:105C50000135EDB23D70464DD9F818A02B780133CF
:105C60002B70D047002854D000233B702B78D9F8F4
:105C70001C700A2B04D9D04710B9B84700284BD064
:105C8000B84700284AD13C4B1B789BB12568FCF7EC
:105C90001BFE2B1A13F1120F4FF0000348BF811C9B
:105CA00000934FF001022046344B58BF05F1140118
:105CB000FEF734FD40F2E3130FE0FCF705FE304B36
:105CC00018607CE7FFF798FDFCF7FEFD00F110017E
:105CD0002046FFF7DBFD40F2B113338002B0BDE890
:105CE000F0871C4B1B78002B8BD1254D2B6803F5BF
:105CF00080532B60FCF7E8FD2B68C3F1A003C3427F
:105D00007FF55DAF20462968FFF7C0FD40F2022312
:105D1000E3E73B78052BA9D9FFF76EFD98F8003033
:105D2000002BE2D00F4DAB69984760B1FCF7CCFD7A
:105D30000D4B1B68C01A6FF4CC7318440028D4DBD9
:105D4000FFF75AFDD1E7EB6998470028EED1F7E756
:105D5000341A00207B1B00207A1B00207F1B0020B0
:105D60002C0B002054812000280B00207E1B0020DB
:105D70007C1B00207D1B0020781B00208D5B2000F9
:105D8000180B00202DE9F14F06460F461446002A55
:105D900071D03A4BD3F800B0BBF1000F0BD0506874
:105DA000FFF714F801231A463946304601B0BDE822
:105DB000F04F02F027B91546DFF8C490DFF8C4A011
:105DC000284601F096FDA8460546D8F80400FEF7DF
:105DD000FDFF0C20FFF728F9E0B91DB101211320C8
:105DE000FFF71AF949461A20FFF724F901210B2081
:105DF000FFF712F9DAF804309847002802DA012395
:105E00000522D1E701210C20FFF706F9D8F804009C
:105E100001F081FF002DD3D1DFF86C90DFF86CA08A
:105E2000204601F066FD254604466868FEF7CEFF71
:105E30001320FFF7F9F899F8003080468BB99AF8EB
:105E4000003073B9052501232A463946304602F051
:105E5000D9F885B97CB14FF0010BB8F1000FDFD153
:105E600009E0FFF747F80028ECD05846FFF77CFD23
:105E700003280546E7D101B0BDE8F08F2C0B0020C8
:105E8000301A002094822000781B0020791B00200B
:105E900008B5024B1B689847023008BD6882200095
:105EA00038B50C4B9B689847041E02DA4FF0FF3060
:105EB00038BDFEF7F7FF03780546002BF6D1022028
:105EC000FEF79CFF0028F1D06878FEF7ABFFA01C1E
:105ED000EEE700BF6882200070B50220FFF714F8DB
:105EE00010B94FF0FF3070BDFEF7A2FF002606701C
:105EF0000446FEF7A1FF6070FEF7FCFF0446FFF7C3
:105F0000C7FF20442A2812DCC0F12B00C4B2FEF7E0
:105F1000C9FF0546FEF790FF22463146284401F0AE
:105F2000B3F9FEF789FF204480B2FEF77BFF044BF4
:105F30005B689847041ED4DBFEF790FFA01CD2E7F5
:105F400068822000014B9B68184700BF2882200010
:105F500070B504460D4614200121FFF75DF8034B90
:105F600029462046BDE870409B6818474C822000B7
:105F7000832938B5044608D1154801F09FFE15481D
:105F800001F09CFE144801F092FE2588DDB913480B
:105F900001F0C1FB4FF48072114B11211A803222A3
:105FA0005A6040F2E7320B481A820E4A9D60FEF7B3
:105FB000B5FE10210C4A0648FEF7B0FE0F210B4A31
:105FC0000548FEF775FE00230320238038BD00BF7F
:105FD00024100020800B0020501000201386200089
:105FE0007C100020C4822000CC822000D4822000BB
:105FF000F0B5002304460D46144E154F85B01548E4
:106000003370717001F087FB3946204600F046FC82
:1060100039461148FDF734FDFEF7B0FF2721384619
:10602000FEF7BCFF31460D4801F04AFEFEF7A6FF21
:10603000A36861792A46CDE90113E3790848009302
:106040002368FDF71DFD05B0F0BD00BF381A002024
:10605000801B002037862000568620002410002058
:106060006F86200038B50025154801F054FB154C0B
:106070002846FEF71FFF29461348FDF701FD21467C
:10608000284600F01FFCB0B1FEF778FF0F4BE27915
:106090005B789A4209D161790D4804F10802FDF755
:1060A000EFFCBDE83840FEF769BF2246852109486C
:1060B000FEF7E8FAF5E700210748FDF7E1FCF0E715
:1060C000B7862000300B0020D6862000301A002032
:1060D000E98620001C050020088720002DE9F041FA
:1060E000002304460D46124E124F13483370717050
:1060F00001F011FB3946204600F0AEFB39460F484F
:10610000FDF7BEFCFEF73AFF45213846FEF746FF95
:1061100031460B4801F0D4FDFEF730FF2B46E27903
:1061200004F108010748BDE8F041FDF7A9BC00BF34
:10613000361A0020DB1B0020248720004287200025
:10614000800B002058872000F7B52E480D4601F03F
:10615000E2FAFEF7A7FE2C4C01461A222B4801F06A
:1061600081F92A492A48FDF78BFC2146274800F08F
:10617000E9FBE8B1FEF702FF6379226800936978D2
:10618000E3792448FDF77CFC234BE0795B7883427C
:1061900013D1224823680360A3888380E388C380E7
:1061A0000023836040F2E73383816978FFF720FFA3
:1061B00003B0BDE8F040FEF7E1BE31222168667908
:1061C000174BDF6847B11F688F4205D15F79B7422F
:1061D00002D1DF79874210D0013A03F11403F0D1E4
:1061E000104AA38811609380E3888521D3806B785F
:1061F0000D485372FEF746FADAE70C4801F08BFAC5
:10620000D6E700BF7987200040100020A71B0020A0
:106210009B872000B1872000301A00201410002036
:10622000000C00206810002040050020EA872000B4
:10623000F0B543488FB00E4601F06DFAFEF732FE1E
:10624000404C0146272204A801F00CF904A93E485D
:10625000FDF716FC214604A800F0ACFB18B9FEF7C8
:106260008DFE0FB0F0BDFEF789FEB4F90C30374853
:106270000293A368019363790093E37922687178AC
:10628000FDF7FEFB0420FEF7CFFE05B2002DB8BFE0
:106290006D422DB229462E48FDF7F2FBA068B4F9F5
:1062A0000C302C4A00FB0353451C93FBF5F3B2F969
:1062B00010101BB29942A381D1DDE188506011809A
:1062C00071783C20D17001211382C2E90210136958
:1062D000214E00930FCA00F06DFA204B62795B7873
:1062E0009A4212D12168E079312200241A4BDD68EC
:1062F00035B11D688D4203D1DD79854208BFDC6070
:10630000013A03F11403F2D1A9E7A368142701337A
:10631000A3600023124D2B602B68302BE2DC7B4303
:10632000F218D16839B1F1582368994203D1204657
:10633000517AFFF75DFE2B6801332B60ECE700BF5D
:106340000988200004100020298820003D882000B2
:10635000818820007C100020000C0020301A0020D2
:10636000FC0F002070B5038806461446002B43D06E
:10637000BC2B4ED1294B1B788B4242D00320FCF71B
:106380006FF8274D2368274A2B60A3881146AB80FE
:10639000E388EB800023D068002834D114225343D3
:1063A0002068CA18C850A38801219380E388D3804D
:1063B000238913810523C2E903131A4800F0D0F999
:1063C000194801F0A8F91949154800F057FA17497A
:1063D0001748FDF755FBFEF7D1FD1A211348FEF7CC
:1063E000DDFD1448FEF776FCFEF7C8FD6B792A68E0
:1063F000E9791148FDF744FB0320FCF739F8BC2389
:106400003380012008E00133312B02F11402C2D1A4
:10641000D3E700230380032070BD00BF511B002081
:1064200048100020000C002094882000C11B002090
:106430005686200050100020B58820002DE9F74333
:1064400003880646002B46D0DE2B78D13F4B1B78C5
:106450008B4249D00120FCF70BF800233C4D3D4C0A
:106460002B60E368002B21DDD4F80880B8F1010F20
:106470001CD1013BE360CBB94FF6FF726280322240
:10648000C4E9012340F2E733617833482382FDF702
:10649000F7FA4046FBF7E4FF2B6801332B602BB182
:1064A0002369009394E80F0000F084F9002332225E
:1064B0002B602A4F2A4B013A18D14FF05809DFF8C8
:1064C000A4803A603B68092B1BDD2B6833B125485B
:1064D00000F09CF902E00120FBF7CAFF802122486E
:1064E00001F07CF9DE23338001202BE019690029BB
:1064F00005DDD868012804BF01F1FF3119611433AB
:10650000D9E709FB0380426DAAB1A26862B1E178C4
:1065100051B1FFF7E3FD3B6809FB038300225A6595
:106520002B6801332B6006E009FB03831A6D013AE7
:10653000002A1A65F2DB3B6801333B60C2E70023A7
:106540000380032003B0BDE8F08300BF511B00208F
:10655000F40F00207C100020EA882000F80F0020B3
:10656000000C002090100020E40F0020124B70B5AA
:10657000064600251C465A6D9AB9104801F0CBF822
:10658000582303FB054350223146184600F006FE0F
:1065900001240A22C0E91424074800F037F92046F4
:1065A00070BD01350A2D03F15803E4D1044801F010
:1065B000B2F80020F4E700BF90100020048920000A
:1065C000218920002DE9F041038806460C46154636
:1065D000002B6BD0722B40F099804F4B1B788B4275
:1065E00075D00220FBF73CFF882C4C4F4C4C70D1EF
:1065F0007B78012B6DD04B4801F08DF84FF4807300
:10660000494DE3802B68012023603B88A380474BE2
:106610005B689847464B80465B6804209847C0F308
:1066200007134FF47A705843001300F081FB41497F
:1066300000F010FA404900F0C7FA00F0CDFBB0F5C9
:106640007A7F03463D49A8BF4FF47A73424604F16E
:106650000800FDF725FA2B684FF42061622BCCBFB0
:106660000123013336482B6001F0B8F87B78012B09
:1066700028D0344B344D9A68002A3AD12A60E17907
:106680003248FDF7FDF92648FFF770FF304A2368CE
:106690003978E08813607B781171D0801172537162
:1066A000852153722B48FDF7EDFF0BE0FEF766F9ED
:1066B0001421B0FBF1F303FB110189B22048C90199
:1066C00001F08CF80220FBF7D3FE72233380012007
:1066D0001FE0AB7905F10801A371EB791E48E37166
:1066E0002B6823602B7923716B79637100F01EFE98
:1066F000BCE7DB782B60002BC1D017491748FDF7AA
:10670000BFF929680648FFF7E9FCDBE700230380AF
:106710000320BDE8F08100BF511B0020301A00208B
:106720009C0B00204A8920002C050020FC812000C1
:10673000CC8020004BEACC3F751325425D892000B8
:10674000D40F00207C10002000100020928920002F
:10675000EC0B002040050020A40B00207D892000C8
:10676000F7B504461048FDF78BF900250F4F04F5E7
:106770007576E36843B1617AE379627938460091CE
:106780002168FDF77DF901351434B442F1D12DB9FA
:10679000074803B0BDE8F04000F0BDBF0A2003B0D9
:1067A000BDE8F04000F09EBF2E8A20003E8A200007
:1067B000658A200084B007B50DF1100C8CE80F003D
:1067C0000F48FDF75DF9069B33B90E4803B05DF83D
:1067D00004EB04B000F09FBFBDF920309DF81320FA
:1067E0000193079B9DF8111000930748059BFDF747
:1067F00047F90A2003B05DF804EB04B000F072BF63
:10680000708A20007E8A2000888A2000F8B504461D
:106810000E48FDF735F900250D4F04F55C76636DE4
:1068200033B13846236DE2796179FDF729F90135F5
:106830005834B442F3D125B9BDE8F840054800F01A
:106840006ABF0A20BDE8F84000F04CBFB98A2000BA
:10685000C78A2000658A200007B5024602F10803B6
:106860000193D37908460093537903491268FDF7E1
:1068700017F903B05DF804FBE48A200007B502466F
:10688000D37908460093537903491268FDF708F954
:1068900003B05DF804FB00BF0C8B20001FB502465F
:1068A000B2F90C3008460293936805490193D379F5
:1068B000009353791268FDF7F3F805B05DF804FB17
:1068C0002C8B200038B5044617480D4600F023FFF6
:1068D00004222046154900F087FDF8B9144800F05D
:1068E0001AFF1448237A0370637A437000F01EFC89
:1068F0002860E37B1048037000F018FC6871A37DEA
:106900000E48037000F012FC2522E87104F120010A
:1069100005F1080000F0A6FD012038BD084800F090
:10692000FAFE0020F9E700BF5B8B2000778B200088
:106930007C8B2000241C00202D1C0020201C00200B
:10694000858B200038B5044613480D4600F0E3FE61
:1069500007222046114900F047FDC0B9104800F059
:10696000DAFE1048E37A0370237B437000F0DEFB0D
:106970002860A37C0C48037000F0D8FB6871637E2C
:106980000A48037000F0D2FBE871012038BD0848C6
:1069900000F0C1FE0020F9E78F8B2000AA8B2000B9
:1069A000B28B2000281C00202F1C0020221C00205D
:1069B000BE8B200038B504461D480D4600F0ABFEE6
:1069C000052220461B4900F00FFD58BB1A4800F075
:1069D000A2FE1A48637A0370A37A437000F0A6FB04
:1069E0002860237C1648037000F0A0FB6871E37DEB
:1069F0001448037000F09AFBE871637F124803703B
:106A000000F094FBA86094F824301048037094F8C8
:106A10002530437094F82630837000F087FBA881FE
:106A2000012038BD0A4800F076FE0020F9E700BFDB
:106A3000CB8B2000E68B2000EC8B2000261C002056
:106A40002E1C0020211C0020231C00202A1C0020BA
:106A5000F68B20004FF0FF0C1CEAD0521EBF1CEA40
:106A6000D15392EA0C0F93EA0C0F6FD01A4480EACC
:106A7000010C400218BF5FEA41211ED04FF00063B5
:106A800043EA501043EA5111A0FB01310CF00040E1
:106A9000B1F5000F3EBF490041EAD3715B0040EA07
:106AA000010062F17F02FD2A1DD8B3F1004F40EBD7
:106AB000C25008BF20F00100704790F0000F0CF0AA
:106AC000004C08BF49024CEA502040EA51207F3A6E
:106AD000C2BFD2F1FF0340EAC250704740F4000049
:106AE0004FF00003013A5DDC12F1190FDCBF00F03A
:106AF00000407047C2F10002410021FA02F1C2F1E8
:106B0000200200FA02FC5FEA310040F1000053EA83
:106B10004C0308BF20EADC70704792F0000F00F0D1
:106B2000004C02BF400010F4000F013AF9D040EAD7
:106B30000C0093F0000F01F0004C02BF490011F46B
:106B4000000F013BF9D041EA0C018FE70CEAD15369
:106B500092EA0C0F18BF93EA0C0F0AD030F0004CE9
:106B600018BF31F0004CD8D180EA010000F000409D
:106B7000704790F0000F17BF90F0004F084691F05B
:106B8000000F91F0004F14D092EA0C0F01D1420295
:106B90000FD193EA0C0F03D14B0218BF084608D15E
:106BA00080EA010000F0004040F0FE4040F40000A8
:106BB000704740F0FE4040F44000704780F00040D5
:106BC00002E000BF81F0004142001FBF5FEA4103C5
:106BD00092EA030F7FEA226C7FEA236C6AD04FEAC5
:106BE0001262D2EB1363C1BFD2184140484041400A
:106BF000B8BF5B42192B88BF704710F0004F40F4BC
:106C0000000020F07F4018BF404211F0004F41F4D7
:106C1000000121F07F4118BF494292EA030F3FD0A3
:106C2000A2F1010241FA03FC10EB0C00C3F12003B6
:106C300001FA03F100F0004302D5494260EB400045
:106C4000B0F5000F13D3B0F1807F06D340084FEAB0
:106C5000310102F10102FE2A51D2B1F1004F40EBA5
:106C6000C25008BF20F0010040EA0300704749000D
:106C700040EB0000013A28BFB0F5000FEDD2B0FAAA
:106C800080FCACF1080CB2EB0C0200FA0CF0AABFCD
:106C900000EBC25052421843BCBFD040184370476B
:106CA00092F0000F81F4000106BF80F40000013271
:106CB000013BB5E74FEA41037FEA226C18BF7FEA48
:106CC000236C21D092EA030F04D092F0000F08BF8A
:106CD0000846704790EA010F1CBF0020704712F071
:106CE0007F4F04D1400028BF40F00040704712F1B0
:106CF00000723CBF00F50000704700F0004343F015
:106D0000FE4040F4000070477FEA226216BF08464A
:106D10007FEA23630146420206BF5FEA412390EA0D
:106D2000010F40F4800070474FF0000304E000BF03
:106D300010F0004348BF40425FEA000C08BF7047B4
:106D400043F0964301464FF000001CE050EA010278
:106D500008BF70474FF000030AE000BF50EA01028D
:106D600008BF704711F0004302D5404261EB41017A
:106D70005FEA010C02BF84460146002043F0B6439F
:106D800008BFA3F18053A3F50003BCFA8CF2083AC4
:106D9000A3EBC25310DB01FA02FC634400FA02FCCD
:106DA000C2F12002BCF1004F20FA02F243EB0200D4
:106DB00008BF20F00100704702F1200201FA02FC36
:106DC000C2F1200250EA4C0021FA02F243EB020029
:106DD00008BF20EADC7070474FEA4002B2F1FE4F74
:106DE0000FD34FF09E03B3EB12620DD94FEA00238D
:106DF00043F0004310F0004F23FA02F018BF404266
:106E000070474FF00000704712F1610F01D142024C
:106E100005D110F0004008BF6FF0004070474FF000
:106E20000000704753B94AB9002908BF00281CBFA9
:106E30004FF0FF314FF0FF3000F076B9ADF1080CA4
:106E40006DE904CE00F006F8DDF804E0DDE9022388
:106E500004B070472DE9F047089E0D460446884669
:106E6000002B4DD18A42944668D9B2FA82F252B1CF
:106E700001FA02F3C2F1200120FA01F10CFA02FC3E
:106E800041EA030894404FEA1C41B8FBF1F71FFAAE
:106E90008CFE01FB178807FB0EF0230C43EA084326
:106EA00098420AD91CEB030307F1FF3580F01E81DD
:106EB000984240F21B81023F63441B1AB3FBF1F07E
:106EC00001FB103300FB0EFEA4B244EA0344A645C6
:106ED0000AD91CEB040400F1FF3380F00981A645B8
:106EE00040F20681644402380021A4EB0E0440EA1B
:106EF00007401EB10023D440C6E90043BDE8F08737
:106F00008B4208D9002E00F0EE800021C6E9000572
:106F10000846BDE8F087B3FA83F100294AD1AB42B5
:106F200002D3824200F2FC80841A65EB0303012045
:106F30009846002EE2D0C6E90048DFE702B9FFDE3E
:106F4000B2FA82F2002A40F09180A1EB0C000121FC
:106F50004FEA1C471FFA8CFEB0FBF7F307FB130048
:106F6000250C45EA00450EFB03F0A84208D91CEBAE
:106F7000050503F1FF3802D2A84200F2CE80434655
:106F80002D1AB5FBF7F007FB10550EFB00FEA4B25F
:106F900044EA0544A64508D91CEB040400F1FF357A
:106FA00002D2A64500F2B6802846A4EB0E0440EAC1
:106FB00003409EE7C1F120078B4022FA07FC4CEA10
:106FC000030C25FA07FA4FEA1C49BAFBF9F820FA34
:106FD00007F309FB18AA8D401FFA8CFE1D4300FA27
:106FE00001F308FB0EF02C0C44EA0A44A04202FA1A
:106FF00001F20BD91CEB040408F1FF3A80F0888001
:10700000A04240F28580A8F102086444241AB4FB2F
:10701000F9F009FB104400FB0EFEADB245EA044452
:10702000A64508D91CEB040400F1FF356CD2A64537
:107030006AD90238644440EA0840A0FB0295A4EBF8
:107040000E04AC42C846AE4656D353D0002E69D08B
:10705000B3EB080264EB0E0422FA01F304FA07F71B
:107060001F43CC40C6E90074002147E70CFA02FC3C
:10707000C2F1200125FA01F34FEA1C4720FA01F181
:1070800095400D43B3FBF7F107FB11331FFA8CFE5C
:10709000280C40EA034001FB0EF3834204FA02F499
:1070A00008D91CEB000001F1FF382FD283422DD903
:1070B00002396044C01AB0FBF7F307FB1300ADB20E
:1070C00045EA004503FB0EF0A84208D91CEB050574
:1070D00003F1FF3816D2A84214D9023B6544281A9E
:1070E00043EA014138E73146304607E72F46E4E6F8
:1070F0001846F9E64B45A9D2B9EB020865EB0C0E30
:107100000138A3E74346EAE7284694E74146D1E73A
:10711000D0467BE76444023847E7023B65442FE7EB
:10712000084606E73146E9E6704700BF0A2200211B
:1071300000F05CBA032A10B516D940EA010C1CF025
:10714000030F04460B4622D119462046D1F800E031
:10715000D0F800C00433F44504F1040417D1043A14
:10716000032A20461946EFD8541EA2B100F1FF3C75
:10717000013901E0C3180CD01CF801EF11F8012F00
:10718000A4EB0C039645F5D0AEEB020010BD541EE7
:10719000ECE7184610BD104610BD00BF844641EA1A
:1071A000000313F0030349D1403A23D30B68036073
:1071B0004B6843608B688360CB68C3600B69036175
:1071C0004B6943618B698361CB69C3610B6A03625D
:1071D0004B6A43628B6A8362CB6AC3620B6B036345
:1071E0004B6B43638B6B8363CB6BC363403040312A
:1071F000403ADBD230320BD30B6803604B684360FC
:107200008B688360CB68C36010301031103AF3D2C2
:107210000C3205D351F8043B40F8043B043AF9D250
:10722000043208D0D2071CBF11F8013B00F8013B23
:1072300001D30B8803806046704700BF082A13D330
:107240008B07B1D010F00303AED0C3F10403D21A00
:10725000DB071CBF11F8013B00F8013BA4D331F858
:10726000023B20F8023B9FE7043AD9D3013A11F8D8
:10727000013B00F8013BF9D20B7803704B78437067
:107280008B78837060467047830730B548D0541EB2
:10729000002A3FD00346CAB201E0013C3AD303F8CA
:1072A000012B9D07F9D1032C2DD9CDB245EA052537
:1072B0000F2C45EA054536D9A4F1100222F00F0C37
:1072C00003F1200EE6444FEA121C03F1100242E9DA
:1072D000045542E9025510327245F8D10CF1010211
:1072E00014F00C0F03EB021204F00F0C13D0ACF1EE
:1072F000040323F003030433134442F8045B934272
:10730000FBD10CF003042CB1CAB21C4403F8012BCE
:107310009C42FBD130BD64461346002CF4D1F9E702
:1073200003461446BFE71A46A446E0E780EA010296
:10733000844612F0030F4FD111F0030F32D14DF8F4
:10734000044D11F0040F51F8043B0BD0A3F10132AE
:107350009A4312F0803F04BF4CF8043B51F8043BC1
:1073600016D100BF51F8044BA3F101329A4312F039
:10737000803FA4F101320BD14CF8043BA24312F040
:10738000803F04BF51F8043B4CF8044BEAD023463D
:107390000CF8013B13F0FF0F4FEA3323F8D15DF8EF
:1073A000044B704711F0010F06D011F8012B0CF8B7
:1073B000012B002A08BF704711F0020FBFD031F82F
:1073C000022B12F0FF0F16BF2CF8022B8CF80020B6
:1073D00012F47F4FB3D1704711F8012B0CF8012B39
:1073E000002AF9D1704700BFA2B330B540EA0104CA
:1073F000A40786460B462AD004780B78A3422FD1E7
:10740000012A0CD0844654B11CF8014F11F8013FF9
:107410009C4225D16FEA0C031344C318F3D100201A
:1074200030BD1946DEF800407046A4F1013323EA6E
:10743000040C0B4653F8045B0EF1040EAC420BD166
:10744000043AECD01CF0803FE9D170461946032A7B
:10745000E7D8D1E71046704704780B789C42D1D02A
:10746000E01A30BD30B540EA0104A30722D1032A57
:1074700020D90B468446194653F8045BA5F1013424
:1074800024EA050414F0803F15D1043A032A194672
:107490004CF8045BEFD801F1FF3E52B163461EF891
:1074A000011F541E03F8011B41B122469C46002ACD
:1074B000F4D130BD844601F1FF3EEEE76244002C7A
:1074C000F7D003F8011B9342FBD130BD2DE9F04FFB
:1074D00081468E46444D70461EF801CB15F80C408F
:1074E00014F00804F7D1BCF12D0FE34653D06FF030
:1074F0000048BCF12B0F04BF9EF800B000F1020E53
:107500001BB1102B4FD01F4604E0BBF1300F55D0FC
:107510000A231F460025B8FBF7F6284607FB168A04
:1075200007E0864215D329D0012507FB00C01EF8CD
:1075300001BBABF1300CBCF1090F06D9ABF1410C2A
:10754000BCF1190F08D8ABF1370C63450DDD002DE8
:10755000E7DA4FF0FF35EAE7ABF1610CBCF1190F48
:1075600003D8ABF1570C6345F1DC002D0BDB04B104
:1075700040420AB195BB1160BDE8F08FE245D3DA15
:107580004FF0FF35D3E72223C9F800301AB3404645
:107590000EF1FF31EFE79EF800B04FF000480124F4
:1075A00000F1020EACE7BBF1300FACD19EF8000049
:1075B00000F0DF00582807D01F46ABE79EF80030E8
:1075C00003F0DF03582B0BD110279EF801B03B4688
:1075D0000EF1020E9EE74046BDE8F08F8046D6E7EA
:1075E00008231F4696E700BFDD822000012A10B560
:1075F0000AD0242A08D8074C13460A4601462068B8
:10760000BDE81040FFF762BF00F006F816230360E4
:10761000002010BD50050020014B1868704700BFC6
:1076200050050020FEE708B5FAF730FEF7B5002454
:107630000646254627463046FAF712FF0197019B7A
:10764000AB4215DB3046FAF713FFC5F5C875019755
:10765000019B9D4211DC0134B4F5487F01D103B098
:10766000F0BDB4F5C87FD4BF2546C4F54875E2E740
:1076700000BF019B01330193E1E700BF019B013390
:107680000193E5E701207047FBF70EB810B54FF006
:10769000E024236923F001032361FBF7ADF823699C
:1076A00043F00103236110BDFBF7A6B8704700202B
:1076B000FBF766B90120FBF763B90020FBF70CBBB1
:1076C0000120FBF709BB0220FBF706BB0320FBF7F9
:1076D00003BB10B50C46FBF7F1FD2046BDE810409A
:1076E000FBF71EBE10B50446C1B20020FBF744FAFA
:1076F000204610BD70B50E460025441E631C02D006
:1077000014F8010F08B9284670BDB542FBD0FFF749
:10771000E9FF0135F2E738B505460024285D20B9B8
:107720000A20FFF7DFFF204638BDFFF7DBFF0134FB
:10773000F4E7002070470120704710B5044630225E
:1077400000210E20FBF720FB6CB1012C0CD142F282
:1077500010730011A0F28E5058432A2390FBF3F0CF
:1077600000F5C340283010BD4FF00040FBE700207B
:1077700070470120704710B50446302200210F20C9
:10778000FBF702FB5CB1012C03BF40F6F2535843F8
:1077900047F6F0734FF0004008BF90FBF3F010BDC8
:1077A000084608B511460AB1FFF7A4FF002008BD3E
:1077B00038B5044615460068FFF7F0FC2368002042
:1077C0002B44236038BD10B5041F54F8040F00B9D2
:1077D00010BD0021FCF77EFFF7E7704710B50446A7
:1077E00000F00DF82046BDE81040FCF729BE837B71
:1077F000DB0701D5FCF766BE7047FFF757BF10B532
:1078000041600446FBF744F8206010BD10B5044603
:10781000FBF73EF82368C3F1010303446068984214
:107820002CBF0020012010BD0023013A016002712D
:1078300043718371704710B5427983790479D31A03
:1078400034EA030308D00368995443790279013379
:1078500013404371012010BD0020FCE78379427979
:107860000179D21A0A421FBF0268D25C01330B4071
:107870001ABF837110464FF0FF307047002303603A
:10788000704700687047006820B103460068002810
:10789000FBD118467047036810B53BB100249942EC
:1078A0001A6806D11CB9026000221A6010BD22605D
:1078B000FAE71C46002AF9D01346F0E738B5FFF77F
:1078C000EAFF00230B600546FFF7DDFF08B92960DA
:1078D00038BD0160FCE738B5FFF7DDFF03680B60DA
:1078E000016038BD0368002003B970471B68013090
:1078F000FAE700B10068704710B5044642880021DD
:107900004068FFF7C1FC23886288A0680021BDE8B9
:1079100010405A43FFF7B8BC002310B54188994284
:1079200001DC002009E04268D418D25C32B901229F
:1079300022700288806803FB020010BD0133EEE76D
:10794000002330B5826844889C4201DCFF2008E0B7
:107950008A4207D14168CA5C0AB1013ACA544268F6
:10796000D05C30BD058801332A44EDE783688B4243
:1079700008D84288008800FB023081422CBF0020DA
:107980000120704700207047831C002013F8022C50
:10799000023302B9704713F8032C1044F6E7072BA3
:1079A0002DE9F84306460F4615461C4607DC1A46E5
:1079B00029463846FDF728F83070BDE8F8834FEACD
:1079C000E3087AB97B5D735501354545FADB14F060
:1079D0000702F2D0002107EB0800FDF715F806F8C2
:1079E0000800EAE74FF0000907EB090008222946E2
:1079F000FDF70AF806F8090009F10109C145F3DBB2
:107A000014F00702D9D02946E5E72DE9F743FDF741
:107A100049FA04460220FDF7F1F920B9002528466D
:107A200003B0BDE8F0836378207800EB032080B2D8
:107A3000FDF71EF905460028F0D0FDF733FA07469A
:107A4000287B10F0070318BF012303EBD000FDF7DC
:107A5000D5F90028E2D00026B146AC68023414F80B
:107A6000023C002BDBD0192B14F8018C07EBE6014C
:107A700006F007020BD901A84346FFF790FF14F860
:107A8000020C01A9FDF7D6FA46440234E7E701A843
:107A90004346ADF80490FFF782FFBDF8041014F8D8
:107AA000020CFDF7B9FAEFE7072B2DE9F0410FDCE7
:107AB0001478C1F11001CB1A04FA03F30178C3F36F
:107AC00007220A43417802700B434370BDE8F081FE
:107AD000DC10C9B9555C45540131A142FADB13F001
